:100000000C9464000C948C000C948C000C948C0068
:100010000C948C000C948C000C948C000C948A082A
:100020000C948C000C948C000C948C000C948C0020
:100030000C948C000C948C000C948C000C948C0010
:100040000C94CF090C948C000C9413090C94ED08BB
:100050000C948C000C948C000C948C000C948C00F0
:100060000C948C000C948C000000000024002700ED
:100070002A0000000000250028002B0002000000DC
:1000800000230026002900040404040404040402DC
:100090000202020202030303030303010204081025
:1000A00020408001020408102001020408102000F2
:1000B0000000080002010000030407000000000027
:1000C00000000000580D190A11241FBECFEFD8E020
:1000D000DEBFCDBF12E0A0E0B1E0EEE0F4E202C08E
:1000E00005900D92AA3EB107D9F724E0AAEEB2E03E
:1000F00001C01D92A132B207E1F710E0C3E6D0E0E3
:1001000004C02197FE010E941511C236D107C9F71C
:100110000E94210A0C94FA110C940000FC01A585A0
:10012000B685109761F0ED91FC911197AC014E5F8F
:100130005F4F0480F581E02DBC01CD010994089545
:10014000CB0108957F928F929F92AF92BF92CF92F0
:10015000DF92EF92FF920F931F93CF93DF93EC0107
:1001600049015A018B01C12CD12C7601C814D90444
:10017000EA04FB0484F5F80171908F018F8580FFFC
:100180000BC0E881F9810084F185E02D20E144E095
:1001900060E070E0CE010995EB85FC858D859E853C
:1001A000E817F90738F470828B859C8501969C8747
:1001B0008B870BC0E881F981672D70E0028CF38D8D
:1001C000E02DCE010995019649F02FEFC21AD20A0F
:1001D000E20AF20ACBCFB401C50102C0B601C701E1
:1001E000DF91CF911F910F91FF90EF90DF90CF9013
:1001F000BF90AF909F908F907F900895CF93DF93A3
:10020000EC01E881F9810288F389E02D09958F3F9F
:100210002FEF920731F02D813E812F5F3F4F3E83BC
:100220002D83DF91CF9108958FEF9FEF089560E0C8
:1002300070E0CB01089580E090E00895CB0108952F
:10024000CF93DF93EC0188899989DC01ED91FC91D2
:100250000084F185E02D0995892BA9F38889998976
:10026000DC01ED91FC910284F385E02DDF91CF91CB
:100270000994CF93DF93EC0188899989DC01ED9192
:10028000FC910084F185E02D0995892BA9F38889DB
:100290009989DC01ED91FC910484F585E02DDF91D5
:1002A000CF910994AF92BF92CF92DF92EF92FF92DB
:1002B0000F931F93CF93DF9300D000D0CDB7DEB75D
:1002C0008C015B01C12CD12C7601F80180899189C8
:1002D000DC01ED91FC910284F385E02D29833A83C2
:1002E0004B835C83099529813A814B815C818F3FE7
:1002F00071F0C216D306E406F5064CF4D5018D93D1
:100300005D01BFEFCB1ADB0AEB0AFB0ADECFC701A8
:10031000B6010F900F900F900F90DF91CF911F912A
:100320000F91FF90EF90DF90CF90BF90AF90089526
:10033000DC0150968D919C915197DC01ED91FC91DF
:100340000084F185E02D099480E090E0089580E03C
:1003500090E0089580E090E0089580E090E00895B6
:100360000895CF93DF93C0910903D0910A03E881E8
:10037000F9810084F185E02DCE010995892BB9F32F
:10038000E881F9810284F385E02DCE01DF91CF91E0
:1003900009941F93CF93DF93182FC0910903D09135
:1003A0000A038A3041F4E881F9810190F081E02D5F
:1003B0006DE0CE010995E881F9810190F081E02D91
:1003C000612FCE01099521E030E0019711F420E082
:1003D00030E0C901DF91CF911F910895089580E029
:1003E00090E00895CF93DF93EC010E948E004F853B
:1003F000888999892A813B8141110AC04A895B8990
:10040000840F951F2817390760F081E08F8704C09B
:100410008217930730F01F86CE01DF91CF910C94A5
:100420004509DF91CF9108950C94FE0F0C94FE0FB7
:100430000C94FE0F2BE031E0FC0131832083878197
:1004400090850C94FE0FCF93DF93EC010E941A026B
:10045000CE01DF91CF910C94FE0F0C94FE0F0C9403
:10046000FE0F0C94FE0F0C94FE0F089508950C944B
:10047000FE0FDC01ED91FC91369720813181820FD6
:10048000931F0C943702FB0120813181FC013183E1
:100490002083FB0142815381F9013697208131810C
:1004A000FC01E20FF31F51834083089521E931E0FD
:1004B000FC01318320832BE931E0318F208F61EA09
:1004C00071E00C944302DC01ED91FC9136972081A0
:1004D0003181820F931F0C945602CF93DF93EC016E
:1004E0000E945602CE01DF91CF910C94FE0FDC01E9
:1004F000ED91FC91369720813181820F931F0C94EE
:100500006D020C94FE0F089508950C94FE0FDC010B
:10051000ED91FC91369720813181820F931F0C94CD
:100520008502FB0120813181FC0131832083FB01A5
:1005300042815381F901369720813181FC01E20F1C
:10054000F31F51834083089529E032E0FC01318399
:10055000208323E132E0358B248B69E172E00C9437
:100560009102DC01ED91FC91369720813181820F5F
:10057000931F0C94A402CF93DF93EC010E94A4027A
:10058000CE01DF91CF910C94FE0FDC01ED91FC9137
:10059000369720813181820F931F0C94BB020C94FB
:1005A000FE0F0F931F93CF93DF938C01EB016F3FEF
:1005B0008FEF780719F480E090E00FC06A3031F4D3
:1005C0006DE0F801808991890E94E6086C2FF8019E
:1005D000808991890E94E608CE01DF91CF911F9119
:1005E0000F9108958F929F92BF92CF92DF92EF92D8
:1005F000FF920F931F93CF93DF9300D000D0CDB71E
:10060000DEB78C014B01C12CD12C7601C216D3066A
:10061000E406F50644F5F401B1904F01FAE0BF128B
:100620000EC06DE0F8018089918929833A834B835C
:100630005C830E94E6085C814B813A8129816B2DA5
:10064000F8018089918929833A834B835C830E94D6
:10065000E608FFEFCF1ADF0AEF0AFF0A5C814B8141
:100660003A812981D3CFCA01B9010F900F900F9021
:100670000F90DF91CF911F910F91FF90EF90DF903E
:10068000CF90BF909F908F9008956115710509F4E8
:100690004DC0DB011296ED91FC91139722811496C7
:1006A0008C91853049F48785882319F083E492E0A2
:1006B0003BC08EE492E038C0858596852F30A1F04E
:1006C00018F42E3031F008952031C9F0213111F1A4
:1006D00008958230910519F48AE592E025C00397C8
:1006E00029F581E692E020C08230910519F48AE66E
:1006F00092E01AC00397D1F482E792E015C08230ED
:10070000910519F487E792E00FC0039779F481E827
:1007100092E00AC08230910519F48FE892E004C09B
:10072000039721F48AE992E00C948C0908950895C6
:1007300008950895AF92BF92CF92DF92EF92FF9209
:100740000F931F93CF93DF93FC012481222319F091
:10075000FB01908B8787FC01C281D381EC80FD80F7
:1007600087010F5F1F4FE016F10608F046C06B01CE
:100770008A819B818017910760F59701275F3F4F22
:100780008217930730F5A880B9803B832A83C9017B
:10079000880F991F0E94690F99838883D50140E0D3
:1007A00050E04E155F0591F0E881F9819A01220F22
:1007B000331FE20FF31F309729F08D919C91119711
:1007C000918380834F5F5F4F1296EBCFC5010E94EC
:1007D000FE0F8C819D819C01220F331F8017910792
:1007E00078F4E881F981E20FF31F309711F0D1829C
:1007F000C08201962E5F3F4FF1CF0E151F0510F4FA
:100800001D830C83DF91CF911F910F91FF90EF908B
:10081000DF90CF90BF90AF900895FF920F931F93FA
:10082000CF93DF93EC010F8518890115110521F194
:10083000FA8087E090E00E94690FDC0183E191E09B
:1008400011969C938E9316961C921E921597139652
:10085000DC93CE9312971496FC921497E801E881EA
:10086000F9810480F581E02DBD01C801DF91CF91B0
:100870001F910F91FF900994DF91CF911F910F91DC
:10088000FF9008951F93CF93DF93EC01162F8BE019
:1008900091E0998388838FEF8A831B821C821D825B
:1008A0001E8218861F821A8619861C861B8661E0A6
:1008B00070E080E090E00E941B11009761F0988743
:1008C0008F831A8619862B853C85232B09F03BC024
:1008D000FC01108238C08F819885009711F00E942A
:1008E000FE0F18861F821C861B861A86198681E0D9
:1008F00090E09E878D87188A1F861A83612F70E08B
:10090000FB01E556FF4F2491FB01E957FF4F84910E
:10091000882301F190E0880F991FFC01E859FF4FEF
:10092000C591D491FC01EE58FF4FA591B4919FB7AA
:10093000F8948881E22FE0958E2388838C91E823B8
:10094000EC939FBF07C01C861B8667EB72E00E947A
:10095000F311CDCFDF91CF911F91089529E331E0BD
:10096000DC0111963C932E9316968D919C911797CE
:10097000009739F0DC01ED91FC910280F381E02DCC
:1009800009940895CF93DF93EC010E94AE04CE0149
:10099000DF91CF910C94FE0F8F929F92AF92BF92F6
:1009A000CF92DF92EF92FF921F93CF93DF93CDB759
:1009B000DEB7A1970FB6F894DEBF0FBECDBFFB0127
:1009C000228133816901E12CF12CFC018281232BEE
:1009D00009F4B8C190910001981721F09F3F09F0E8
:1009E000B3C104C0ECE7F0E014917DC08093000136
:1009F000ECE7F0E014911F3F09F4A6C1113029F192
:100A0000123009F449C011116EC014BC15BC94B564
:100A1000926094BD95B5916095BD282F30E0F901A5
:100A2000E957FF4FE491F0E0EE0FFF1FEE58FF4F44
:100A3000459154915093EF024093EE02F901E5562F
:100A4000FF4FE491E093ED0250C0109280001092AD
:100A50008100909181009860909381009091810035
:100A6000916090938100282F30E0F901E957FF4F02
:100A7000E491F0E0EE0FFF1FEE58FF4F45915491C7
:100A80005093EC024093EB02F901E556FF4FE491DD
:100A9000E093EA0211E029C01092B0001092B10078
:100AA0009091B00092609093B0009091B1009160ED
:100AB0009093B100282F30E0F901E957FF4FE491FE
:100AC000F0E0EE0FFF1FEE58FF4F45915491509309
:100AD000F9024093F802F901E556FF4FE491E093E3
:100AE000FA0212E002C017FD2FC190E0FC01E556AA
:100AF000FF4F2491FC01E957FF4F8491882399F01F
:100B000090E0880F991FFC01E859FF4FA591B4911F
:100B1000FC01EE58FF4F859194918FB7F894EC91BA
:100B20002E2B2C938FBF812F8D7F09F0A0C060E00A
:100B300072E18AE790E0A70196010E94F610490150
:100B40005A01DA01C9010197A109B1098F3F910545
:100B5000A105B10509F00CF442C060E472E48FE035
:100B600090E0A70196010E94F610DA01C9010197F1
:100B7000A109B1091230E1F48F3F9105A105B1053A
:100B800009F00CF467C160E970ED83E090E0A70123
:100B900096010E94F610DA01C9010197A109B10975
:100BA0008F3F9105A105B10509F08CF523E058C0F0
:100BB0008F3F9105A105B105A1F09CF068E478EEA6
:100BC00081E090E0A70196010E94F610DA01C901C8
:100BD0000197A109B109112309F4F0C033C121E043
:100BE00001C022E0112371F03BC0D501C4012AE00D
:100BF000B595A795979587952A95D1F70197A1095E
:100C0000B10925E035B5387F232B25BD61C068E4E7
:100C100078EE81E090E0A70196010E94F610DA01DB
:100C2000C9010197A109B1098F3F9105A105B1053E
:100C300009F00CF4C1C064E274EF80E090E0A70119
:100C400096010E94F610DA01C9010197A109B109C4
:100C50008F3F9105A105B10511F008F0CDC025E049
:100C60003091B100387F232B2093B1002BC060E07E
:100C700072E18AE790E0A70196010E94F610DA017E
:100C8000C9010197A109B1090097F1E0AF07B105CA
:100C900014F431E00EC068E478EE81E090E0A70142
:100CA00096010E94F610DA01C9010197A109B10964
:100CB00033E0113039F420918100287F232B2093D9
:100CC000810018C01130B1F0123049F111113CC04F
:100CD00087BD8FEF9FEFDC018093F4029093F502C4
:100CE000A093F602B093F70280916E008260809329
:100CF0006E002AC090938900809388008FEF9FEF49
:100D0000DC018093F0029093F102A093F202B09381
:100D1000F30280916F00826080936F0015C0809312
:100D2000B3008FEF9FEFDC018093FB029093FC02F6
:100D3000A093FD02B093FE028091700082608093C8
:100D4000700002C00E943A0889EA92E00E947A0983
:100D5000A701960119A27E01F1E2EF0EF11C6AE0F3
:100D6000862E912CA12CB12CCA01B901A5019401A8
:100D70000E94D410605DF70162937F012115310557
:100D80004105510589F7CF010E947A0985EB92E070
:100D90000E947A09A1960FB6F894DEBF0FBECDBFB0
:100DA000DF91CF911F91FF90EF90DF90CF90BF9098
:100DB000AF909F908F90089524E052CF8F3F910580
:100DC000A105B105B9F0B4F062E17AE780E090E006
:100DD000A70196010E94F610DA01C9010197A10945
:100DE000B1098F3F9105A105B10511F008F0FDCEC5
:100DF00024E008CF23E006CF62E17AE780E090E0CC
:100E0000A70196010E94F610DA01C9010197A10914
:100E1000B1098F3F9105A105B10591F088F0D50189
:100E2000C4017AE0B595A795979587957A95D1F7FE
:100E30000197A109B109112309F4E3CE27E010CFEE
:100E400026E0D0CE8F3F9105A105B10509F0A4F6AB
:100E500024E0C8CE22E004CF0895089508950895AF
:100E600008950895CF92DF92EF92FF920F931F9310
:100E7000CF93DF936C017A018B01C0E0D0E0CE15F7
:100E8000DF0589F0D8016D918D01D601ED91FC91BE
:100E90000190F081E02DC6010995892B11F47E01A6
:100EA00002C02196ECCFC701DF91CF911F910F9126
:100EB000FF90EF90DF90CF900895FC01538D448D0B
:100EC000252F30E0842F90E0821B930B541710F0F5
:100ED000CF96089501970895FC01918D828D981702
:100EE00061F0828DDF01A80FB11D5D968C91928D0E
:100EF0009F5F9F73928F90E008958FEF9FEF08950B
:100F0000FC01918D828D981731F0828DE80FF11DD3
:100F1000858D90E008958FEF9FEF0895FC01918DEE
:100F2000228D892F90E0805C9F4F821B91098F73E7
:100F3000992708958BE393E00E948E0721E0892B87
:100F400009F420E0822F0895FC01848DDF01A80FB1
:100F5000B11DA35ABF4F2C91848D90E001968F73E1
:100F60009927848FA689B7892C93A089B1898C9100
:100F700080648C93938D848D981306C00288F389C6
:100F8000E02D80818F7D80830895EF92FF920F93F3
:100F90001F93CF93DF93EC0181E0888F9B8D8C8D25
:100FA000981305C0E889F989808185FD24C0F62E53
:100FB0000B8D10E00F5F1F4F0F731127E02E8C8DEC
:100FC000E8120CC00FB607FCFACFE889F9898081D6
:100FD00085FFF5CFCE010E94A407F1CF8B8DFE01D6
:100FE000E80FF11DE35AFF4FF0820B8FEA89FB896E
:100FF0008081806207C0EE89FF896083E889F98972
:1010000080818064808381E090E0DF91CF911F91A7
:101010000F91FF90EF900895CF93DF93EC01888DAF
:101020008823C9F0EA89FB89808185FD05C0A889EC
:10103000B9898C9186FD0FC00FB607FCF5CF808172
:1010400085FFF2CFA889B9898C9185FFEDCFCE01BC
:101050000E94A407E7CFDF91CF91089580E090E050
:10106000892B29F00E949A0781110C9400000895A1
:101070000E94E511CF93DF9390910001981324C053
:10108000ECE7F0E0E4919FEF90930001E130B9F0DC
:1010900098F0E230C9F4909170009D7F90937000B9
:1010A00091E09093B0009091B100987F94609093FC
:1010B000B1001092B30008C010926E0005C090916C
:1010C0006F009D7F90936F00282F30E0F901E1556C
:1010D000FF4F8491F901E556FF4FD491F901E9578B
:1010E000FF4FC491CC2399F081110E949A09EC2FF3
:1010F000F0E0EE0FFF1FEE58FF4FA591B4918FB7B0
:10110000F8949C91ED2FE095E923EC938FBFDF914C
:10111000CF9108951F920F920FB60F9211242F9323
:101120003F934F935F936F937F938F939F93AF936F
:10113000BF93EF93FF938091FB029091FC02A091EB
:10114000FD02B091FE02892B8A2B8B2B51F18091ED
:10115000FA02E091F802F091F902908189278083E8
:101160008091FB029091FC02A091FD02B091FE02E1
:10117000181619061A061B06C4F48091FB029091FA
:10118000FC02A091FD02B091FE020197A109B109F4
:101190008093FB029093FC02A093FD02B093FE02A9
:1011A00004C0809100010E943A08FF91EF91BF9125
:1011B000AF919F918F917F916F915F914F913F91EF
:1011C0002F910F900FBE0F901F901895DC01ED919D
:1011D000FC910190F081E02D09941F920F920FB6BF
:1011E0000F9211242F933F934F935F936F937F93AD
:1011F0008F939F93AF93BF93EF93FF938BE393E012
:101200000E94A407FF91EF91BF91AF919F918F91A1
:101210007F916F915F914F913F912F910F900FBEF2
:101220000F901F9018951F920F920FB60F921124D6
:101230002F938F939F93EF93FF93E0914B03F09144
:101240004C038081E0915103F091520382FD12C062
:101250009081809154038F5F8F7320915503821783
:1012600051F0E0915403F0E0E55CFC4F958F8093E2
:10127000540301C08081FF91EF919F918F912F9135
:101280000F900FBE0F901F901895FF920F931F9312
:10129000CF93DF93EC010C891D890115110521F114
:1012A000FD8087E090E00E94690FDC0183E191E01E
:1012B00011969C938E9316961C921E9215971396D8
:1012C000DC93CE9312971496FC921497E801E88170
:1012D000F9810480F581E02DBD01C801DF91CF9136
:1012E0001F910F91FF900994DF91CF911F910F9162
:1012F000FF900895009769F0FC0101900020E9F744
:101300003197AF01481B590BBC018BE393E00C9460
:10131000320780E090E00895CF93DF930E947A092E
:10132000EC0185EB92E00E947A098C0F9D1FDF9102
:10133000CF910895833081F028F4813099F0823084
:10134000A1F008958730A9F08830B9F08430D1F445
:10135000809180008F7D03C0809180008F77809383
:101360008000089584B58F7702C084B58F7D84BDD9
:1013700008958091B0008F7703C08091B0008F7D79
:101380008093B00008952FB7F89460911304709182
:10139000140480911504909116042FBF08951F9294
:1013A0000F920FB60F9211242F933F938F939F9319
:1013B000AF93BF938091130490911404A0911504EE
:1013C000B09116043091120423E0230F2D3720F43E
:1013D0000196A11DB11D05C026E8230F0296A11D8F
:1013E000B11D209312048093130490931404A093CE
:1013F0001504B093160480910E0490910F04A091EF
:101400001004B09111040196A11DB11D80930E042A
:1014100090930F04A0931004B0931104BF91AF9167
:101420009F918F913F912F910F900FBE0F901F9022
:1014300018958DE093E00E94560288ED93E00C949D
:10144000A402CF93DF9300D000D0CDB7DEB778945D
:1014500084B5826084BD84B5816084BD85B58260B9
:1014600085BD85B5816085BD80916E00816080936A
:101470006E001092810080918100826080938100D3
:1014800080918100816080938100809180008160E3
:10149000809380008091B10084608093B10080913E
:1014A000B00081608093B00080917A008460809366
:1014B0007A0080917A00826080937A0080917A002D
:1014C000816080937A0080917A00806880937A00AE
:1014D0001092C100E0914B03F0914C0382E08083B5
:1014E000E0914703F09148031082E0914903F091A5
:1014F0004A038FEC808310925303E0914F03F091E5
:10150000500386E08083E0914D03F0914E0380818B
:1015100080618083E0914D03F0914E03808188606B
:101520008083E0914D03F0914E0380818068808339
:10153000E0914D03F0914E0380818F7D808388EB95
:1015400092E00E948C0985E090E00E94690F7C0186
:1015500087E090E00E94690F8C0188E090E0D8015C
:1015600013969C938E93129715961C921E92149725
:1015700080E190E00E94690FF80191838083D70198
:1015800013961C930E93129714961C9214978FE245
:1015900091E08D939C93F0920403E0920303609199
:1015A0000C0470910D04C7010E949A0360910A0413
:1015B00070910B04C7010E949A0360910804709116
:1015C0000904C7010E949A03609106047091070400
:1015D000C7010E949A03E0910404F0910504F58A82
:1015E000E48AD7011296ED91FC911397848195813D
:1015F000880F991F0190F081E02D8E0F9F1FE81733
:10160000F90739F0A191B1915096FC92EE921F9793
:10161000F6CF81E0F701848385EC92E00E948C098B
:1016200088E090E00E94690F2C0149E3A42E41E07C
:10163000B42EDC011196BC92AE9287E194E0139631
:101640009C938E93129758EE852E53E0952E159607
:101650009C928E92149788E090E00E94690F6C0132
:10166000FC01B182A08287E295E093838283958218
:10167000848288E090E00E94690F7C01DC01119671
:10168000BC92AE9213961C921E9212976AEF662E2F
:10169000712C15967C926E92149788E090E00E94CF
:1016A000690F8C01FC01B182A08280E296E09383F5
:1016B00082837582648288E090E00E94690FFC0159
:1016C000B182A082178216828DE298E09383828392
:1016D00095828482D2011796DC92CE921697D6011B
:1016E0001796FC92EE921697D70117961C930E93BD
:1016F0001697D8011796FC93EE931697E091020483
:10170000F09103045786468683E090E095838483B6
:101710001782168282E08383158614866089718918
:10172000CF010E94CC0481ED92E00E948C090E94BE
:10173000C3096093FF0270930003809301039093A9
:10174000020380EE92E00E948C0973E0C72ED12C38
:10175000AA24A394B12CF2E08F2E912C0E94C309ED
:101760000E94C309609305037093060380930703E7
:1017700090930803E0900303F0900403D7011296BE
:10178000ED91FC91139700811181D7011296ED9193
:10179000FC91139784819581880F991F2081318155
:1017A000820F931F0817190739F1F8012190319022
:1017B0008F01D10112962C9130E0F901E155FF4FD4
:1017C0008491F901E556FF4F7490F901E957FF4FF5
:1017D0006490662009F4F3C081110E949A09E62DF5
:1017E000F0E0EE0FFF1FE358FF4FA591B491EC918D
:1017F0007E2209F4E4C02FC1009104041091050475
:10180000F801848522859385E22FF92FE80FF11DD9
:10181000E80FF11D20813181D80116964D915D911F
:101820006D917C911997421B530B610971091696B2
:101830004D935D936D937C93199715968C918E3093
:1018400008F08E508770806480937C0080917A00CD
:10185000806480937A0080917A0086FDFCCF80912D
:1018600078002091790090E0922B91838083F80199
:10187000448522859385E22FF92FE40FF11DE40FB3
:10188000F11D20813181D80116964D905D906D90AB
:101890007C901997C301B201620F731F811D911DC6
:1018A000F801668377838087918731E0340F34872E
:1018B0002481321708F0148630E040E050E00E94A6
:1018C000D410D80112968D919C911397821793078B
:1018D00069F0ED91FC910480F581E02DC801298328
:1018E0003A834B835C8309953A812981F8013383DC
:1018F0002283E0900204F0900304D70113968C91A8
:101900001397823009F051C01C960D911C911D97C0
:101910000E94C309F70120853185021B130B600F5C
:10192000711F758764870088F189E02D8481958116
:1019300068177907D0F1D7011D961C921E921C974B
:10194000668177816115710529F051967C936E93BC
:10195000509717C0F70186819781668577858F3FFD
:10196000FFEF9F0741F0D70114962D913C911597F9
:101970008217930754F4F701718B608B019697835C
:101980008683C7010E94CC0410C0D70113961C9215
:10199000139751967C936E93509717963C932E9382
:1019A000169712968C910E943A080E94C309F7017B
:1019B00060877187828793870E942E08CFCED101DE
:1019C0001D968D919C911E97009719F50E94C30951
:1019D000F1014380548065807680DC01CB0184195D
:1019E0009509A609B709843F9140A105B10508F4FE
:1019F000CCCED1011D968D919C911E97039709F431
:101A0000C4CE1E96DC92CE921D97C1010E940D0499
:101A1000BCCE019709F0B9CE0E94C309F101438001
:101A2000548065807680DC01CB0184199509A60974
:101A3000B709C397A105B10508F4A7CE1686158688
:101A4000C1010E940D040E94C309F10163837483E4
:101A5000858396839ACEF10185859685019709F451
:101A600094CE0E94C309D10113964D905D906D9064
:101A70007C901697DC01CB0184199509A609B7095A
:101A8000C397A105B10508F480CED1011D968D91B3
:101A90009C911E97892B31F4F10196868586C101B0
:101AA0000E940D04D1011E96BC92AE921D97C8CF24
:101AB000CF92DF92EF92FF92CF93DF938BE393E08D
:101AC00010923E0310923D0348EE53E060E070E058
:101AD00040933F035093400360934103709342034C
:101AE00029E631E030933C0320933B0325EC30E0C2
:101AF000309348032093470324EC30E030934A03AB
:101B00002093490320EC30E030934C0320934B03A7
:101B100021EC30E030934E0320934D0322EC30E073
:101B20003093500320934F0326EC30E03093520360
:101B300020935103109254031092550310925603B0
:101B40001092570361E270E07093F0036093EF032B
:101B50001092F1031092F2031092F30326E0C22ECA
:101B6000D12CE12CF12CC092F403D092F503E09239
:101B7000F603F092F7031092F8031092F903109213
:101B8000FA031092FB0340E24093FC031092FE0321
:101B90001092FD03109201042AED33E0309300040B
:101BA0002093FF0329E032E03093D9032093D80338
:101BB00023E132E03093ED032093EC031092DE0337
:101BC0001092DD031092E0031092DF031092E20303
:101BD0001092E1031092E4031092E3031092E603E3
:101BE0001092E5031092E8031092E70327EE31E02C
:101BF0003093DB032093DA039093EB038093EA03A3
:101C000050E15093E90370932903609328031092E5
:101C10002A0310922B0310922C03C0922D03D09212
:101C20002E03E0922F03F0923003109231031092B2
:101C30003203109233031092340340933503109211
:101C400037031092360310923A0310920F0310924A
:101C50001003109211031092120343E153E05093CA
:101C600039034093380341E951E050930E03409308
:101C70000D034BE951E05093260340932503109246
:101C80001703109216031092190310921803109262
:101C90001B0310921A0310921D0310921C03109242
:101CA0001F0310921E031092210310922003309301
:101CB000140320931303909324038093230328E0B9
:101CC0002093220310920C0310920B0390930A03AB
:101CD0008093090361EB71E089EC91E00E94020FAF
:101CE00090930C0380930B0381E190E00E94690FB5
:101CF000EC016EE00E944204D0930D04C0930C04EA
:101D000081E190E00E94690FEC016FE00E944204C3
:101D1000D0930B04C0930A0481E190E00E94690F04
:101D2000EC0160E10E944204D0930904C0930804CE
:101D300081E190E00E94690FEC0161E10E944204A0
:101D4000D0930704C093060486E190E00E94690FD7
:101D5000EC0183E392E0998388831B821A8285E0F9
:101D60008D831E821F82188619861C861E861D86FC
:101D70008CE090E00E94690F8A879B8726E02C8385
:101D8000FC010C96E817F90719F011921192FACF9D
:101D90008DE392E0998388831F861D8A1C8A8EE1D9
:101DA00090E0998B888B82E390E09B8B8A8BD09319
:101DB0000504C093040482E190E00E94690FFC01D5
:101DC00083E292E09183808386E08283138281E0C4
:101DD00090E095838483178216821086118612867E
:101DE00013861586148617861686118A108AF09334
:101DF0000304E0930204DF91CF91FF90EF90DF9016
:101E0000CF9008950F931F93CF93DF93009731F4F2
:101E10006115710519F480E090E03AC08B01EC0186
:101E20006EE070E081E090E00E944D0FFC01892B94
:101E300091F380E883830115110571F01387028700
:101E400081E883838091170490911804892B21F4F1
:101E5000F0931804E09317042097C9F0D187C08746
:101E60008381826083838091190490911A04892B65
:101E700071F4F0931A04E093190480911B0490917B
:101E80001C04892B21F4F0931C04E0931B04CF0164
:101E9000DF91CF911F910F9108950F931F93CF93CF
:101EA000DF93869F8001879F100D969F100D112450
:101EB000C8010E94690FEC01009729F0A80160E0B9
:101EC00070E00E949610CE01DF91CF911F910F918B
:101ED0000895CF93DF938230910510F482E090E073
:101EE000E0911F04F091200420E030E0C0E0D0E059
:101EF000309711F14081518148175907C0F04817B8
:101F0000590761F482819381209719F09B838A831A
:101F10002BC09093200480931F0426C02115310507
:101F200019F04217530718F49A01BE01DF01EF01BF
:101F30000280F381E02DDCCF2115310509F1281B4A
:101F4000390B2430310590F412968D919C911397A2
:101F50006115710521F0FB019383828304C0909386
:101F6000200480931F04FD01329644C0FD01E20F5E
:101F7000F31F81939193225031092D933C933AC0E2
:101F800020911D0430911E04232B41F42091030164
:101F90003091040130931E0420931D04209101010F
:101FA000309102012115310541F42DB73EB7409122
:101FB000050150910601241B350BE0911D04F091A1
:101FC0001E04E217F307A0F42E1B3F0B2817390756
:101FD00078F0AC014E5F5F4F2417350748F04E0F85
:101FE0005F1F50931E0440931D048193919302C080
:101FF000E0E0F0E0CF01DF91CF9108950F931F93C0
:10200000CF93DF93009709F48CC0FC0132971382C1
:10201000128200911F04109120040115110581F412
:1020200020813181820F931F20911D0430911E0465
:102030002817390779F5F0931E04E0931D0471C049
:10204000D80140E050E0AE17BF0750F412962D9132
:102050003C911397AD012115310509F1D901F3CF59
:102060009D01DA013383228360817181860F971F7E
:102070008217930769F4EC0128813981260F371FF5
:102080002E5F3F4F318320838A819B81938382839C
:10209000452B29F4F0932004E0931F0442C01396CB
:1020A000FC93EE931297ED01499159919E01240FF3
:1020B000351FE217F30771F480819181840F951F1A
:1020C000029611969C938E938281938113969C9392
:1020D0008E931297E0E0F0E0D80112968D919C91DA
:1020E0001397009719F0F8018C01F6CF8D919C9110
:1020F00098012E5F3F4F820F931F20911D04309156
:102100001E042817390769F4309729F41092200427
:1021100010921F0402C01382128210931E040093B7
:102120001D04DF91CF911F910F910895DC0101C033
:102130006D9341505040E0F708952F923F924F9297
:102140005F926F927F928F929F92AF92BF92CF9247
:10215000DF92EF92FF920F931F93CF93DF93CDB750
:10216000DEB7CA1BDB0B0FB6F894DEBF0FBECDBFC8
:1021700009942A88398848885F846E847D848C8499
:102180009B84AA84B984C884DF80EE80FD800C81A2
:102190001B81AA81B981CE0FD11D0FB6F894DEBF85
:1021A0000FBECDBFED010895A1E21A2EAA1BBB1BE5
:1021B000FD010DC0AA1FBB1FEE1FFF1FA217B30713
:1021C000E407F50720F0A21BB30BE40BF50B661F29
:1021D000771F881F991F1A9469F7609570958095ED
:1021E00090959B01AC01BD01CF010895052E97FB91
:1021F0001EF400940E940D1157FD07D00E94D410C8
:1022000007FC03D04EF40C940D1150954095309579
:1022100021953F4F4F4F5F4F089590958095709552
:1022200061957F4F8F4F9F4F0895EE0FFF1F0590D1
:10223000F491E02D0994A0E0B0E0E1E2F1E10C942A
:10224000A110EC01009721F4CB010E94690FB8C0E6
:10225000FC01E60FF71F9C0122503109E217F3073A
:1022600008F4ACC0D9010D911C91119706171707FE
:10227000B0F00530110508F49FC0C8010497861717
:10228000970708F499C002501109061B170B019318
:1022900011936D937C93CF010E94FE0F8DC05B0163
:1022A000A01AB10A4C01800E911EA0911F04B0919A
:1022B000200440E050E0E12CF12C109709F44AC0D2
:1022C000A815B905D1F56D907C901197630182E056
:1022D000C80ED11CCA14DB0480F1A3014A195B09A2
:1022E0006A0182E0C80ED11C1296BC901297139618
:1022F000AC91B5E0CB16D10440F0B282A3835183F8
:102300004083D9016D937C930AC00E5F1F4FC301B8
:10231000800F911FF90191838083EB2DFA2FE11437
:10232000F10431F0D7011396FC93EE93129744C059
:10233000F0932004E0931F043FC08D919C9111976E
:102340004817590708F4AC017D0112960D90BC9115
:10235000A02DB3CF80911D0490911E04881599057E
:10236000E1F446175707C8F48091010190910201EA
:10237000009741F48DB79EB7409105015091060139
:10238000841B950BE817F907C8F4F0931E04E0933B
:102390001D04F901718360830FC0CB010E94690F96
:1023A0007C01009759F0A801BE010E94EA11CE01FC
:1023B0000E94FE0FC70104C0CE0102C080E090E081
:1023C000CDB7DEB7EEE00C94BD1081E090E0F8945C
:1023D0000C94FA11FB01DC0102C001900D924150F6
:1023E0005040D8F70895FB01DC0101900D920020C8
:1023F000E1F7089510E0C3E6D0E004C0FE010E94BA
:0E24000015112196C436D107C9F7F894FFCF05
:10240E00FF000021048000000000001A02230200D9
:10241E000000002D072F0200000000000000003811
:10242E000800000000000000003808000000003125
:10243E0007CF02450300000000AE04C204180000DE
:10244E0000000000000000E8FFE8FF0000000000B0
:10245E000014000000000000000000ECFFECFF0084
:10246E00000000000000000000C50732075D070CE9
:10247E00088E076C07800706000000000035023743
:10248E0002FAFFFAFF0000360239021800000000BF
:10249E000056026D02E8FFE8FF000063027702912A
:1024AE000143014D019B01000000002E073302B0D5
:1024BE0001AD01AA01A701A4011B0117011401FE20
:1024CE00001E01A200A00002000000000083028591
:1024DE0002FEFFFEFF0000840287020000000030B3
:1024EE00071402000000002F078102B001AD01AAFF
:1024FE0001A701A40198015201390120011E01F228
:10250E0002D102140000000000A402BB02ECFFEC9A
:10251E00FF0000B102C5020902570161011302005A
:10252E000000002C072D020000000099033102006C
:10253E00000000980318028E00000000009703169A
:10254E0002F2016F6E436173654F70656E006F6EC0
:10255E0043617365436C6F7365006F6E4261636BAD
:10256E00006F6E52657475726E006F6E456E746597
:10257E0072006F6E4F4B006F6E466F7277617264B2
:10258E00006F6E46617374466F7277617264006F8E
:10259E006E4261636B77617264006F6E4661737435
:1025AE004261636B7761726400506C617920546F85
:1025BE006E653A20000D0A005374617274696E677D
:1025CE00202E2E2E0047554920696E69742E2E2E10
:1025DE000042757A7A657220696E69742E2E2E000D
:0A25EE0053746172746564210000EB
:00000001FF
