:100000000C9464000C948C000C948C000C948C0068
:100010000C948C000C948C000C948C000C94AF0409
:100020000C948C000C948C000C948C000C948C0020
:100030000C948C000C948C000C948C000C948C0010
:100040000C94370C0C948C000C94D9060C94B306C9
:100050000C948C000C948C000C948C000C948C00F0
:100060000C948C000C948C000200000000230026ED
:1000700000290000000000240027002A00000000E2
:1000800000250028002B00040404040404040402D6
:100090000202020202030303030303010204081025
:1000A00020408001020408102001020408102000F2
:1000B0000000080002010000030407000000000027
:1000C000000000009011810C11241FBECFEFD8E07A
:1000D000DEBFCDBF13E0A0E0B1E0E8E2FEE202C087
:1000E00005900D92AA3BB107D9F725E0AAEBB3E042
:1000F00001C01D92A730B207E1F710E0C3E6D0E0DF
:1001000004C02197FE010E942216C236D107C9F70A
:100110000E94890C0C9407170C94000023E131E035
:10012000DC0111963C932E9314968D919C9115971A
:10013000009739F0DC01ED91FC910280F381E02D14
:10014000099408950895CB0108957F928F929F920C
:10015000AF92BF92CF92DF92EF92FF920F931F93D5
:10016000CF93DF93EC0149015A018B01C12CD12CB3
:100170007601C814D904EA04FB0484F5F8017190EF
:100180008F018F8580FF0BC0E881F9810084F185A4
:10019000E02D20E144E060E070E0CE010995EB85C0
:1001A000FC858D859E85E817F90738F470828B856C
:1001B0009C8501969C878B870BC0E881F981672D10
:1001C00070E0028CF38DE02DCE010995019649F087
:1001D0002FEFC21AD20AE20AF20ACBCFB401C5014C
:1001E00002C0B601C701DF91CF911F910F91FF901F
:1001F000EF90DF90CF90BF90AF909F908F907F90C7
:100200000895CF93DF93EC01E881F9810288F389A7
:10021000E02D09958F3F2FEF920731F02D813E8120
:100220002F5F3F4F3E832D83DF91CF9108958FEF56
:100230009FEF089560E070E0CB01089580E090E0CA
:100240000895CB010895CF93DF93EC0188899989B4
:10025000DC01ED91FC910084F185E02D0995892B5D
:10026000A9F388899989DC01ED91FC910284F385D9
:10027000E02DDF91CF910994CF93DF93EC01888932
:100280009989DC01ED91FC910084F185E02D0995BF
:10029000892BA9F388899989DC01ED91FC9104846B
:1002A000F585E02DDF91CF910994AF92BF92CF9267
:1002B000DF92EF92FF920F931F93CF93DF9300D0C3
:1002C00000D0CDB7DEB78C015B01C12CD12C7601FB
:1002D000F80180899189DC01ED91FC910284F3851C
:1002E000E02D29833A834B835C83099529813A81E8
:1002F0004B815C818F3F71F0C216D306E406F50690
:100300004CF4D5018D935D01BFEFCB1ADB0AEB0AEC
:10031000FB0ADECFC701B6010F900F900F900F9030
:10032000DF91CF911F910F91FF90EF90DF90CF90D1
:10033000BF90AF900895DC0150968D919C9151979C
:10034000DC01ED91FC910084F185E02D099480E0C1
:1003500090E0089580E090E0089580E090E00895B6
:1003600080E090E008950895CF93DF93C091D70384
:10037000D091D803E881F9810084F185E02DCE0188
:100380000995892BB9F3E881F9810284F385E02D81
:10039000CE01DF91CF9109941F93CF93DF93182F54
:1003A000C091D703D091D8038A3041F4E881F98114
:1003B0000190F081E02D6DE0CE010995E881F98191
:1003C0000190F081E02D612FCE01099521E030E010
:1003D000019711F420E030E0C901DF91CF911F9126
:1003E0000895089580E090E008950C94EB14CF9365
:1003F000DF93EC010E948E00CE01DF91CF910C942F
:10040000EB140C94EB140C94EB140C94EB140C9470
:10041000EB140C94EB140C94EB14089508950C94C5
:10042000EB14DC01ED91FC91369720813181820F34
:10043000931F0C940F02FB0120813181FC01318359
:100440002083FB0142815381F9013697208131815C
:10045000FC01E20FF31F51834083089521EB31E04B
:10046000FC01318320832BEB31E0318F208F61EC55
:1004700071E00C941B02DC01ED91FC913697208118
:100480003181820F931F0C942E02CF93DF93EC01E6
:100490000E942E02CE01DF91CF910C94EB14DC016F
:1004A000ED91FC91369720813181820F931F0C943E
:1004B00045020C94EB14089508950C94EB14DC01A0
:1004C000ED91FC91369720813181820F931F0C941E
:1004D0005D02FB0120813181FC0131832083FB011E
:1004E00042815381F901369720813181FC01E20F6D
:1004F000F31F51834083089529E232E0FC013183E8
:10050000208323E332E0358B248B69E372E00C9483
:100510006902DC01ED91FC91369720813181820FD7
:10052000931F0C947C02CF93DF93EC010E947C021A
:10053000CE01DF91CF910C94EB14DC01ED91FC9195
:10054000369720813181820F931F0C9493020C9473
:10055000EB140C94EB140F931F93CF93DF938C0148
:10056000EB016F3F8FEF780719F480E090E00FC048
:100570006A3031F46DE0F801808991890E940B05A1
:100580006C2FF801808991890E940B05CE01DF91C3
:10059000CF911F910F9108958F929F92BF92CF920A
:1005A000DF92EF92FF920F931F93CF93DF9300D0D0
:1005B00000D0CDB7DEB78C014B01C12CD12C760118
:1005C000C216D306E406F50644F5F401B1904F01D6
:1005D000FAE0BF120EC06DE0F8018089918929838D
:1005E0003A834B835C830E940B055C814B813A818B
:1005F00029816B2DF8018089918929833A834B8366
:100600005C830E940B05FFEFCF1ADF0AEF0AFF0A97
:100610005C814B813A812981D3CFCA01B9010F9006
:100620000F900F900F90DF91CF911F910F91FF903E
:10063000EF90DF90CF90BF909F908F900895CF93D1
:10064000DF93EC0160E08E810E94BF0B61E08E8140
:100650000E94BF0B60E08E810E94BF0B8BE891E08F
:100660000197F1F7DF91CF9108956115710509F4B4
:100670004DC0DB011296ED91FC91139722811496E7
:100680008C91853049F48785882319F08FE792E0B3
:100690003BC08AE892E038C0858596852F30A1F06E
:1006A00018F42E3031F008952031C9F0213111F1C4
:1006B00008958230910519F486E992E025C00397E8
:1006C00029F58DE992E020C08230910519F486EA7F
:1006D00092E01AC00397D1F48EEA92E015C08230FE
:1006E000910519F483EB92E00FC0039779F48DEB39
:1006F00092E00AC08230910519F48BEC92E004C0BC
:10070000039721F486ED92E00C94380A0895EF9255
:10071000FF920F931F93CF93DF93DC0116962C91DA
:1007200016974217B0F57B018C01C42FD0E0CE01A3
:10073000880F991F1796ED91FC911897E80FF91FF4
:100740007183608315968C9115978F5F15968C93A6
:1007500065EE72E089E094E00E94B106C7010E9454
:10076000660B66EF72E089E094E00E94B106C80172
:100770000E94660B66E073E089E094E00E94B10697
:10078000CE01DF91CF911F910F91FF90EF900C94CC
:10079000310BDF91CF911F910F91FF90EF90089552
:1007A00008950F931F93CF93DF93EC018B0183E1A7
:1007B00091E09983888386E090E00E945614FC01C2
:1007C0008BE091E0918380831382128215821482E0
:1007D000FD83EC831B830A83DF91CF911F910F91DF
:1007E0000895089508950895089508950895089521
:1007F000CF92DF92EF92FF920F931F93CF93DF93ED
:100800007C016C0187E0C80ED11CC0E0D0E0062F4F
:1008100010E0B8010C2E02C0759567950A94E2F7B6
:100820006170F60181916F010E94BF0B2196C43067
:10083000D10579F7C701DF91CF911F910F91FF90FB
:10084000EF90DF90CF900C941F03CF92DF92EF9246
:10085000FF920F931F93CF93DF93EC01F62E642F3B
:100860008C810E94BF0B8D818F3F19F060E00E9448
:10087000BF0B8F850F2D10E084FF25C06E0187E030
:10088000C80ED11CE12CF12CB8010E2C02C07595BC
:1008900067950A94E2F76170F60181916F010E94F9
:1008A000BF0BFFEFEF1AFF0A88E0E816F10461F7CB
:1008B000CE01DF91CF911F910F91FF90EF90DF90CC
:1008C000CF900C941F03B80184E0759567958A95C5
:1008D000E1F7CE010E94F8036F2DCE01DF91CF9199
:1008E0001F910F91FF90EF90DF90CF900C94F80341
:1008F00041E00E94250481E090E0089540E00C94DE
:10090000250408950E94F21690910001981324C0C6
:10091000E8E6F0E0E4919FEF90930001E130B9F058
:1009200098F0E230C9F4909170009D7F9093700030
:1009300091E09093B0009091B100987F9460909373
:10094000B1001092B30008C010926E0005C09091E3
:100950006F009D7F90936F0060E00C94BF0B1F921F
:100960000F920FB60F9211242F933F934F935F93E3
:100970006F937F938F939F93AF93BF93EF93FF9367
:100980008091BD039091BE03A091BF03B091C003BD
:10099000892B8A2B8B2B51F18091BC03E091BA03F8
:1009A000F091BB039081892780838091BD03909152
:1009B000BE03A091BF03B091C003181619061A0612
:1009C0001B06C4F48091BD039091BE03A091BF03A8
:1009D000B091C0030197A109B1098093BD03909321
:1009E000BE03A093BF03B093C00304C08091000175
:1009F0000E948404FF91EF91BF91AF919F918F91DD
:100A00007F916F915F914F913F912F910F900FBE0A
:100A10000F901F901895DC01ED91FC910190F081F1
:100A2000E02D0994CF92DF92EF92FF920F931F93E4
:100A3000CF93DF936C017A018B01C0E0D0E0CE153B
:100A4000DF0589F0D8016D918D01D601ED91FC9102
:100A50000190F081E02DC6010995892B11F47E01EA
:100A600002C02196ECCFC701DF91CF911F910F916A
:100A7000FF90EF90DF90CF900895FC01538D448D4F
:100A8000252F30E0842F90E0821B930B541710F039
:100A9000CF96089501970895FC01918D828D981746
:100AA00061F0828DDF01A80FB11D5D968C91928D52
:100AB0009F5F9F73928F90E008958FEF9FEF08954F
:100AC000FC01918D828D981731F0828DE80FF11D18
:100AD000858D90E008958FEF9FEF0895FC01918D33
:100AE000228D892F90E0805C9F4F821B91098F732C
:100AF0009927089589E094E00E946E0521E0892BF2
:100B000009F420E0822F0895FC01848DDF01A80FF5
:100B1000B11DA35ABF4F2C91848D90E001968F7325
:100B20009927848FA689B7892C93A089B1898C9144
:100B300080648C93938D848D981306C00288F3890A
:100B4000E02D80818F7D80830895EF92FF920F9337
:100B50001F93CF93DF93EC0181E0888F9B8D8C8D69
:100B6000981305C0E889F989808185FD24C0F62E97
:100B70000B8D10E00F5F1F4F0F731127E02E8C8D30
:100B8000E8120CC00FB607FCFACFE889F98980811A
:100B900085FFF5CFCE010E948405F1CF8B8DFE013C
:100BA000E80FF11DE35AFF4FF0820B8FEA89FB89B2
:100BB0008081806207C0EE89FF896083E889F989B6
:100BC00080818064808381E090E0DF91CF911F91EC
:100BD0000F91FF90EF900895CF93DF93EC01888DF4
:100BE0008823C9F0EA89FB89808185FD05C0A88931
:100BF000B9898C9186FD0FC00FB607FCF5CF8081B7
:100C000085FFF2CFA889B9898C9185FFEDCFCE0100
:100C10000E948405E7CFDF91CF91089580E090E0B6
:100C2000892B29F00E947A0581110C940000089507
:100C3000FC01A585B685109761F0ED91FC911197A7
:100C4000AC014E5F5F4F0480F581E02DBC01CD010A
:100C500009940895FF920F931F93CF93DF93EC01B4
:100C60000C891D890115110521F1FD8087E090E0B7
:100C70000E945614DC0189E591E011969C938E93B5
:100C800016961C921E9215971396DC93CE9312978C
:100C90001496FC921497E801E881F9810480F581AB
:100CA000E02DBD01C801DF91CF911F910F91FF9001
:100CB0000994DF91CF911F910F91FF900895CF93E9
:100CC000DF93EC010E9418064F85888999892A8153
:100CD0003B8141110AC04A895B89840F951F2817FF
:100CE000390760F081E08F8704C08217930730F0E6
:100CF0001F86CE01DF91CF910C942A06DF91CF9110
:100D000008950C94EB140C94EB1421E531E0FC01F4
:100D100031832083878190850C94EB14CF93DF93EC
:100D2000EC010E948506CE01DF91CF910C94EB146B
:100D30000C94EB140C94EB146115710579F0FB0124
:100D400001900020E9F73197AF01461B570BDC01FA
:100D5000ED91FC910280F381E02D099480E090E018
:100D600008950C949C061F920F920FB60F921124B7
:100D70002F933F934F935F936F937F938F939F93A3
:100D8000AF93BF93EF93FF9389E094E00E948405B3
:100D9000FF91EF91BF91AF919F918F917F916F9153
:100DA0005F914F913F912F910F900FBE0F901F9029
:100DB00018951F920F920FB60F9211242F938F93B5
:100DC0009F93EF93FF93E0911904F0911A048081AF
:100DD000E0911F04F091200482FD12C09081809167
:100DE00022048F5F8F7320912304821751F0E091CA
:100DF0002204F0E0E75FFB4F958F8093220401C04F
:100E00008081FF91EF919F918F912F910F900FBE55
:100E10000F901F90189508950895AF92BF92CF92AA
:100E2000DF92EF92FF920F931F93CF93DF93FC011A
:100E30002481222319F0FB01908B8787FC01C2815A
:100E4000D381EC80FD8087010F5F1F4FE016F10614
:100E500008F046C06B018A819B818017910760F57D
:100E60009701275F3F4F8217930730F5A880B9801D
:100E70003B832A83C901880F991F0E9456149983C6
:100E80008883D50140E050E04E155F0591F0E88180
:100E9000F9819A01220F331FE20FF31F309729F0D7
:100EA0008D919C911197918380834F5F5F4F129634
:100EB000EBCFC5010E94EB148C819D819C01220F18
:100EC000331F8017910778F4E881F981E20FF31F4F
:100ED000309711F0D182C08201962E5F3F4FF1CF43
:100EE0000E151F0510F41D830C83DF91CF911F9108
:100EF0000F91FF90EF90DF90CF90BF90AF9008954B
:100F0000FF920F931F93CF93DF93EC010F85188906
:100F10000115110521F1FA8087E090E00E94561436
:100F2000DC0189E591E011969C938E9316961C92B4
:100F30001E9215971396DC93CE9312971496FC92FB
:100F40001497E801E881F9810480F581E02DBD0165
:100F5000C801DF91CF911F910F91FF900994DF910C
:100F6000CF911F910F91FF9008951F93CF93DF931F
:100F7000EC01162F81E591E0998388838FEF8A83B6
:100F80001B821C821D821E8218861F821A86198669
:100F90001C861B8661E070E080E090E00E942816CD
:100FA000009759F098878F831A8619862B853C8580
:100FB000232BE9F4FC0110821AC08F8198850097D9
:100FC00011F00E94EB1418861F821C861B861A865D
:100FD000198681E090E09E878D87188A1F861A8384
:100FE00060E0812FDF91CF911F910C94EF0B1C8655
:100FF0001B8668EB73E00E940017EBCF21E431E021
:10100000DC0111963C932E9316968D919C91179727
:10101000009739F0DC01ED91FC910280F381E02D25
:1010200009940895CF93DF93EC010E94FE07CE014F
:10103000DF91CF910C94EB148F929F92AF92BF925D
:10104000CF92DF92EF92FF92CF936115710509F471
:1010500003C2FB01C280D380FC018281C114D10490
:1010600009F49FC190910001981721F09F3F09F06A
:10107000F3C104C0E8E6F0E0C4917DC080930001B4
:10108000E8E6F0E0C491CF3F09F4E6C1C13029F1B0
:10109000C23009F449C0C1116EC014BC15BC94B56E
:1010A000926094BD95B5916095BD282F30E0F9010F
:1010B000E957FF4FE491F0E0EE0FFF1FE358FF4FB9
:1010C000459154915093CE034093CD03F901E556D9
:1010D000FF4FE491E093CC0350C010928000109237
:1010E000810090918100986090938100909181009F
:1010F000916090938100282F30E0F901E957FF4F6C
:10110000E491F0E0EE0FFF1FE358FF4F459154913B
:101110005093CB034093CA03F901E556FF4FE49186
:10112000E093C903C1E029C01092B0001092B10051
:101130009091B00092609093B0009091B100916056
:101140009093B100282F30E0F901E957FF4FE49167
:10115000F0E0EE0FFF1FE358FF4F4591549150937D
:10116000BB034093BA03F901E556FF4FE491E093C6
:10117000BC03C2E002C0C7FD6FC161E00E94EF0B7B
:10118000E12CF12C8C2F8D7F09F0A0C060E072E182
:101190008AE790E0A70196010E94031649015A01CF
:1011A000DA01C9010197A109B1098F3F9105A10594
:1011B000B10509F00CF442C060E472E48FE090E005
:1011C000A70196010E940316DA01C9010197A1093E
:1011D000B109C230E1F48F3F9105A105B10509F0D5
:1011E0000CF438C160E970ED83E090E0A70196014E
:1011F0000E940316DA01C9010197A109B1098F3FC5
:101200009105A105B10509F08CF523E058C08F3F89
:101210009105A105B105A1F09CF068E478EE81E0AC
:1012200090E0A70196010E940316DA01C901019717
:10123000A109B109CC2309F4EFC0E6C021E001C047
:1012400022E0CC2371F03BC0D501C4012AE0B59562
:10125000A795979587952A95D1F70197A109B10987
:1012600025E035B5387F232B25BD61C068E478EED5
:1012700081E090E0A70196010E940316DA01C901FE
:101280000197A109B1098F3F9105A105B10509F0A9
:101290000CF492C064E274EF80E090E0A701960144
:1012A0000E940316DA01C9010197A109B1098F3F14
:1012B0009105A105B10511F008F080C025E030913D
:1012C000B100387F232B2093B1002BC060E072E186
:1012D0008AE790E0A70196010E940316DA01C9018E
:1012E0000197A109B1090097F1E0AF07B10514F426
:1012F00031E00EC068E478EE81E090E0A70196014D
:101300000E940316DA01C9010197A109B10933E06E
:10131000C13039F420918100287F232B2093810054
:1013200018C0C130B1F0C23049F1C11195C087BDBC
:101330008FEF9FEFDC018093D3039093D403A093AE
:10134000D503B093D60380916E00826080936E00C7
:1013500083C090938900809388008FEF9FEFDC011A
:101360008093CF039093D003A093D103B093D20383
:1013700080916F00826080936F006EC08093B30095
:101380008FEF9FEFDC018093BD039093BE03A0938A
:10139000BF03B093C003809170008260809370009F
:1013A0005BC0CF91FF90EF90DF90CF90BF90AF9058
:1013B0009F908F900C94840424E081CF62E17AE7BF
:1013C00080E090E0A70196010E940316DA01C901AE
:1013D0000197A109B1098F3F9105A105B10591F0D0
:1013E00088F0D501C4013AE0B595A7959795879502
:1013F0003A95D1F70197A109B109CC2309F430CF6F
:1014000027E05DCF26E01DCF8F3F9105A105B105F7
:1014100009F0A4F624E015CF8F3F9105A105B10591
:10142000B9F0B4F062E17AE780E090E0A7019601BC
:101430000E940316DA01C9010197A109B1098F3F82
:101440009105A105B10511F008F0FECE24E009CF09
:1014500023E007CF22E033CFCF91FF90EF90DF90D2
:10146000CF90BF90AF909F908F900895089508956A
:10147000CF93DF93BC0189E094E00E949C06EC01CD
:1014800066EB73E089E094E00E949C068C0F9D1F40
:10149000DF91CF910895EF92FF920F931F93CF9317
:1014A000DF93EC01623018F08F8588608F876B8B3B
:1014B0001C8A80E48D8B80E18E8B80E58F8B61E0D0
:1014C0008C810E94EF0B8D818F3F19F061E00E94AB
:1014D000EF0B61E08E810E94EF0B7E0187E0E80E4A
:1014E000F11C00E010E08F8584FD03C084E090E0F3
:1014F00002C088E090E0081719074CF461E0F7019A
:1015000081917F010E94EF0B0F5F1F4FECCF8BE3A8
:101510009DE00197F1F760E08C810E94BF0B60E0D5
:101520008E810E94BF0B8D818F3F19F060E00E9479
:10153000BF0B6F8564FD1DC063E0CE010E94F80300
:101540000BE416E4C8010197F1F763E0CE010E94B5
:10155000F803C8010197F1F763E0CE010E94F80398
:1015600083E592E00197F1F762E0CE010E94F80373
:1015700016C06062CE010E947E048BE496E401975F
:10158000F1F76F856062CE010E947E0483E592E0F0
:101590000197F1F76F856062CE010E947E046F852E
:1015A0006062CE010E947E0484E0888B6CE0CE01F4
:1015B0000E947E0461E0CE010E947E048BE39FE1E5
:1015C0000197F1F782E0898B66E0CE01DF91CF9140
:1015D0001F910F91FF90EF900C947E048F929F9239
:1015E000AF92BF920F931F93CF93DF93CDB7DEB728
:1015F000A1970FB6F894DEBF0FBECDBF19A242303F
:1016000008F44AE08E010F5D1F4F842E912CA12C0F
:10161000B12CA50194010E94E115E62FB901CA0180
:1016200001501109EA3014F4E05D01C0E95CD80111
:10163000EC93232B242B252B61F7B80189E094E050
:101640000E949C06A1960FB6F894DEBF0FBECDBFD8
:10165000DF91CF911F910F91BF90AF909F908F908E
:101660000895CF92DF92EF92FF92CF93DF936C01B8
:10167000990FEE08FF08F7FE14C06DE289E094E0D0
:101680000E940B05EC0166277727CB016C197D09B9
:101690008E099F094AE00E94EE0A7C01EC0EFD1EB5
:1016A00006C04AE0C701B6010E94EE0A7C0166EB63
:1016B00073E089E094E00E949C068E0D9F1DDF91EF
:1016C000CF91FF90EF90DF90CF900895CF92DF926F
:1016D000EF92FF92CF93DF936C01990FEE08FF0812
:1016E000F7FE19C06DE289E094E00E940B05EC0161
:1016F00066277727CB016C197D098E099F094AE07F
:101700000E94EE0A8C0F9D1FDF91CF91FF90EF900A
:10171000DF90CF9008954AE0C701B601DF91CF91E5
:10172000FF90EF90DF90CF900C94EE0A833081F021
:1017300028F4813099F08230A1F008958730A9F023
:101740008830B9F08430D1F4809180008F7D03C05F
:10175000809180008F7780938000089584B58F7783
:1017600002C084B58F7D84BD08958091B0008F77CD
:1017700003C08091B0008F7D8093B00008951F93C7
:10178000CF93DF93282F30E0F901E155FF4F84918B
:10179000F901E556FF4FD491F901E957FF4FC49184
:1017A000CC23C9F0162F81110E94960BEC2FF0E08C
:1017B000EE0FFF1FE358FF4FA591B4918FB7F89438
:1017C000111105C09C91ED2FE095E92302C0EC9129
:1017D000ED2BEC938FBFDF91CF911F910895CF93A5
:1017E000DF9390E0FC01E556FF4F2491FC01E9579F
:1017F000FF4F8491882361F190E0880F991FFC01CD
:10180000ED58FF4FC591D491FC01E358FF4FA591CE
:10181000B491611109C09FB7F89488812095822303
:101820008883EC912E230BC0623061F49FB7F8944B
:101830003881822F809583238883EC912E2B2C93E3
:101840009FBF06C08FB7F894E8812E2B28838FBFE7
:10185000DF91CF9108952FB7F8946091F9047091BA
:10186000FA048091FB049091FC042FBF08951F920D
:101870000F920FB60F9211242F933F938F939F9344
:10188000AF93BF938091F9049091FA04A091FB0467
:10189000B091FC043091F80423E0230F2D3720F49D
:1018A0000196A11DB11D05C026E8230F0296A11DBA
:1018B000B11D2093F8048093F9049093FA04A09347
:1018C000FB04B093FC048091F4049091F504A09182
:1018D000F604B091F7040196A11DB11D8093F404A4
:1018E0009093F504A093F604B093F704BF91AF91E1
:1018F0009F918F913F912F910F900FBE0F901F904E
:1019000018958BED93E00E942E0286EA94E00C94E9
:101910007C02CF93DF93CDB7DEB72A970FB6F8944A
:10192000DEBF0FBECDBF789484B5826084BD84B520
:10193000816084BD85B5826085BD85B5816085BDCA
:1019400080916E00816080936E0010928100809182
:10195000810082608093810080918100816080930A
:101960008100809180008160809380008091B1002F
:1019700084608093B1008091B00081608093B0005A
:1019800080917A00846080937A0080917A008260EE
:1019900080937A0080917A00816080937A008091B0
:1019A0007A00806880937A001092C100E091190457
:1019B000F0911A0482E08083E0911504F0911604FE
:1019C0001082E0911704F09118048FEC808310923C
:1019D0002104E0911D04F0911E0486E08083E091D3
:1019E0001B04F0911C04808180618083E0911B04C2
:1019F000F0911C04808188608083E0911B04F09149
:101A00001C04808180688083E0911B04F0911C0499
:101A100080818F7D80838CE093E00E94380A85E08E
:101A200090E00E9456147C0187E090E00E945614DA
:101A30008C0188E090E0D80113969C938E931297C6
:101A400015961C921E92149780E190E00E94561405
:101A5000F80191838083D70113961C930E931297FC
:101A600014961C9214978FE291E08D939C93F092C0
:101A7000C203E092C1036091DA047091DB04C701F4
:101A80000E940D076091D8047091D904C7010E948B
:101A90000D076091D6047091D704C7010E940D070D
:101AA0006091D4047091D504C7010E940D07E091A4
:101AB000D204F091D304F58AE48AD7011296ED910D
:101AC000FC91139784819581880F991F0190F08173
:101AD000E02D8E0F9F1FE817F90739F0A191B19102
:101AE0005096FC92EE921F97F6CF81E0F701848327
:101AF00089E193E00E94380AE090D004F090D1048C
:101B000080E1D70119968C93199782E01A968C93ED
:101B10001A9712968D919C911397009719F062E095
:101B20000E944B0A65E273E089E094E00E94B106EE
:101B3000F701838594850E94310BD70158966D91EA
:101B40007C91599740E01B968D919C911C970E9427
:101B50008703F701628D738D41E0838594850E9430
:101B60008703D7015C966D917C915D9742E01B964F
:101B70008D919C911C970E948703F701668D778D4C
:101B800043E0838594850E948703D70190966D91E9
:101B90007C91919744E01B968D919C911C970E949B
:101BA0008703F70162A173A145E0838594850E94B4
:101BB0008703D70194966D917C91959746E01B968B
:101BC0008D919C911C970E948703F70166A177A1D4
:101BD00047E0838594850E948703D7011B960D916A
:101BE0001C911C9715968C91159714969C9114979F
:101BF000891708F045C016962C91169717969C9158
:101C00001797E22FF92FE80FF11DE80FF11D11834F
:101C1000008315968C9115978F5F15968C93159769
:101C20000115110571F0F801F286E18615968C9187
:101C30001597815014969C911497891710F4189653
:101C40008C9360E373E089E094E00E94B106C801E0
:101C50000E94660B6FE373E089E094E00E94B10696
:101C6000C7010E94660B66E073E089E094E00E9481
:101C7000B106D70115968C9190E001970E94310B27
:101C8000F701848181111086D7011B96ED91FC919B
:101C90001C9781E08483A091D004B091D104189660
:101CA0008C91189716962C91169717969C911797CA
:101CB000E22FF92FE80FF11DE80FF11D208131818E
:101CC0003E832D83232B09F076C088E090E00E94AC
:101CD00056148C0161E4E62E61E0F62EDC011196CB
:101CE000FC92EE9287E194E013969C938E93129768
:101CF00078EEC72E73E0D72E1596DC92CE9214970D
:101D000088E090E00E945614FC01F182E082178284
:101D1000168287E295E093838283D582C482D801BC
:101D20001796FC93EE93169782E190E00E9456146A
:101D30007C0189E491E0F7019183808386E08283CE
:101D400013821782168210861186128613861586D4
:101D5000148617870687118B008B83E090E09583AC
:101D60008483F092C803E092C7030E942B0CF70112
:101D7000608771878287938782E083836089718916
:101D8000C7010E941C0880E593E00E94380A0E9467
:101D90002B0C6093C3037093C4038093C50390938B
:101DA000C603E3E0CE2ED12CAA24A394B12CA2E04A
:101DB0008A2E912C68C112960D911C911397AD81BA
:101DC000BE8112968C91129714966C901497869DF2
:101DD000602C112413969C91462C899F400C112451
:101DE000712C6301CC0CDD1C512C59E3852E51E084
:101DF000952E641475040CF068CFAD81BE811796E2
:101E0000ED91FC911897EC0DFD1DA080B180A114FF
:101E1000B10409F470C01296FC9086E090E00E9434
:101E20005614FC016F2D70E0C3010E94CD15262FC2
:101E3000382FE62EF72E9182808282839383F5825B
:101E4000E482382EAD81BE811996ED91FC911A97EE
:101E5000309741F0818512966C910E94C115839F45
:101E6000302C1124ED81FE818481922F981B9430B7
:101E700008F093E0D80153968C91981710F09FEFDB
:101E8000980FF801E90FF11D6489630D6068C801BE
:101E90000E947E0469E573E089E094E00E94B10647
:101EA000632D70E080E090E04AE00E94EE0A67E671
:101EB00073E089E094E00E94B106ED81FE818481A7
:101EC0009701281B3109C9010E94660B89E693E03E
:101ED0000E94380A6BE673E089E094E00E94B10644
:101EE000C5010E94310BD50112966D917C9113971B
:101EF000C8010E94B106BFEF6B1A7B0AE2E0CE0E6A
:101F0000D11C77CF0E942B0C0091C3031091C40306
:101F10002091C5033091C603DC01CB01801B910BDE
:101F2000A20BB30B8C3D9540A105B10508F05DC136
:101F3000D70113968C91882309F4B0C0E090C103B7
:101F4000F090C203D7011296ED91FC911397008196
:101F50001181D7011296ED91FC911397848195819F
:101F6000880F991F20813181820F931F081719074D
:101F700009F0ABC00091D2041091D304F80184851C
:101F800022859385E22FF92FE80FF11DE80FF11D4F
:101F900020813181D80116964D915D916D917C9192
:101FA0001997421B530B6109710916964D935D9366
:101FB0006D937C93199715968C918E3008F08E5006
:101FC0008770806480937C0080917A008064809325
:101FD0007A0080917A0086FDFCCF80917800209174
:101FE000790090E0922B91838083F80144852285CB
:101FF0009385E22FF92FE40FF11DE40FF11D2081ED
:102000003181D80116964D905D906D907C90199716
:10201000C301B201620F731F811D911DF801668318
:1020200077838087918731E0340F3487248132179A
:1020300008F0148630E040E050E00E94E115D8013D
:1020400012968D919C9113978217930769F0ED91E9
:10205000FC910480F581E02DC80129833A834B83EC
:102060005C8309953A812981F801338322830091A9
:10207000C7031091C803D80113968C91823009F4DC
:102080004BC00E940E06E090C703F090C803D70132
:1020900013968C91823009F04BCF34CF0E942B0CD9
:1020A0000091C3031091C4032091C5033091C6036E
:1020B000DC01CB01801B910BA20BB30B883B9B4037
:1020C000A105B10508F09CC039CFF80121903190ED
:1020D0008F01D10112962C9130E0F901E155FF4FAB
:1020E0008491F901E556FF4F7490F901E957FF4FCC
:1020F0006490662009F4AAC081110E94960BE62D17
:10210000F0E0EE0FFF1FE759FF4FA591B491EC915E
:102110007E2209F49BC07FC00E942B0CF80124850D
:1021200035852901612C712C2085318542855385A7
:10213000421A530A640A750ADC01CB01840D951D0D
:10214000A61DB71D20893189F9014481558160E0C0
:1021500070E084179507A607B70708F492CFD80157
:102160001D961C921E921C970E942B0CF8016087F2
:102170007187828793870088F189E02D6681778156
:102180006115710531F0D80151967C936E9350978B
:1021900017C0F801868197810196978386836685AB
:1021A00077858F3FFFEF9F0741F0D80114962D915F
:1021B0003C911597821793073CF4F801718B608B63
:1021C000C8010E941C085DCFD80113961C9213977A
:1021D00051967C936E9350971D961C921E921C975D
:1021E00012968C910E9484044CCF0E942B0C609319
:1021F000C3037093C4038093C5039093C60398CE22
:102200000E942B0C6093C3037093C4038093C50397
:102210009093C60393CEF10185859685019709F4C5
:1022200098CE0E942B0CD10113964D905D906D902D
:102230007C901697DC01CB0184199509A609B70992
:10224000C397A105B10508F050C083CED1011D96FA
:102250008D919C911E97009719F50E942B0CF1010E
:102260004380548065807680DC01CB018419950918
:10227000A609B709843F9140A105B10508F469CECC
:10228000D1011D968D919C911E97039709F461CE03
:102290001E96DC92CE921D97C1010E94800759CEF6
:1022A000019709F056CE0E942B0CF1014380548017
:1022B00065807680DC01CB0184199509A609B709F0
:1022C000C397A105B10508F444CEF1011686158621
:1022D000C1010E9480070E942B0CD10113966D93BF
:1022E0007D938D939C93169734CEF10185859685C9
:1022F000892B31F4F10196868586C1010E94800701
:10230000D1011E96BC92AE921D97C1010E9480071A
:102310000E942B0CF101638374838583968319CE0D
:10232000CF92DF92EF92FF920F931F93CF93DF93A1
:1023300089E094E010920C0410920B0448EE53E0F4
:1023400060E070E040930D0450930E0460930F041E
:102350007093100429E831E030930A0420930904B3
:1023600025EC30E0309316042093150424EC30E083
:10237000309318042093170420EC30E030931A04B3
:102380002093190421EC30E030931C0420931B04AB
:1023900022EC30E030931E0420931D0426EC30E044
:1023A0003093200420931F041092220410922304DF
:1023B000109224041092250461E270E07093BE0430
:1023C0006093BD041092BF041092C0041092C10427
:1023D00026E0C22ED12CE12CF12CC092C204D09266
:1023E000C304E092C404F092C5041092C604109293
:1023F000C7041092C8041092C90440E24093CA0472
:102400001092CC041092CB041092CF0428EA34E04E
:102410003093CE042093CD0429E232E03093A70418
:102420002093A60423E332E03093BB042093BA0444
:102430001092AC041092AB041092AE041092AD0452
:102440001092B0041092AF041092B2041092B10432
:102450001092B4041092B3041092B6041092B50412
:1024600027E032E03093A9042093A8049093B904A4
:102470008093B80450E15093B7047093F7036093CE
:10248000F6031092F8031092F9031092FA03C09227
:10249000FB03D092FC03E092FD03F092FE03109246
:1024A000FF03109200041092010410920204409362
:1024B0000304109205041092040410920804109270
:1024C000DD031092DE031092DF031092E00341EE71
:1024D00053E0509307044093060441EB51E05093BE
:1024E000DC034093DB034BEB51E05093F403409348
:1024F000F3031092E5031092E4031092E7031092A5
:10250000E6031092E9031092E8031092EB03109295
:10251000EA031092ED031092EC031092EF03109275
:10252000EE033093E2032093E1039093F203809350
:10253000F10328E02093F0031092DA031092D903FC
:102540009093D8038093D70364EB71E08CEC91E017
:102550000E94EF139093DA038093D90381E190E016
:102560000E945614EC016EE00E94B507D093DB0484
:10257000C093DA0481E190E00E945614EC016FE010
:102580000E94B507D093D904C093D80481E190E0AC
:102590000E945614EC0160E10E94B507D093D70465
:1025A000C093D60481E190E00E945614EC0161E1F1
:1025B0000E94B507D093D504C093D40486E190E07F
:1025C0000E945614EC018FE692E0998388831B8267
:1025D0001A8285E08D831E821F82188619861C86CA
:1025E0001E861D868CE090E00E9456148A879B8789
:1025F00026E02C83FC010C96E817F90719F01192DC
:102600001192FACF89E792E0998388831F861D8A09
:102610001C8A8EE190E0998B888B82E390E09B8B03
:102620008A8BD093D304C093D2041092DF0410920B
:10263000DE048BE592E09093DD048093DC048CE073
:102640008093E0041FEF1093E1048BE08093E20499
:1026500085E08093E30484E08093E40483E0809346
:10266000E50482E0E82EE092E6041092E70410927E
:10267000E8041092E9041092EA041092EB0461E07D
:102680008CED94E00E944B0A88E290E00E94561480
:10269000EC018CED94E09B838A831D821887198658
:1026A0001A86FF24F394FC8282E090E00E94561484
:1026B0009F838E8383E592E0998388838BE090E00B
:1026C0000E9456148C019BE4C92E92E0D92EF80189
:1026D000D182C082148215821286118688E0868398
:1026E00080E190E00E945614F80190878783E2828F
:1026F000E3821C870B87DE86CD86FF86F88A198ADF
:102700001A8A1F8A1E8AFB8A82E090E00E94561471
:102710009D8B8C8B86E090E00E9456148C016EE7B6
:1027200073E00E94D103198F088F86E090E00E9429
:1027300056148C0165E873E00E94D1031B8F0A8F49
:1027400086E090E00E9456148C016CE873E00E94D1
:10275000D1031D8F0C8F86E090E00E9456148C01EF
:1027600063E973E00E94D1031F8F0E8F86E090E033
:102770000E9456148C016AE973E00E94D10319A3E8
:1027800008A386E090E00E9456148C0161EA73E091
:102790000E94D1031BA30AA386E090E00E94561476
:1027A0008C0168EA73E00E94D1031DA30CA386E0AC
:1027B00090E00E9456148C016FEA73E00E94D103EE
:1027C0001FA30EA3D093D104C093D004DF91CF9167
:1027D0001F910F91FF90EF90DF90CF9008950F938E
:1027E0001F93CF93DF93009731F46115710519F4AE
:1027F00080E090E03AC08B01EC016EE070E081E097
:1028000090E00E943A14FC01892B91F380E88383C5
:102810000115110571F01387028781E88383809188
:10282000FD049091FE04892B21F4F093FE04E093C3
:10283000FD042097C9F0D187C0878381826083839C
:102840008091FF0490910005892B71F4F0930005AD
:10285000E093FF048091010590910205892B21F4FA
:10286000F0930205E0930105CF01DF91CF911F9115
:102870000F9108950F931F93CF93DF93869F80014D
:10288000879F100D969F100D1124C8010E945614A9
:10289000EC01009729F0A80160E070E00E94831528
:1028A000CE01DF91CF911F910F910895CF93DF93C8
:1028B0008230910510F482E090E0E0910505F091FE
:1028C000060520E030E0C0E0D0E0309711F1408113
:1028D000518148175907C0F04817590761F48281A0
:1028E0009381209719F09B838A832BC090930605D0
:1028F0008093050526C02115310519F042175307AD
:1029000018F49A01BE01DF01EF010280F381E02D8E
:10291000DCCF2115310509F1281B390B2430310595
:1029200090F412968D919C9113976115710521F089
:10293000FB019383828304C0909306058093050571
:10294000FD01329644C0FD01E20FF31F8193919384
:10295000225031092D933C933AC0209103053091C8
:102960000405232B41F4209103013091040130939D
:1029700004052093030520910101309102012115E6
:10298000310541F42DB73EB7409105015091060144
:10299000241B350BE0910305F0910405E217F307C2
:1029A000A0F42E1B3F0B2817390778F0AC014E5FBF
:1029B0005F4F2417350748F04E0F5F1F50930405F3
:1029C000409303058193919302C0E0E0F0E0CF01D2
:1029D000DF91CF9108950F931F93CF93DF930097CB
:1029E00009F48CC0FC013297138212820091050514
:1029F000109106050115110581F420813181820FA6
:102A0000931F20910305309104052817390779F5A4
:102A1000F0930405E093030571C0D80140E050E055
:102A2000AE17BF0750F412962D913C911397AD014C
:102A30002115310509F1D901F3CF9D01DA01338365
:102A4000228360817181860F971F8217930769F433
:102A5000EC0128813981260F371F2E5F3F4F3183CC
:102A600020838A819B8193838283452B29F4F09371
:102A70000605E093050542C01396FC93EE9312976A
:102A8000ED01499159919E01240F351FE217F3077B
:102A900071F480819181840F951F029611969C9309
:102AA0008E938281938113969C938E931297E0E08C
:102AB000F0E0D80112968D919C911397009719F030
:102AC000F8018C01F6CF8D919C9198012E5F3F4FBC
:102AD000820F931F209103053091040528173907B1
:102AE00069F4309729F4109206051092050502C08A
:102AF000138212821093040500930305DF91CF9196
:102B00001F910F910895DC0101C06D934150504019
:102B1000E0F708952F923F924F925F926F927F92CB
:102B20008F929F92AF92BF92CF92DF92EF92FF92DD
:102B30000F931F93CF93DF93CDB7DEB7CA1BDB0B89
:102B40000FB6F894DEBF0FBECDBF09942A8839882E
:102B500048885F846E847D848C849B84AA84B98435
:102B6000C884DF80EE80FD800C811B81AA81B98141
:102B7000CE0FD11D0FB6F894DEBF0FBECDBFED0155
:102B80000895991B79E004C0991F961708F0961BC9
:102B9000881F7A95C9F780950895AA1BBB1B51E140
:102BA00007C0AA1FBB1FA617B70710F0A61BB70BBD
:102BB000881F991F5A95A9F780959095BC01CD0162
:102BC0000895A1E21A2EAA1BBB1BFD010DC0AA1F6E
:102BD000BB1FEE1FFF1FA217B307E407F50720F086
:102BE000A21BB30BE40BF50B661F771F881F991F01
:102BF0001A9469F760957095809590959B01AC014A
:102C0000BD01CF010895052E97FB1EF400940E948C
:102C10001A1657FD07D00E94E11507FC03D04EF4A9
:102C20000C941A1650954095309521953F4F4F4F73
:102C30005F4F089590958095709561957F4F8F4F68
:102C40009F4F0895EE0FFF1F0590F491E02D09941A
:102C5000A0E0B0E0EEE2F6E10C948E15EC010097F6
:102C600021F4CB010E945614B8C0FC01E60FF71FF7
:102C70009C0122503109E217F30708F4ACC0D901D6
:102C80000D911C91119706171707B0F0053011052B
:102C900008F49FC0C80104978617970708F499C0E5
:102CA00002501109061B170B019311936D937C932E
:102CB000CF010E94EB148DC05B01A01AB10A4C0138
:102CC000800E911EA0910505B091060540E050E0F0
:102CD000E12CF12C109709F44AC0A815B905D1F5DB
:102CE0006D907C901197630182E0C80ED11CCA14CC
:102CF000DB0480F1A3014A195B096A0182E0C80E76
:102D0000D11C1296BC9012971396AC91B5E0CB16DD
:102D1000D10440F0B282A38351834083D9016D93E3
:102D20007C930AC00E5F1F4FC301800F911FF901F2
:102D300091838083EB2DFA2FE114F10431F0D70158
:102D40001396FC93EE93129744C0F0930605E0931C
:102D500005053FC08D919C9111974817590708F4BC
:102D6000AC017D0112960D90BC91A02DB3CF809146
:102D700003059091040588159905E1F44617570756
:102D8000C8F48091010190910201009741F48DB740
:102D90009EB74091050150910601841B950BE817E1
:102DA000F907C8F4F0930405E0930305F901718372
:102DB00060830FC0CB010E9456147C01009759F02C
:102DC000A801BE010E94F716CE010E94EB14C701B4
:102DD00004C0CE0102C080E090E0CDB7DEB7EEE0E7
:102DE0000C94AA1581E090E0F8940C940717FB016D
:102DF000DC0102C001900D9241505040D8F7089577
:102E0000FB01DC0101900D920020E1F7089510E034
:102E1000C3E6D0E004C0FE010E9422162196C4360B
:082E2000D107C9F7F894FFCFB8
:102E2800FF00000705800000000000A20005020066
:102E38000000008E00F70100000000000000008282
:102E4800040000000000000000820400000000816F
:102E580004A902350300000000F303070200000084
:102E680000FE07120800000000360A98060000005D
:102E78000085068E0600000000F10301021800001C
:102E880000000000000000E8FFE8FF00000000006C
:102E98000014000000000000000000ECFFECFF0040
:102EA800000000000000000000A50512053D05EC2B
:102EB800056E054C0560050600000000000D020FB8
:102EC80002FAFFFAFF00000E0211021800000000CB
:102ED800002E024502E8FFE8FF00003B024F02B166
:102EE8000163016D01BB0100000000F5030B02B393
:102EF80001B001AD01AA01A7011E011A01170101C4
:102F0800012101A500A3000200000000005B025D92
:102F180002FEFFFEFF00005C025F0200000000F7F7
:102F280003A70200000000F6035902B301B001AD87
:102F380001AA01A7019B0155013C0123012101CCF4
:102F480002AB021400000000007C029302ECFFECCC
:102F5800FF000089029D02290277018101330200E6
:102F6800000000370A9A0600000000D003F50100AF
:102F7800000000F40309020000000078041205F2C2
:102F880001F10100000000F2030302000000000C40
:102F98000783061806000000000B0781065F066F0E
:102FA8006E436173654F70656E006F6E4361736544
:102FB800436C6F7365006F6E4261636B006F6E5296
:102FC800657475726E006F6E456E746572006F6E13
:102FD8004F4B006F6E466F7277617264006F6E467A
:102FE800617374466F7277617264006F6E426163D9
:102FF8006B77617264006F6E466173744261636BD4
:103008007761726400416464696E6720456C656D20
:10301800656E743A200020696E746F2043444672CE
:10302800616D653A20002061743A20005374617222
:1030380074696E67202E2E2E0047554920696E69E7
:10304800742E2E2E004672616D652069733A200039
:10305800416464696E67204672616D653A2000209C
:10306800696E746F20434453637265656E3A20003D
:1030780053746172746564210053657420637572BA
:10308800736F723A205B002C005D005072696E7499
:10309800696E6720456C656D656E743A20006C61D9
:1030A80062656C31006C6162656C32006C616265EE
:1030B8006C33006C6162656C34006C6162656C3500
:1030C800006C6162656C36006C6162656C37006C1F
:0A30D8006162656C38000D0A00000B
:00000001FF
