:100000000C9463000C948B000C948B000C948B006C
:100010000C948B000C948B000C948B000C948B0034
:100020000C948B000C948B000C948B000C948B0024
:100030000C948B000C948B000C948B000C948B0014
:100040000C941B060C948B000C9492060C946C067A
:100050000C948B000C948B000C948B000C948B00F4
:100060000C948B000C948B000000000025002800ED
:100070002B0000000000240027002A0000000000E0
:1000800023002600290004040404040404040202DA
:100090000202020203030303030301020408102007
:1000A0004080010204081020010204081020000012
:1000B0000008000201000003040700000000000027
:1000C0000000CC06C40611241FBECFEFD8E0DEBF6F
:1000D000CDBF12E0A0E0B1E0EEE3FBE102C005908D
:1000E0000D92A03BB107D9F723E0A0EBB2E001C02D
:1000F0001D92AC3CB207E1F710E0C2E6D0E004C0CC
:100100002197FE010E94AD0CC136D107C9F70E94AC
:1001100056080C94920D0C940000FC01538D448DF4
:10012000252F30E0842F90E0821B930B541710F0A2
:10013000CF96089501970895FC01918D828D9817AF
:1001400061F0828DDF01A80FB11D5D968C91928DBB
:100150009F5F9F73928F90E008958FEF9FEF0895B8
:10016000FC01918D828D981731F0828DE80FF11D81
:10017000858D90E008958FEF9FEF0895FC01918D9C
:10018000228D892F90E0805C9F4F821B91098F7395
:100190009927089580E090E0892B29F00E9484053A
:1001A00081110C9400000895FC01A585B685109777
:1001B00061F0ED91FC911197AC014E5F5F4F0480AF
:1001C000F581E02DBC01CD01099408950895CB017E
:1001D00008957F928F929F92AF92BF92CF92DF92BB
:1001E000EF92FF920F931F93CF93DF93EC0149019E
:1001F0005A018B01C12CD12C7601C814D904EA0410
:10020000FB0484F5F80171908F018F8580FF0BC08E
:10021000E881F9810084F185E02D20E144E060E08F
:1002200070E0CE010995EB85FC858D859E85E817EC
:10023000F90738F470828B859C8501969C878B87A3
:100240000BC0E881F981672D70E0028CF38DE02D01
:10025000CE010995019649F02FEFC21AD20AE20A9F
:10026000F20ACBCFB401C50102C0B601C701DF91CC
:10027000CF911F910F91FF90EF90DF90CF90BF90A3
:10028000AF909F908F907F900895CF93DF93EC0174
:10029000E881F9810288F389E02D09958F3F2FEFDE
:1002A000920731F02D813E812F5F3F4F3E832D839A
:1002B000DF91CF9108958FEF9FEF089560E070E098
:1002C000CB01089580E090E00895CB010895CF938D
:1002D000DF93EC0188899989DC01ED91FC91008420
:1002E000F185E02D0995892BA9F388899989DC018D
:1002F000ED91FC910284F385E02DDF91CF9109947B
:10030000CF93DF93EC0188899989DC01ED91FC9111
:100310000084F185E02D0995892BA9F388899989B5
:10032000DC01ED91FC910484F585E02DDF91CF9106
:100330000994AF92BF92CF92DF92EF92FF920F9308
:100340001F93CF93DF9300D000D0CDB7DEB78C01E1
:100350005B01C12CD12C7601F80180899189DC01E7
:10036000ED91FC910284F385E02D29833A834B8340
:100370005C83099529813A814B815C818F3F71F0C3
:10038000C216D306E406F5064CF4D5018D935D0143
:10039000BFEFCB1ADB0AEB0AFB0ADECFC701B601BF
:1003A0000F900F900F900F90DF91CF911F910F91B1
:1003B000FF90EF90DF90CF90BF90AF900895DC0159
:1003C00050968D919C915197DC01ED91FC910084A8
:1003D000F185E02D099480E090E0089580E090E0C0
:1003E000089580E090E0089580E090E008950895F9
:1003F000CF93DF93C091B002D091B102E881F9812F
:100400000084F185E02DCE010995892BB9F3E881AF
:10041000F9810284F385E02DCE01DF91CF9109941B
:100420001F93CF93DF93182FC091B002D091B102E8
:100430008A3041F4E881F9810190F081E02D6DE08E
:10044000CE010995E881F9810190F081E02D612FBD
:10045000CE01099521E030E0019711F420E030E071
:10046000C901DF91CF911F910895089580E090E038
:100470000895FF920F931F93CF93DF93EC010C89A4
:100480001D890115110521F1FD8087E090E00E9492
:10049000200BDC0182E191E011969C938E931696DD
:1004A0001C921E9215971396DC93CE931297149676
:1004B000FC921497E801E881F9810480F581E02D30
:1004C000BD01C801DF91CF911F910F91FF90099459
:1004D000DF91CF911F910F91FF900895CF93DF93FC
:1004E000EC010E94D4004F85888999892A813B813B
:1004F00041110AC04A895B89840F951F2817390763
:1005000060F081E08F8704C08217930730F01F8668
:10051000CE01DF91CF910C943902DF91CF910895F4
:100520000C94B50B0C94B50B2AE031E0FC0131833F
:100530002083878190850C94B50BCF93DF93EC01DA
:100540000E949402CE01DF91CF910C94B50B0C94D4
:10055000B50B0C94B50B0C94B50B089508950C9441
:10056000B50BDC01ED91FC91369720813181820F32
:10057000931F0C94AF02FB0120813181FC01318378
:100580002083FB0142815381F9013697208131811B
:10059000FC01E20FF31F51834083089528E831E006
:1005A000FC013183208322E931E0318F208F68E91B
:1005B00071E00C94BB02DC01ED91FC913697208137
:1005C0003181820F931F0C94CE02CF93DF93EC0105
:1005D0000E94CE02CE01DF91CF910C94B50BDC01CD
:1005E000ED91FC91369720813181820F931F0C94FD
:1005F000E5020C94B50B089508950C94B50BDC013D
:10060000ED91FC91369720813181820F931F0C94DC
:10061000FD02FB0120813181FC0131832083FB013C
:1006200042815381F901369720813181FC01E20F2B
:10063000F31F51834083089520E032E0FC013183B1
:1006400020832AE032E0358B248B60E172E00C9449
:100650000903DC01ED91FC91369720813181820FF5
:10066000931F0C941C03CF93DF93EC010E941C0397
:10067000CE01DF91CF910C94B50BDC01ED91FC9193
:10068000369720813181820F931F0C9433030C9491
:10069000B50B0C94B50B0F931F93CF93DF938C0185
:1006A000EB016F3F8FEF780719F480E090E00FC007
:1006B0006A3031F46DE0F801808991890E94650605
:1006C0006C2FF801808991890E946506CE01DF9127
:1006D000CF911F910F9108958F929F92BF92CF92C9
:1006E000DF92EF92FF920F931F93CF93DF9300D08F
:1006F00000D0CDB7DEB78C014B01C12CD12C7601D7
:10070000C216D306E406F50644F5F401B1904F0194
:10071000FAE0BF120EC06DE0F8018089918929834B
:100720003A834B835C830E9465065C814B813A81EE
:1007300029816B2DF8018089918929833A834B8324
:100740005C830E946506FFEFCF1ADF0AEF0AFF0AFB
:100750005C814B813A812981D3CFCA01B9010F90C5
:100760000F900F900F90DF91CF911F910F91FF90FD
:10077000EF90DF90CF90BF909F908F90089561157C
:10078000710509F44DC0DB011296ED91FC911397B0
:10079000228114968C91853049F48785882319F03D
:1007A00082E392E03BC08DE392E038C08585968578
:1007B0002F30A1F018F42E3031F008952031C9F017
:1007C000213111F108958230910519F489E492E004
:1007D00025C0039729F580E592E020C0823091057D
:1007E00019F489E592E01AC00397D1F481E692E00A
:1007F00015C08230910519F486E692E00FC0039788
:1008000079F480E792E00AC08230910519F48EE70E
:1008100092E004C0039721F489E892E00C94F90572
:100820000895FC01848DDF01A80FB11DA35ABF4FAD
:100830002C91848D90E001968F739927848FA689DF
:10084000B7892C93A089B1898C9180648C93938D06
:10085000848D981306C00288F389E02D80818F7DF6
:1008600080830895089508950895AF92BF92CF921E
:10087000DF92EF92FF920F931F93CF93DF93FC01D0
:100880002481222319F0FB01908B8787FC01C28110
:10089000D381EC80FD8087010F5F1F4FE016F106CA
:1008A00008F046C06B018A819B818017910760F533
:1008B0009701275F3F4F8217930730F5A880B980D3
:1008C0003B832A83C901880F991F0E94200B9983BB
:1008D0008883D50140E050E04E155F0591F0E88136
:1008E000F9819A01220F331FE20FF31F309729F08D
:1008F0008D919C911197918380834F5F5F4F1296EA
:10090000EBCFC5010E94B50B8C819D819C01220F0C
:10091000331F8017910778F4E881F981E20FF31F04
:10092000309711F0D182C08201962E5F3F4FF1CFF8
:100930000E151F0510F41D830C83DF91CF911F91BD
:100940000F91FF90EF90DF90CF90BF90AF90089500
:10095000FF920F931F93CF93DF93EC010F851889BC
:100960000115110521F1FA8087E090E00E94200B2B
:10097000DC0182E191E011969C938E9316961C9275
:100980001E9215971396DC93CE9312971496FC92B1
:100990001497E801E881F9810480F581E02DBD011B
:1009A000C801DF91CF911F910F91FF900994DF91C2
:1009B000CF911F910F91FF9008951F93CF93DF93D5
:1009C000EC01162F8AE091E0998388838FEF8A8368
:1009D0001B821C821D821E8218861F821A8619861F
:1009E0001C861B8661E070E080E090E00E94B30C02
:1009F000009761F098878F831A8619862B853C852E
:100A0000232B09F03BC0FC01108238C08F819885F0
:100A1000009711F00E94B50B18861F821C861B865A
:100A20001A86198681E090E09E878D87188A1F8636
:100A30001A83612F70E0FB01E656FF4F2491FB0102
:100A4000EA57FF4F8491882301F190E0880F991FA6
:100A5000FC01EE58FF4FC591D491FC01E859FF4FBE
:100A6000A591B4919FB7F8948881E22FE0958E23E9
:100A700088838C91E823EC939FBF07C01C861B865C
:100A80006AE972E00E948B0DCDCFDF91CF911F916B
:100A9000089508950895089508952FB7F8946091E2
:100AA000B4037091B5038091B6039091B7032FBF43
:100AB0000895CF92DF92EF92FF920F931F93CF93FF
:100AC000DF936C017A018B01C0E0D0E0CE15DF0529
:100AD00089F0D8016D918D01D601ED91FC910190C5
:100AE000F081E02DC6010995892B11F47E0102C029
:100AF0002196ECCFC701DF91CF911F910F91FF900D
:100B0000EF90DF90CF90089582EE92E00E94BE00B9
:100B100021E0892B09F420E0822F08950E947D0DA9
:100B2000EF92FF920F931F93CF93DF93EC0181E03D
:100B3000888F9B8D8C8D981305C0E889F9898081F9
:100B400085FD24C0F62E0B8D10E00F5F1F4F0F7335
:100B50001127E02E8C8DE8120CC00FB607FCFACFDF
:100B6000E889F989808185FFF5CFCE010E941104C3
:100B7000F1CF8B8DFE01E80FF11DE35AFF4FF0829C
:100B80000B8FEA89FB898081806207C0EE89FF892B
:100B90006083E889F98980818064808381E090E0C6
:100BA000DF91CF911F910F91FF90EF900895CF9318
:100BB000DF93EC01888D8823C9F0EA89FB89808165
:100BC00085FD05C0A889B9898C9186FD0FC00FB637
:100BD00007FCF5CF808185FFF2CFA889B9898C9178
:100BE00085FFEDCFCE010E941104E7CFDF91CF91B9
:100BF0000895CF93DF93009779F0FC0101900020D6
:100C0000E9F73197AF01481B590BBC0182EE92E026
:100C10000E945905EC0102C0C0E0D0E042E050E083
:100C200068E972E082EE92E00E9459058C0F9D1FE8
:100C3000DF91CF9108951F920F920FB60F9211245A
:100C40002F933F938F939F93AF93BF938091B40360
:100C50009091B503A091B603B091B7033091B3035F
:100C600023E0230F2D3720F40196A11DB11D05C0EF
:100C700026E8230F0296A11DB11D2093B303809394
:100C8000B4039093B503A093B603B093B7038091D8
:100C9000AF039091B003A091B103B091B20301965C
:100CA000A11DB11D8093AF039093B003A093B10336
:100CB000B093B203BF91AF919F918F913F912F91CC
:100CC0000F900FBE0F901F901895DC01ED91FC91D5
:100CD0000190F081E02D09941F920F920FB60F92B0
:100CE00011242F933F934F935F936F937F938F9331
:100CF0009F93AF93BF93EF93FF9382EE92E00E9496
:100D00001104FF91EF91BF91AF919F918F917F91CE
:100D10006F915F914F913F912F910F900FBE0F9068
:100D20001F9018951F920F920FB60F9211242F93B8
:100D30008F939F93EF93FF93E091F202F091F30270
:100D40008081E091F802F091F90282FD12C0908159
:100D50008091FB028F5F8F732091FC02821751F00C
:100D6000E091FB02F0E0EE51FD4F958F8093FB0286
:100D700001C08081FF91EF919F918F912F910F90F2
:100D80000FBE0F901F90189584EB92E00E94CE0248
:100D90008FE793E00C941C03CF92DF92EF92FF92C7
:100DA000CF93DF9382EE92E01092E5021092E4027C
:100DB00048EE53E060E070E04093E6025093E702B3
:100DC0006093E8027093E90220E631E03093E30299
:100DD0002093E20225EC30E03093EF022093EE0204
:100DE00024EC30E03093F1022093F00220EC30E06C
:100DF0003093F3022093F20221EC30E03093F502BD
:100E00002093F40222EC30E03093F7022093F602B4
:100E100026EC30E03093F9022093F8021092FB02A6
:100E20001092FC021092FD021092FE0261E270E04C
:100E3000709397036093960310929803109299030E
:100E400010929A0326E0C22ED12CE12CF12CC092F4
:100E50009B03D0929C03E0929D03F0929E0310921C
:100E60009F031092A0031092A1031092A20340E2EC
:100E70004093A3031092A5031092A4031092A80319
:100E800021E833E03093A7032093A60320E032E06B
:100E90003093800320937F032AE032E03093940361
:100EA000209393031092850310928403109287037A
:100EB00010928603109289031092880310928B037C
:100EC00010928A0310928D0310928C0310928F035C
:100ED00010928E032EED31E0309382032093810334
:100EE000909392038093910350E1509390037093F9
:100EF000D0026093CF021092D1021092D2021092CF
:100F0000D302C092D402D092D502E092D602F092DF
:100F1000D7021092D8021092D9021092DA021092DF
:100F2000DB024093DC021092DE021092DD0210928E
:100F3000E1021092B6021092B7021092B80210921B
:100F4000B9024AEB52E05093E0024093DF0248E8D6
:100F500051E05093B5024093B40242E951E05093FE
:100F6000CD024093CC021092BE021092BD021092AC
:100F7000C0021092BF021092C2021092C1021092DF
:100F8000C4021092C3021092C6021092C5021092BF
:100F9000C8021092C7023093BB022093BA0290930A
:100FA000CB028093CA0228E02093C9021092B302B8
:100FB0001092B2029093B1028093B00268EF71E098
:100FC00080E192E00E94B90A9093B3028093B2024A
:100FD00081E190E00E94200BEC016EE00E94DD04B4
:100FE000D093C103C093C00381E190E00E94200B25
:100FF000EC016FE00E94DD04D093BF03C093BE03F9
:1010000081E190E00E94200BEC0160E10E94DD0490
:10101000D093BD03C093BC0381E190E00E94200BFC
:10102000EC0161E10E94DD04D093BB03C093BA03DD
:1010300086E190E00E94200BEC0182E292E099832D
:1010400088831B821A8285E08D831E821F82188608
:1010500019861C861E861D868CE090E00E94200B5F
:101060008A879B8726E02C83FC010C96E817F907FA
:1010700019F011921192FACF8CE292E09983888351
:101080001F861D8A1C8A8EE190E0998B888B82E3F3
:1010900090E09B8B8A8BD093B903C093B803DF9108
:1010A000CF91FF90EF90DF90CF900895CF93DF9393
:1010B00000D000D0CDB7DEB7789484B5826084BD0F
:1010C00084B5816084BD85B5826085BD85B581604C
:1010D00085BD80916E00816080936E0010928100CA
:1010E0008091810082608093810080918100816085
:1010F0008093810080918000816080938000809146
:10110000B10084608093B1008091B00081608093D1
:10111000B00080917A00846080937A0080917A0098
:10112000826080937A0080917A00816080937A0057
:1011300080917A00806880937A001092C100E091DB
:10114000F202F091F30282E08083E091EE02F091EE
:10115000EF021082E091F002F091F1028FEC8083B7
:101160001092FA02E091F602F091F70286E0808395
:10117000E091F402F091F502808180618083E0913A
:10118000F402F091F502808188608083E091F4029E
:10119000F091F502808180688083E091F402F09103
:1011A000F50280818F7D80838BE992E00E94F905B2
:1011B00085E090E00E94200B7C0187E090E00E9497
:1011C000200B8C0188E090E0D80113969C938E93BD
:1011D000129715961C921E92149780E190E00E943F
:1011E000200BF80191838083D70113961C930E93F3
:1011F000129714961C92149786E591E08D939C9318
:10120000F092AE03E092AD036091C0037091C10310
:10121000C7010E9435046091BE037091BF03C701EE
:101220000E9435046091BC037091BD03C7010E9408
:1012300035046091BA037091BB03C7010E94350465
:10124000E091B803F091B903F58AE48AD7011296C8
:10125000ED91FC91139784819581880F991F0190DE
:10126000F081E02D8E0F9F1FE817F90739F0A1914B
:10127000B1915096FC92EE921F97F6CF81E0F70164
:1012800084830E944D056093A9037093AA03809301
:10129000AB039093AC0387EA92E00E94F90543E028
:1012A000E42EF12CCC24C394D12C62E0A62EB12CD8
:1012B0000091AD031091AE03D8011296ED91FC910F
:1012C000139780809180D8011296ED91FC9113972D
:1012D00084819581880F991F20813181820F931F0E
:1012E0008816990609F44CC0F401219031904F0101
:1012F000D10112962C9130E0F901E255FF4F849113
:10130000F901E656FF4F9491F901EA57FF4FE49136
:10131000EE2309F4B5C0882339F1833091F038F415
:101320008130A9F0823001F584B58F7D12C08730FD
:1013300091F08830A1F08430B9F4809180008F7DE5
:1013400003C0809180008F77809380000DC084B5AA
:101350008F7784BD09C08091B0008F7703C08091E2
:10136000B0008F7D8093B000F0E0EE0FFF1FE458D7
:10137000FF4FA591B491EC919E2309F481C0CCC09C
:101380000091B8031091B903F801848522859385F3
:10139000E22FF92FE80FF11DE80FF11D20813181B7
:1013A000D80116964D915D916D917C911997421BD4
:1013B000530B6109710916964D935D936D937C9360
:1013C000199715968C918E3008F08E508770806436
:1013D00080937C0080917A00806480937A00809171
:1013E0007A0086FDFCCF809178002091790090E012
:1013F000922B91838083F801448522859385E22F87
:10140000F92FE40FF11DE40FF11D20813181D80186
:1014100016964D905D906D907C901997C301B20126
:10142000620F731F811D911DF8016683778380878A
:10143000918731E0340F34872481321708F0148605
:1014400030E040E050E00E948B0CD80112968D9164
:101450009C9113978217930769F0ED91FC9104809A
:10146000F581E02DC80129833A834B835C8309957C
:101470003A812981F801338322830E94CA0018CF60
:10148000D1011D968D919C911E97009719F50E9490
:101490004D05F1014380548065807680DC01CB01ED
:1014A00084199509A609B709843F9140A105B105A2
:1014B00008F409CFD1011D968D919C911E97039739
:1014C00009F401CF1E96FC92EE921D97C1010E9475
:1014D000A804F9CE019709F0F6CE0E944D05F1015E
:1014E0004380548065807680DC01CB0184199509A6
:1014F000A609B709C397A105B10508F4E4CE16867D
:101500001586C1010E94A8040E944D05F101638364
:10151000748385839683D7CEF1018585968501975F
:1015200009F4D1CE0E944D05D10113964D905D90E6
:101530006D907C901697DC01CB0184199509A60962
:10154000B709C397A105B10508F4BDCED1011D9619
:101550008D919C911E97892B31F4F101B686A58659
:10156000C1010E94A804D1011E96DC92CE921D9763
:10157000C8CF0F931F93CF93DF93009731F461157A
:10158000710519F480E090E03AC08B01EC016EE047
:1015900070E081E090E00E94040BFC01892B91F344
:1015A00080E883830115110571F01387028781E8B4
:1015B00083838091C2039091C303892B21F4F0931C
:1015C000C303E093C2032097C9F0D187C08783810A
:1015D000826083838091C4039091C503892B71F449
:1015E000F093C503E093C4038091C6039091C703B1
:1015F000892B21F4F093C703E093C603CF01DF9159
:10160000CF911F910F9108950F931F93CF93DF9365
:10161000869F8001879F100D969F100D1124C80191
:101620000E94200BEC01009729F0A80160E070E017
:101630000E944D0CCE01DF91CF911F910F91089523
:10164000CF93DF938230910510F482E090E0E09137
:10165000CA03F091CB0320E030E0C0E0D0E0309747
:1016600011F14081518148175907C0F048175907B7
:1016700061F482819381209719F09B838A832BC028
:101680009093CB038093CA0326C02115310519F02E
:101690004217530718F49A01BE01DF01EF010280DF
:1016A000F381E02DDCCF2115310509F1281B390B21
:1016B0002430310590F412968D919C911397611509
:1016C000710521F0FB019383828304C09093CB03C7
:1016D0008093CA03FD01329644C0FD01E20FF31F5F
:1016E00081939193225031092D933C933AC02091DC
:1016F000C8033091C903232B41F42091020130919A
:1017000003013093C9032093C80320910001309155
:1017100001012115310541F42DB73EB74091040177
:1017200050910501241B350BE091C803F091C903CA
:10173000E217F307A0F42E1B3F0B2817390778F0A8
:10174000AC014E5F5F4F2417350748F04E0F5F1F07
:101750005093C9034093C8038193919302C0E0E082
:10176000F0E0CF01DF91CF9108950F931F93CF93B6
:10177000DF93009709F48CC0FC0132971382128228
:101780000091CA031091CB030115110581F420814A
:101790003181820F931F2091C8033091C90328170C
:1017A000390779F5F093C903E093C80371C0D801F4
:1017B00040E050E0AE17BF0750F412962D913C91D7
:1017C0001397AD012115310509F1D901F3CF9D0121
:1017D000DA013383228360817181860F971F82171C
:1017E000930769F4EC0128813981260F371F2E5F9A
:1017F0003F4F318320838A819B8193838283452B52
:1018000029F4F093CB03E093CA0342C01396FC93F0
:10181000EE931297ED01499159919E01240F351FC6
:10182000E217F30771F480819181840F951F02966E
:1018300011969C938E938281938113969C938E93A1
:101840001297E0E0F0E0D80112968D919C911397E9
:10185000009719F0F8018C01F6CF8D919C919801B9
:101860002E5F3F4F820F931F2091C8033091C90311
:101870002817390769F4309729F41092CB03109296
:10188000CA0302C0138212821093C9030093C803D3
:10189000DF91CF911F910F910895DC0101C06D93ED
:1018A00041505040E0F708952F923F924F925F923F
:1018B0006F927F928F929F92AF92BF92CF92DF9260
:1018C000EF92FF920F931F93CF93DF93CDB7DEB7C5
:1018D000CA1BDB0B0FB6F894DEBF0FBECDBF099459
:1018E0002A88398848885F846E847D848C849B84B0
:1018F000AA84B984C884DF80EE80FD800C811B81BE
:10190000AA81B981CE0FD11D0FB6F894DEBF0FBEEC
:10191000CDBFED010895A1E21A2EAA1BBB1BFD014C
:101920000DC0AA1FBB1FEE1FFF1FA217B307E407BE
:10193000F50720F0A21BB30BE40BF50B661F771F16
:10194000881F991F1A9469F76095709580959095F6
:101950009B01AC01BD01CF010895EE0FFF1F059063
:10196000F491E02D0994A0E0B0E0E9EBFCE00C94E8
:10197000580CEC01009721F4CB010E94200BB8C059
:10198000FC01E60FF71F9C0122503109E217F30713
:1019900008F4ACC0D9010D911C91119706171707D7
:1019A000B0F00530110508F49FC0C80104978617F0
:1019B000970708F499C002501109061B170B0193F1
:1019C00011936D937C93CF010E94B50B8DC05B0189
:1019D000A01AB10A4C01800E911EA091CA03B091C9
:1019E000CB0340E050E0E12CF12C109709F44AC001
:1019F000A815B905D1F56D907C901197630182E02F
:101A0000C80ED11CCA14DB0480F1A3014A195B097A
:101A10006A0182E0C80ED11C1296BC9012971396F0
:101A2000AC91B5E0CB16D10440F0B282A3835183D0
:101A30004083D9016D937C930AC00E5F1F4FC30191
:101A4000800F911FF90191838083EB2DFA2FE11410
:101A5000F10431F0D7011396FC93EE93129744C032
:101A6000F093CB03E093CA033FC08D919C911197F3
:101A70004817590708F4AC017D0112960D90BC91EE
:101A8000A02DB3CF8091C8039091C9038815990503
:101A9000E1F446175707C8F48091000190910101C5
:101AA000009741F48DB79EB7409104015091050114
:101AB000841B950BE817F907C8F4F093C903E0936A
:101AC000C803F901718360830FC0CB010E94200B12
:101AD0007C01009759F0A801BE010E94820DCE0141
:101AE0000E94B50BC70104C0CE0102C080E090E0A7
:101AF000CDB7DEB7EEE00C94740C81E090E0F89482
:101B00000C94920DFB01DC0102C001900D9241503A
:101B10005040D8F70895FB01DC0101900D920020A0
:101B2000E1F7089510E0C2E6D0E004C0FE010E9493
:0E1B3000AD0C2196C336D107C9F7F894FFCF4C
:101B3E000000CC0380000000000094029D02000013
:101B4E000000E600A70218000000000000000000E0
:101B5E00E8FFE8FF00000000000014000000000095
:101B6E0000000000ECFFECFF000000000000000091
:101B7E000000000000008E050000000000000000C4
:101B8E008E05000000004C054903BF030000000055
:101B9E00900559058D00D705BE009C00B0000600CB
:101BAE0000000000AD02AF02FAFFFAFF0000AE0225
:101BBE00B102180000000000CE02E502E8FFE8FFC7
:101BCE000000DB02EF0288011C01260192010000D9
:101BDE0000004905AB02F701F401F101EE01EB0142
:101BEE0062015E015B0145016501E900E70002004B
:101BFE0000000000FB02FD02FEFFFEFF0000FC02E3
:101C0E00FF02000000004B054703000000004A05DC
:101C1E00F902F701F401F101EE01EB01DF01990187
:101C2E008001670165016C034B0314000000000086
:101C3E001C033303ECFFECFF000029033D030002FD
:101C4E0030013A010A02000000003404A90200002B
:101C5E00000033049202D40000000000320490020F
:101C6E006E026F6E436173654F70656E006F6E43EB
:101C7E00617365436C6F7365006F6E4261636B00D9
:101C8E006F6E52657475726E006F6E456E7465720E
:101C9E00006F6E4F4B006F6E466F7277617264000D
:101CAE006F6E46617374466F7277617264006F6E09
:101CBE004261636B77617264006F6E46617374424A
:101CCE0061636B77617264000D0A00537461727404
:101CDE00696E672E2E2E0053746172746564210036
:00000001FF
