:100000000C9464000C948C000C948C000C948C0068
:100010000C948C000C948C000C948C000C94320A80
:100020000C948C000C948C000C948C000C948C0020
:100030000C948C000C948C000C948C000C948C0010
:100040000C94BD090C948C000C94DA040C94B40448
:100050000C948C000C948C000C948C000C948C00F0
:100060000C948C000C948C000200000000230026ED
:1000700000290000000000240027002A00000000E2
:1000800000250028002B00040404040404040402D6
:100090000202020202030303030303010204081025
:1000A00020408001020408102001020408102000F2
:1000B0000000080002010000030407000000000027
:1000C00000000000120E950A11241FBECFEFD8E0E9
:1000D000DEBFCDBF12E0A0E0B1E0E2EFF6E202C089
:1000E00005900D92AA3EB107D9F724E0AAEEB2E03E
:1000F00001C01D92A533B207E1F710E0C3E6D0E0DE
:1001000004C02197FE010E948712C236D107C9F7A9
:100110000E949D0A0C946C130C940000FC01538DFA
:10012000448D252F30E0842F90E0821B930B5417D1
:1001300010F0CF96089501970895FC01918D828D5E
:10014000981761F0828DDF01A80FB11D5D968C912B
:10015000928D9F5F9F73928F90E008958FEF9FEF36
:100160000895FC01918D828D981731F0828DE80FF2
:10017000F11D858D90E008958FEF9FEF0895FC01AC
:10018000918D228D892F90E0805C9F4F821B910979
:100190008F7399270895FC01848DDF01A80FB11D8D
:1001A000A35ABF4F2C91848D90E001968F739927AD
:1001B000848FA689B7892C93A089B1898C9180649A
:1001C0008C93938D848D981306C00288F389E02D5B
:1001D00080818F7D80830895EF92FF920F931F930C
:1001E000CF93DF93EC0181E0888F9B8D8C8D9813EA
:1001F00005C0E889F989808185FD24C0F62E0B8D24
:1002000010E00F5F1F4F0F731127E02E8C8DE81247
:100210000CC00FB607FCFACFE889F989808185FF09
:10022000F5CFCE010E94CB00F1CF8B8DFE01E80F00
:10023000F11DE35AFF4FF0820B8FEA89FB89808121
:10024000806207C0EE89FF896083E889F98980812F
:100250008064808381E090E0DF91CF911F910F91C6
:10026000FF90EF900895CF93DF93EC01888D882362
:10027000C9F0EA89FB89808185FD05C0A889B98913
:100280008C9186FD0FC00FB607FCF5CF808185FFEE
:10029000F2CFA889B9898C9185FFEDCFCE010E945C
:1002A000CB00E7CFDF91CF91089580E090E0892BDC
:1002B00029F00E94250981110C9400000895FC0189
:1002C000A585B685109761F0ED91FC911197AC0171
:1002D0004E5F5F4F0480F581E02DBC01CD01099494
:1002E00008950895CB0108957F928F929F92AF92C7
:1002F000BF92CF92DF92EF92FF920F931F93CF9313
:10030000DF93EC0149015A018B01C12CD12C7601FC
:10031000C814D904EA04FB0484F5F80171908F0134
:100320008F8580FF0BC0E881F9810084F185E02D85
:1003300020E144E060E070E0CE010995EB85FC85AA
:100340008D859E85E817F90738F470828B859C852A
:1003500001969C878B870BC0E881F981672D70E03F
:10036000028CF38DE02DCE010995019649F02FEF17
:10037000C21AD20AE20AF20ACBCFB401C50102C006
:10038000B601C701DF91CF911F910F91FF90EF90C0
:10039000DF90CF90BF90AF909F908F907F90089507
:1003A000CF93DF93EC01E881F9810288F389E02D96
:1003B00009958F3F2FEF920731F02D813E812F5FFE
:1003C0003F4F3E832D83DF91CF9108958FEF9FEFB5
:1003D000089560E070E0CB01089580E090E008951A
:1003E000CB010895CF93DF93EC0188899989DC01D3
:1003F000ED91FC910084F185E02D0995892BA9F3FD
:1004000088899989DC01ED91FC910284F385E02DC6
:10041000DF91CF910994CF93DF93EC01888999897B
:10042000DC01ED91FC910084F185E02D0995892B8B
:10043000A9F388899989DC01ED91FC910484F58503
:10044000E02DDF91CF910994AF92BF92CF92DF92CE
:10045000EF92FF920F931F93CF93DF9300D000D0C2
:10046000CDB7DEB78C015B01C12CD12C7601F80130
:1004700080899189DC01ED91FC910284F385E02D66
:1004800029833A834B835C83099529813A814B8187
:100490005C818F3F71F0C216D306E406F5064CF47A
:1004A000D5018D935D01BFEFCB1ADB0AEB0AFB0A86
:1004B000DECFC701B6010F900F900F900F90DF9124
:1004C000CF911F910F91FF90EF90DF90CF90BF9051
:1004D000AF900895DC0150968D919C915197DC016D
:1004E000ED91FC910084F185E02D099480E090E08D
:1004F000089580E090E0089580E090E0089580E025
:1005000090E008950895CF93DF93C0911003D091A8
:100510001103E881F9810084F185E02DCE01099570
:10052000892BB9F3E881F9810284F385E02DCE01AE
:10053000DF91CF9109941F93CF93DF93182FC09130
:100540001003D09111038A3041F4E881F9810190C0
:10055000F081E02D6DE0CE010995E881F9810190EF
:10056000F081E02D612FCE01099521E030E0019767
:1005700011F420E030E0C901DF91CF911F9108957F
:10058000089580E090E00895FF920F931F93CF931A
:10059000DF93EC010C891D890115110521F1FD8006
:1005A00087E090E00E94DB10DC0183E191E011968E
:1005B0009C938E9316961C921E9215971396DC931D
:1005C000CE9312971496FC921497E801E881F98172
:1005D0000480F581E02DBD01C801DF91CF911F910D
:1005E0000F91FF900994DF91CF911F910F91FF9090
:1005F0000895CF93DF93EC010E945F014F858889B6
:1006000099892A813B8141110AC04A895B89840FFB
:10061000951F2817390760F081E08F8704C0821783
:10062000930730F01F86CE01DF91CF910C94C40266
:10063000DF91CF9108950C9470110C9470110C946B
:1006400070112BE031E0FC0131832083878190859C
:100650000C947011CF93DF93EC010E942103CE0123
:10066000DF91CF910C9470110C9470110C94701157
:100670000C9470110C947011089508950C947011DD
:10068000DC01ED91FC91369720813181820F931F1F
:100690000C943E03FB0120813181FC0131832083D6
:1006A000FB0142815381F901369720813181FC01A0
:1006B000E20FF31F51834083089529E931E0FC01E3
:1006C0003183208323EA31E0318F208F69EA71E0A2
:1006D0000C944A03DC01ED91FC9136972081318125
:1006E000820F931F0C945D03CF93DF93EC010E9464
:1006F0005D03CE01DF91CF910C947011DC01ED917F
:10070000FC91369720813181820F931F0C947403E2
:100710000C947011089508950C947011DC01ED9102
:10072000FC91369720813181820F931F0C948C03AA
:10073000FB0120813181FC0131832083FB01428157
:100740005381F901369720813181FC01E20FF31FBB
:1007500051834083089521E132E0FC0131832083FD
:100760002BE132E0358B248B61E272E00C9498032C
:10077000DC01ED91FC91369720813181820F931F2E
:100780000C94AB03CF93DF93EC010E94AB03CE013B
:10079000DF91CF910C947011DC01ED91FC913697B3
:1007A00020813181820F931F0C94C2030C9470112D
:1007B0000F931F93CF93DF938C01EB016F3F8FEF6C
:1007C000780719F480E090E00FC06A3031F46DE0F2
:1007D000F801808991890E948E0A6C2FF801808926
:1007E00091890E948E0ACE01DF91CF911F910F91C6
:1007F00008958F929F92BF92CF92DF92EF92FF92D5
:100800000F931F93CF93DF9300D000D0CDB7DEB707
:100810008C014B01C12CD12C7601C216D306E40603
:10082000F50644F5F401B1904F01FAE0BF120EC095
:100830006DE0F8018089918929833A834B835C8339
:100840000E948E0A5C814B813A8129816B2DF801CF
:100850008089918929833A834B835C830E948E0A25
:10086000FFEFCF1ADF0AEF0AFF0A5C814B813A8162
:100870002981D3CFCA01B9010F900F900F900F902B
:10088000DF91CF911F910F91FF90EF90DF90CF906C
:10089000BF909F908F900895CF93DF93EC0160E01D
:1008A0008E810E94510961E08E810E94510960E0B1
:1008B0008E810E9451098BE891E00197F1F7DF9159
:1008C000CF9108956115710509F44DC0DB011296B1
:1008D000ED91FC911397228114968C91853049F407
:1008E0008785882319F08FE492E03BC08AE592E087
:1008F00038C0858596852F30A1F018F42E3031F060
:1009000008952031C9F0213111F108958230910507
:1009100019F486E692E025C0039729F58DE692E06A
:1009200020C08230910519F486E792E01AC003973F
:10093000D1F48EE792E015C08230910519F483E876
:1009400092E00FC0039779F48DE892E00AC08230FC
:10095000910519F48BE992E004C0039721F486EA2B
:1009600092E00C942F0908951F920F920FB60F92E8
:1009700011242F933F934F935F936F937F938F93A4
:100980009F93AF93BF93EF93FF9382E493E00E9412
:10099000CB00FF91EF91BF91AF919F918F917F918C
:1009A0006F915F914F913F912F910F900FBE0F90DC
:1009B0001F9018951F920F920FB60F9211242F932C
:1009C0008F939F93EF93FF93E0915203F091530322
:1009D0008081E0915803F091590382FD12C090810B
:1009E00080915B038F5F8F7320915C03821751F0BE
:1009F000E0915B03F0E0EE5BFC4F958F80935B032F
:100A000001C08081FF91EF919F918F912F910F9065
:100A10000FBE0F901F901895089508950895AF92F6
:100A2000BF92CF92DF92EF92FF920F931F93CF93DB
:100A3000DF93FC012481222319F0FB01908B87872F
:100A4000FC01C281D381EC80FD8087010F5F1F4FC5
:100A5000E016F10608F046C06B018A819B81801781
:100A6000910760F59701275F3F4F8217930730F595
:100A7000A880B9803B832A83C901880F991F0E94EF
:100A8000DB1099838883D50140E050E04E155F0567
:100A900091F0E881F9819A01220F331FE20FF31FD1
:100AA000309729F08D919C911197918380834F5FAE
:100AB0005F4F1296EBCFC5010E9470118C819D8112
:100AC0009C01220F331F8017910778F4E881F98188
:100AD000E20FF31F309711F0D182C08201962E5F92
:100AE0003F4FF1CF0E151F0510F41D830C83DF91CE
:100AF000CF911F910F91FF90EF90DF90CF90BF901B
:100B0000AF900895FF920F931F93CF93DF93EC0163
:100B10000F8518890115110521F1FA8087E090E011
:100B20000E94DB10DC0183E191E011969C938E938F
:100B300016961C921E9215971396DC93CE931297DD
:100B40001496FC921497E801E881F9810480F581FC
:100B5000E02DBD01C801DF91CF911F910F91FF9052
:100B60000994DF91CF911F910F91FF9008951F93EA
:100B7000CF93DF93EC01162F8BE091E0998388836C
:100B80008FEF8A831B821C821D821E8218861F8221
:100B90001A8619861C861B8661E070E080E090E072
:100BA0000E948D12009759F098878F831A861986B4
:100BB0002B853C85232BE9F4FC0110821AC08F8120
:100BC0009885009711F00E94701118861F821C866C
:100BD0001B861A86198681E090E09E878D87188A89
:100BE0001F861A8360E0812FDF91CF911F910C94B3
:100BF00081091C861B8667EB72E00E946513EBCFB0
:100C000029E331E0DC0111963C932E9316968D91E9
:100C10009C911797009739F0DC01ED91FC910280CF
:100C2000F381E02D09940895CF93DF93EC010E94A6
:100C30000006CE01DF91CF910C9470118F929F929C
:100C4000AF92BF92CF92DF92EF92FF92CF93611556
:100C5000710509F403C2FB01C280D380FC018281CB
:100C6000C114D10409F49FC190910001981721F09B
:100C70009F3F09F0F3C104C0E8E6F0E0C4917DC0F5
:100C800080930001E8E6F0E0C491CF3F09F4E6C1AB
:100C9000C13029F1C23009F449C0C1116EC014BC81
:100CA00015BC94B5926094BD95B5916095BD282F03
:100CB00030E0F901E957FF4FE491F0E0EE0FFF1F3C
:100CC000E358FF4F459154915093EF024093EE0249
:100CD000F901E556FF4FE491E093ED0250C0109208
:100CE0008000109281009091810098609093810023
:100CF00090918100916090938100282F30E0F9015C
:100D0000E957FF4FE491F0E0EE0FFF1FE358FF4F6C
:100D1000459154915093EC024093EB02F901E55652
:100D2000FF4FE491E093EA02C1E029C01092B000C5
:100D30001092B1009091B00092609093B0009091A9
:100D4000B10091609093B100282F30E0F901E9578C
:100D5000FF4FE491F0E0EE0FFF1FE358FF4F459186
:100D600054915093F9024093F802F901E556FF4F70
:100D7000E491E093FA02C2E002C0C7FD6FC161E0F6
:100D80000E948109E12CF12C8C2F8D7F09F0A0C0ED
:100D900060E072E18AE790E0A70196010E94681284
:100DA00049015A01DA01C9010197A109B1098F3F2F
:100DB0009105A105B10509F00CF442C060E472E4AC
:100DC0008FE090E0A70196010E946812DA01C90144
:100DD0000197A109B109C230E1F48F3F9105A10546
:100DE000B10509F00CF438C160E970ED83E090E0E2
:100DF000A70196010E946812DA01C9010197A109B1
:100E0000B1098F3F9105A105B10509F08CF523E0EB
:100E100058C08F3F9105A105B105A1F09CF068E491
:100E200078EE81E090E0A70196010E946812DA0155
:100E3000C9010197A109B109CC2309F4EFC0E6C0AB
:100E400021E001C022E0CC2371F03BC0D501C401F8
:100E50002AE0B595A795979587952A95D1F701979B
:100E6000A109B10925E035B5387F232B25BD61C027
:100E700068E478EE81E090E0A70196010E94681294
:100E8000DA01C9010197A109B1098F3F9105A105B7
:100E9000B10509F00CF492C064E274EF80E090E0D8
:100EA000A70196010E946812DA01C9010197A10900
:100EB000B1098F3F9105A105B10511F008F080C07F
:100EC00025E03091B100387F232B2093B1002BC057
:100ED00060E072E18AE790E0A70196010E94681243
:100EE000DA01C9010197A109B1090097F1E0AF0743
:100EF000B10514F431E00EC068E478EE81E090E0D2
:100F0000A70196010E946812DA01C9010197A1099F
:100F1000B10933E0C13039F420918100287F232BBF
:100F20002093810018C0C130B1F0C23049F1C11125
:100F300095C087BD8FEF9FEFDC018093F402909303
:100F4000F502A093F602B093F70280916E008260E2
:100F500080936E0083C090938900809388008FEF08
:100F60009FEFDC018093F0029093F102A093F202D4
:100F7000B093F30280916F00826080936F006EC027
:100F80008093B3008FEF9FEFDC018093FB0290937F
:100F9000FC02A093FD02B093FE028091700082607B
:100FA000809370005BC0CF91FF90EF90DF90CF9067
:100FB000BF90AF909F908F900C94070A24E081CF50
:100FC00062E17AE780E090E0A70196010E94681252
:100FD000DA01C9010197A109B1098F3F9105A10566
:100FE000B10591F088F0D501C4013AE0B595A79517
:100FF000979587953A95D1F70197A109B109CC2327
:1010000009F430CF27E05DCF26E01DCF8F3F91055B
:10101000A105B10509F0A4F624E015CF8F3F910595
:10102000A105B105B9F0B4F062E17AE780E090E0A3
:10103000A70196010E946812DA01C9010197A1096E
:10104000B1098F3F9105A105B10511F008F0FECE61
:1010500024E009CF23E007CF22E033CFCF91FF90E8
:10106000EF90DF90CF90BF90AF909F908F900895BA
:101070000895089508950895CF92DF92EF92FF9218
:101080000F931F93CF93DF937C016C0187E0C80E11
:10109000D11CC0E0D0E0062F10E0B8010C2E02C039
:1010A000759567950A94E2F76170F60181916F0179
:1010B0000E9451092196C430D10579F7C701DF910B
:1010C000CF911F910F91FF90EF90DF90CF900C94F4
:1010D0004C04CF92DF92EF92FF920F931F93CF9326
:1010E000DF93EC01F62E642F8C810E9451098D81D3
:1010F0008F3F19F060E00E9451098F850F2D10E09D
:1011000084FF25C06E0187E0C80ED11CE12CF12CB4
:10111000B8010E2C02C0759567950A94E2F76170CC
:10112000F60181916F010E945109FFEFEF1AFF0A4A
:1011300088E0E816F10461F7CE01DF91CF911F91AD
:101140000F91FF90EF90DF90CF900C944C04B8017A
:1011500084E0759567958A95E1F7CE010E943C0879
:101160006F2DCE01DF91CF911F910F91FF90EF90E6
:10117000DF90CF900C943C0841E00E94690881E028
:1011800090E008950895833081F028F4813099F03B
:101190008230A1F008958730A9F08830B9F084300A
:1011A000D1F4809180008F7D03C0809180008F7783
:1011B00080938000089584B58F7702C084B58F7DB9
:1011C00084BD08958091B0008F7703C08091B000F6
:1011D0008F7D8093B00008952FB7F89460910C0331
:1011E00070910D0380910E0390910F032FBF08950E
:1011F000CF92DF92EF92FF920F931F93CF93DF93E3
:101200006C017A018B01C0E0D0E0CE15DF0589F0DA
:10121000D8016D918D01D601ED91FC910190F08185
:10122000E02DC6010995892B11F47E0102C021969B
:10123000ECCFC701DF91CF911F910F91FF90EF90FD
:10124000DF90CF9008950E94571382E493E00E94AC
:10125000BF0021E0892B09F420E0822F0895CF936D
:10126000DF93009779F0FC0101900020E9F73197B6
:10127000AF01481B590BBC0182E493E00E94F808BF
:10128000EC0102C0C0E0D0E042E050E065EB72E06B
:1012900082E493E00E94F8088C0F9D1FDF91CF91AC
:1012A00008951F93CF93DF93282F30E0F901E15584
:1012B000FF4F8491F901E556FF4FD491F901E957A9
:1012C000FF4FC491CC23C9F0162F81110E94C3088F
:1012D000EC2FF0E0EE0FFF1FE358FF4FA591B49104
:1012E0008FB7F894111105C09C91ED2FE095E9237B
:1012F00002C0EC91ED2BEC938FBFDF91CF911F914A
:101300000895CF93DF9390E0FC01E556FF4F2491C1
:10131000FC01E957FF4F8491882361F190E0880F29
:10132000991FFC01ED58FF4FC591D491FC01E35882
:10133000FF4FA591B491611109C09FB7F8948881BE
:10134000209582238883EC912E230BC0623061F4B8
:101350009FB7F8943881822F809583238883EC91FE
:101360002E2B2C939FBF06C08FB7F894E8812E2BAD
:1013700028838FBFDF91CF9108951F920F920FB6F0
:101380000F9211242F933F938F939F93AF93BF930B
:1013900080910C0390910D03A0910E03B0910F0367
:1013A00030910B0323E0230F2D3720F40196A11D6C
:1013B000B11D05C026E8230F0296A11DB11D209383
:1013C0000B0380930C0390930D03A0930E03B09333
:1013D0000F038091070390910803A0910903B09136
:1013E0000A030196A11DB11D809307039093080382
:1013F000A0930903B0930A03BF91AF919F918F917E
:101400003F912F910F900FBE0F901F9018959091C4
:101410000001981324C0E8E6F0E0E4919FEF909378
:101420000001E130B9F098F0E230C9F49091700019
:101430009D7F9093700091E09093B0009091B100E7
:10144000987F94609093B1001092B30008C01092FE
:101450006E0005C090916F009D7F90936F0060E0DB
:101460000C9451091F920F920FB60F9211242F93D3
:101470003F934F935F936F937F938F939F93AF931C
:10148000BF93EF93FF938091FB029091FC02A09198
:10149000FD02B091FE02892B8A2B8B2B51F180919A
:1014A000FA02E091F802F091F90290818927808395
:1014B0008091FB029091FC02A091FD02B091FE028E
:1014C000181619061A061B06C4F48091FB029091A7
:1014D000FC02A091FD02B091FE020197A109B109A1
:1014E0008093FB029093FC02A093FD02B093FE0256
:1014F00004C0809100010E94070AFF91EF91BF9103
:10150000AF919F918F917F916F915F914F913F919B
:101510002F910F900FBE0F901F901895DC01ED9149
:10152000FC910190F081E02D099484E193E00E9408
:101530005D038FED93E00C94AB03CF93DF93CDB7B6
:10154000DEB728970FB6F894DEBF0FBECDBF7894F4
:1015500084B5826084BD84B5816084BD85B58260B8
:1015600085BD85B5816085BD80916E008160809369
:101570006E001092810080918100826080938100D2
:1015800080918100816080938100809180008160E2
:10159000809380008091B10084608093B10080913D
:1015A000B00081608093B00080917A008460809365
:1015B0007A0080917A00826080937A0080917A002C
:1015C000816080937A0080917A00806880937A00AD
:1015D0001092C100E0915203F091530382E08083A6
:1015E000E0914E03F0914F031082E0915003F0918F
:1015F00051038FEC808310925A03E0915603F091CF
:10160000570386E08083E0915403F0915503808175
:1016100080618083E0915403F0915503808188605C
:101620008083E0915403F09155038081806880832A
:10163000E0915403F091550380818F7D808388EB86
:1016400092E00E942F0985E090E00E94DB107C016F
:1016500087E090E00E94DB108C0188E090E0D801E8
:1016600013969C938E93129715961C921E92149724
:1016700080E190E00E94DB10F80191838083D70124
:1016800013961C930E93129714961C9214978FE244
:1016900091E08D939C93F0920003E092FF026091A1
:1016A000110470911204C7010E940F0560910F048C
:1016B00070911004C7010E940F0560910D04709194
:1016C0000E04C7010E940F0560910B0470910C0479
:1016D000C7010E940F05E0910904F0910A04F58A00
:1016E000E48AD7011296ED91FC911397848195813C
:1016F000880F991F0190F081E02D8E0F9F1FE81732
:10170000F90739F0A191B1915096FC92EE921F9792
:10171000F6CF81E0F701848385EC92E00E942F09E7
:1017200088E090E00E94DB108C0149E3E42E41E068
:10173000F42EDC011196FC92EE9287E194E0139670
:101740009C938E93129758EEC52E53E0D52E159686
:10175000DC92CE92149788E090E00E94DB10FC01AE
:10176000F182E0821782168287E295E0938382837A
:10177000D582C482D8011796FC93EE93169782E126
:1017800090E00E94DB107C0181E491E0F7019183FD
:10179000808386E0828313821782168210861186E8
:1017A000128613861586148617870687118B008B81
:1017B00083E090E095838483F0920603E092050332
:1017C0000E94EC08F701608771878287938782E027
:1017D000838360897189C7010E941E0681ED92E0B2
:1017E0000E942F0980EE92E00E942F090E94EC08CF
:1017F00060930103709302038093030390930403A7
:1018000063E0C62ED12CAA24A394B12CE2E08E2E44
:10181000912CE0900503F0900603D70113968C916C
:101820008230B1F40E94EC08009101031091020390
:101830002091030330910403DC01CB01801B910B49
:10184000A20BB30B8C3D9540A105B10508F04FC12B
:10185000D70113968C91811116C00E94EC0800915B
:101860000103109102032091030330910403DC0172
:10187000CB01801B910BA20BB30B883B9B40A105B6
:10188000B10508F03FC1E090FF02F0900003D701DE
:101890001296ED91FC91139700811181D701129658
:1018A000ED91FC91139784819581880F991F208178
:1018B0003181820F931F0817190739F1F801219020
:1018C00031908F01D10112962C9130E0F901E15550
:1018D000FF4F8491F901E556FF4F7490F901E957E4
:1018E000FF4F6490662009F433C181110E94C30840
:1018F000E62DF0E0EE0FFF1FE759FF4FA591B491E1
:10190000EC917E2209F424C108C1009109041091D0
:101910000A04F801848522859385E22FF92FE80FC8
:10192000F11DE80FF11D20813181D80116964D91EE
:101930005D916D917C911997421B530B610971095F
:1019400016964D935D936D937C93199715968C9194
:101950008E3008F08E508770806480937C00809178
:101960007A00806480937A0080917A0086FDFCCFB3
:10197000809178002091790090E0922B9183808370
:10198000F801448522859385E22FF92FE40FF11D9C
:10199000E40FF11D20813181D80116964D905D90A4
:1019A0006D907C901997C301B201620F731F811D66
:1019B000911DF801668377838087918731E0340F2A
:1019C00034872481321708F0148630E040E050E07C
:1019D0000E944612D80112968D919C9113978217FE
:1019E000930769F0ED91FC910480F581E02DC80129
:1019F00029833A834B835C8309953A812981F801D5
:101A0000338322830091050310910603D8011396B6
:101A10008C91823009F068C00E94EC08F80124859E
:101A200035852901612C712C2085318542855385AE
:101A3000421A530A640A750ADC01CB01840D951D14
:101A4000A61DB71D20893189F9014481558160E0C7
:101A500070E084179507A607B70708F445C0D801BA
:101A60001D961C921E921C970E94EC08F80160873C
:101A70007187828793870088F189E02D668177815D
:101A80006115710531F0D80151967C936E93509792
:101A900017C0F801868197810196978386836685B2
:101AA00077858F3FFFEF9F0741F0D80114962D9166
:101AB0003C911597821793073CF4F801718B608B6A
:101AC000C8010E941E0610C0D80113961C921397DD
:101AD00051967C936E9350971D961C921E921C9764
:101AE00012968C910E94070A0E94550192CE0E9484
:101AF000EC086093010370930203809303039093B7
:101B00000403A6CE0E94EC086093010370930203C5
:101B10008093030390930403B6CEF10185859685E7
:101B2000019709F4BBCE0E94EC08D10113964D90A9
:101B30005D906D907C901697DC01CB01841995091E
:101B4000A609B709C397A105B10508F050C0A6CEF4
:101B5000D1011D968D919C911E97009719F50E94B9
:101B6000EC08F1014380548065807680DC01CB0174
:101B700084199509A609B709843F9140A105B105CB
:101B800008F48CCED1011D968D919C911E970397E0
:101B900009F484CE1E96DC92CE921D97C1010E945C
:101BA00082057CCE019709F079CE0E94EC08F10104
:101BB0004380548065807680DC01CB0184199509CF
:101BC000A609B709C397A105B10508F467CEF101CD
:101BD00016861586C1010E9482050E94EC08D1017B
:101BE00013966D937D938D939C93169757CEF10129
:101BF00085859685892B31F4F10196868586C1010C
:101C00000E948205D1011E96BC92AE921D97C10121
:101C10000E9482050E94EC08F1016383748385832E
:101C200096833CCECF92DF92EF92FF92CF93DF93D9
:101C300082E493E0109245031092440348EE53E08F
:101C400060E070E04093460350934703609348037D
:101C50007093490321E731E030934303209342031B
:101C600025EC30E030934F0320934E0324EC30E01A
:101C7000309351032093500320EC30E03093530312
:101C80002093520321EC30E030935503209354030A
:101C900022EC30E0309357032093560326EC30E0DB
:101CA000309359032093580310925B0310925C0306
:101CB00010925D0310925E0361E270E07093F7038F
:101CC0006093F6031092F8031092F9031092FA034E
:101CD00026E0C22ED12CE12CF12CC092FB03D09235
:101CE000FC03E092FD03F092FE031092FF031092BA
:101CF0000004109201041092020440E24093030495
:101D000010920504109204041092080421EE33E0AE
:101D1000309307042093060421E132E03093E0037E
:101D20002093DF032BE132E03093F4032093F3039D
:101D30001092E5031092E4031092E7031092E60379
:101D40001092E9031092E8031092EB031092EA0359
:101D50001092ED031092EC031092EF031092EE0339
:101D60002FEE31E03093E2032093E1039093F203EE
:101D70008093F10350E15093F0037093300360932C
:101D80002F03109231031092320310923303C0924A
:101D90003403D0923503E0923603F0923703109269
:101DA00038031092390310923A0310923B03409388
:101DB0003C0310923E0310923D0310924103109297
:101DC00016031092170310921803109219034AE198
:101DD00053E05093400340933F0349E951E050934F
:101DE00015034093140343EA51E050932D034093AD
:101DF0002C0310921E0310921D03109220031092C8
:101E00001F031092220310922103109224031092B8
:101E10002303109226031092250310922803109298
:101E2000270330931B0320931A0390932B03809373
:101E30002A0328E02093290310921303109212031F
:101E4000909311038093100363E872E08BE992E0B2
:101E50000E947410909313038093120381E190E029
:101E60000E94DB10EC016EE00E94B705D0931204D3
:101E7000C093110481E190E00E94DB10EC016FE05F
:101E80000E94B705D0931004C0930F0481E190E045
:101E90000E94DB10EC0160E10E94B705D0930E04B4
:101EA000C0930D0481E190E00E94DB10EC0161E140
:101EB0000E94B705D0930C04C0930B0486E190E018
:101EC0000E94DB10EC018FE392E0998388831B82F0
:101ED0001A8285E08D831E821F82188619861C86D1
:101EE0001E861D868CE090E00E94DB108A879B870F
:101EF00026E02C83FC010C96E817F90719F01192E3
:101F00001192FACF89E492E0998388831F861D8A13
:101F10001C8A8EE190E0998B888B82E390E09B8B0A
:101F20008A8BD0930A04C09309041092160410926D
:101F300015048BE292E090931404809313048CE0D8
:101F4000809317048FEF809318048BE0809319041B
:101F500085E080931A0484E080931B0483E08093DF
:101F60001C0482E080931D0410921E0410921F0432
:101F700010922004109221041092220481E0809398
:101F800026041092270480E48093280480E1809343
:101F9000290480E580932A0461E08CE00E94810995
:101FA000809118048F3F19F061E00E94810961E07F
:101FB000809119040E948109C0E0D0E08091220440
:101FC00084FD03C084E090E002C088E090E0C81780
:101FD000D9074CF4FE01ED5EFB4F61E087810E9462
:101FE00081092196EBCF8BE39DE00197F1F760E04B
:101FF000809117040E94510960E0809119040E94A9
:102000005109809118048F3F19F060E00E94510936
:102010006091220464FD20C063E083E194E00E94AB
:102020003C08CBE4D6E4CE010197F1F763E083E10D
:1020300094E00E943C082197F1F763E083E194E08B
:102040000E943C0883E592E00197F1F762E083E1AA
:1020500094E00E943C081EC0606240E083E194E08E
:102060000E9469088BE496E40197F1F760912204DD
:10207000606240E083E194E00E94690883E592E0B9
:102080000197F1F760912204606240E083E194E0FF
:102090000E94690860912204606240E083E194E05C
:1020A0000E94690884E08093230440E06CE083E1AF
:1020B00094E00E94690840E061E083E194E00E94BE
:1020C00069088BE39FE10197F1F782E08093240494
:1020D00040E066E083E194E0DF91CF91FF90EF90E4
:1020E000DF90CF900C9469080F931F93CF93DF93E9
:1020F000009731F46115710519F480E090E03AC061
:102100008B01EC016EE070E081E090E00E94BF1076
:10211000FC01892B91F380E883830115110571F08F
:102120001387028781E8838380912B0490912C048C
:10213000892B21F4F0932C04E0932B042097C9F011
:10214000D187C08783818260838380912D049091A1
:102150002E04892B71F4F0932E04E0932D048091CA
:102160002F0490913004892B21F4F0933004E093F4
:102170002F04CF01DF91CF911F910F9108950F93FD
:102180001F93CF93DF93869F8001879F100D969FAB
:10219000100D1124C8010E94DB10EC01009729F0FA
:1021A000A80160E070E00E940812CE01DF91CF919B
:1021B0001F910F910895CF93DF938230910510F412
:1021C00082E090E0E0913304F091340420E030E0CC
:1021D000C0E0D0E0309711F1408151814817590794
:1021E000C0F04817590761F482819381209719F054
:1021F0009B838A832BC0909334048093330426C03E
:102200002115310519F04217530718F49A01BE0140
:10221000DF01EF010280F381E02DDCCF21153105D4
:1022200009F1281B390B2430310590F412968D9159
:102230009C9113976115710521F0FB0193838283B3
:1022400004C09093340480933304FD01329644C05B
:10225000FD01E20FF31F81939193225031092D93D9
:102260003C933AC02091310430913204232B41F445
:102270002091030130910401309332042093310402
:1022800020910101309102012115310541F42DB752
:102290003EB74091050150910601241B350BE0919A
:1022A0003104F0913204E217F307A0F42E1B3F0B28
:1022B0002817390778F0AC014E5F5F4F24173507B8
:1022C00048F04E0F5F1F50933204409331048193C6
:1022D000919302C0E0E0F0E0CF01DF91CF9108954B
:1022E0000F931F93CF93DF93009709F48CC0FC01E9
:1022F0003297138212820091330410913404011535
:10230000110581F420813181820F931F20913104C6
:10231000309132042817390779F5F0933204E093AD
:10232000310471C0D80140E050E0AE17BF0750F44F
:1023300012962D913C911397AD012115310509F1AC
:10234000D901F3CF9D01DA0133832283608171814A
:10235000860F971F8217930769F4EC012881398152
:10236000260F371F2E5F3F4F318320838A819B8149
:1023700093838283452B29F4F0933404E093330450
:1023800042C01396FC93EE931297ED014991599137
:102390009E01240F351FE217F30771F480819181AC
:1023A000840F951F029611969C938E938281938140
:1023B00013969C938E931297E0E0F0E0D80112966A
:1023C0008D919C911397009719F0F8018C01F6CF2D
:1023D0008D919C9198012E5F3F4F820F931F20910A
:1023E0003104309132042817390769F4309729F401
:1023F000109234041092330402C01382128210939C
:10240000320400933104DF91CF911F910F91089511
:10241000DC0101C06D9341505040E0F708952F92C8
:102420003F924F925F926F927F928F929F92AF9264
:10243000BF92CF92DF92EF92FF920F931F93CF93B1
:10244000DF93CDB7DEB7CA1BDB0B0FB6F894DEBF48
:102450000FBECDBF09942A88398848885F846E846E
:102460007D848C849B84AA84B984C884DF80EE80B8
:10247000FD800C811B81AA81B981CE0FD11D0FB6C1
:10248000F894DEBF0FBECDBFED010895A1E21A2E74
:10249000AA1BBB1BFD010DC0AA1FBB1FEE1FFF1F08
:1024A000A217B307E407F50720F0A21BB30BE40B58
:1024B000F50B661F771F881F991F1A9469F760959F
:1024C0007095809590959B01AC01BD01CF01089559
:1024D000052E97FB1EF400940E947F1257FD07D033
:1024E0000E94461207FC03D04EF40C947F125095C4
:1024F0004095309521953F4F4F4F5F4F08959095F0
:102500008095709561957F4F8F4F9F4F0895EE0F87
:10251000FF1F0590F491E02D0994A0E0B0E0E3E9FD
:10252000F2E10C941312EC01009721F4CB010E940C
:10253000DB10B8C0FC01E60FF71F9C0122503109E7
:10254000E217F30708F4ACC0D9010D911C91119763
:1025500006171707B0F00530110508F49FC0C80131
:1025600004978617970708F499C002501109061BB3
:10257000170B019311936D937C93CF010E947011FF
:102580008DC05B01A01AB10A4C01800E911EA09172
:102590003304B091340440E050E0E12CF12C10976A
:1025A00009F44AC0A815B905D1F56D907C90119732
:1025B000630182E0C80ED11CCA14DB0480F1A301C0
:1025C0004A195B096A0182E0C80ED11C1296BC90C0
:1025D00012971396AC91B5E0CB16D10440F0B282BD
:1025E000A38351834083D9016D937C930AC00E5F0E
:1025F0001F4FC301800F911FF90191838083EB2D41
:10260000FA2FE114F10431F0D7011396FC93EE9305
:10261000129744C0F0933404E09333043FC08D918B
:102620009C9111974817590708F4AC017D01129647
:102630000D90BC91A02DB3CF8091310490913204C4
:1026400088159905E1F446175707C8F480910101F0
:1026500090910201009741F48DB79EB7409105011A
:1026600050910601841B950BE817F907C8F4F09305
:102670003204E0933104F901718360830FC0CB0110
:102680000E94DB107C01009759F0A801BE010E9456
:102690005C13CE010E947011C70104C0CE0102C0BC
:1026A00080E090E0CDB7DEB7EEE00C942F1281E031
:1026B00090E0F8940C946C13FB01DC0102C00190D3
:1026C0000D9241505040D8F70895FB01DC01019074
:1026D0000D920020E1F7089510E0C3E6D0E004C0B9
:1026E000FE010E9487122196C436D107C9F7F894DB
:0226F000FFCF1A
:1026F200FF0000350480000000000021032A0300CF
:1027020000000071013603000000000000000023F9
:10271200090000000000000000230900000000C2C0
:10272200081B0362040000000000061406000000FB
:10273200003808340318000000000000000000E820
:10274200FFE8FF000000000000140000000000008D
:10275200000000ECFFECFF000000000000000000A1
:1027620000EC00F8088E003301BF009D00B10006A6
:1027720000000000003C033E03FAFFFAFF00003DA8
:102782000340031800000000005D037403E8FFE843
:10279200FF00006A037E0399014B015501A301006A
:1027A20000000039083A0382027F027C0279027635
:1027B20002ED01E901E601D001F0017401720102AA
:1027C20000000000008A038C03FEFFFEFF00008B66
:1027D200038E03000000003B08D603000000003A0D
:1027E20008880382027F027C02790276026A02244E
:1027F200020B02F201F001F903D8031400000000F9
:1028020000AB03C203ECFFECFF0000B803CC0311E2
:10281200025F0169011B0200000000BC08F808C148
:1028220002C002000000000E053803000000000D87
:10283200051F035F01000000000C051D03F9026F74
:102842006E436173654F70656E006F6E43617365B1
:10285200436C6F7365006F6E4261636B006F6E5203
:10286200657475726E006F6E456E746572006F6E80
:102872004F4B006F6E466F7277617264006F6E46E7
:10288200617374466F7277617264006F6E42616346
:102892006B77617264006F6E466173744261636B41
:1028A20077617264000D0A005374617274696E6715
:1028B200202E2E2E0047554920696E69742E2E2E29
:1028C2000042757A7A657220696E69742E2E2E0026
:0A28D2005374617274656421000004
:00000001FF
