:100000000C9464000C948C000C948C000C948C0068
:100010000C948C000C948C000C948C000C94F308C1
:100020000C948C000C948C000C948C000C948C0020
:100030000C948C000C948C000C948C000C948C0010
:100040000C94A6090C948C000C94A9070C948307BB
:100050000C948C000C948C000C948C000C948C00F0
:100060000C948C000C948C000000000024002700ED
:100070002A0000000000250028002B0002000000DC
:1000800000230026002900040404040404040402DC
:100090000202020202030303030303010204081025
:1000A00020408001020408102001020408102000F2
:1000B0000000080002010000030407000000000027
:1000C000000000006D0DF00911241FBECFEFD8E035
:1000D000DEBFCDBF12E0A0E0B1E0E8EFF3E202C086
:1000E00005900D92AE3DB107D9F724E0AEEDB2E038
:1000F00001C01D92A131B207E1F710E0C3E6D0E0E4
:1001000004C02197FE010E940A11C236D107C9F727
:100110000E94F8090C94EF110C94000029E331E0DF
:10012000DC0111963C932E9316968D919C91179716
:10013000009739F0DC01ED91FC910280F381E02D14
:1001400009940895CB0108957F928F929F92AF9268
:10015000BF92CF92DF92EF92FF920F931F93CF93B4
:10016000DF93EC0149015A018B01C12CD12C76019E
:10017000C814D904EA04FB0484F5F80171908F01D6
:100180008F8580FF0BC0E881F9810084F185E02D27
:1001900020E144E060E070E0CE010995EB85FC854C
:1001A0008D859E85E817F90738F470828B859C85CC
:1001B00001969C878B870BC0E881F981672D70E0E1
:1001C000028CF38DE02DCE010995019649F02FEFB9
:1001D000C21AD20AE20AF20ACBCFB401C50102C0A8
:1001E000B601C701DF91CF911F910F91FF90EF9062
:1001F000DF90CF90BF90AF909F908F907F900895A9
:10020000CF93DF93EC01E881F9810288F389E02D37
:1002100009958F3F2FEF920731F02D813E812F5F9F
:100220003F4F3E832D83DF91CF9108958FEF9FEF56
:10023000089560E070E0CB01089580E090E00895BB
:10024000CB010895CF93DF93EC0188899989DC0174
:10025000ED91FC910084F185E02D0995892BA9F39E
:1002600088899989DC01ED91FC910284F385E02D68
:10027000DF91CF910994CF93DF93EC01888999891D
:10028000DC01ED91FC910084F185E02D0995892B2D
:10029000A9F388899989DC01ED91FC910484F585A5
:1002A000E02DDF91CF910994AF92BF92CF92DF9270
:1002B000EF92FF920F931F93CF93DF9300D000D064
:1002C000CDB7DEB78C015B01C12CD12C7601F801D2
:1002D00080899189DC01ED91FC910284F385E02D08
:1002E00029833A834B835C83099529813A814B8129
:1002F0005C818F3F71F0C216D306E406F5064CF41C
:10030000D5018D935D01BFEFCB1ADB0AEB0AFB0A27
:10031000DECFC701B6010F900F900F900F90DF91C5
:10032000CF911F910F91FF90EF90DF90CF90BF90F2
:10033000AF900895DC0150968D919C915197DC010E
:10034000ED91FC910084F185E02D099480E090E02E
:10035000089580E090E0089580E090E0089580E0C6
:1003600090E008950895CF93DF93C091FB02D09160
:10037000FC02E881F9810084F185E02DCE01099528
:10038000892BB9F3E881F9810284F385E02DCE0150
:10039000DF91CF9109941F93CF93DF93182FC091D2
:1003A000FB02D091FC028A3041F4E881F98101908E
:1003B000F081E02D6DE0CE010995E881F981019091
:1003C000F081E02D612FCE01099521E030E0019709
:1003D00011F420E030E0C901DF91CF911F91089521
:1003E000089580E090E008950C94F30F0C94F30FBF
:1003F0000C94F30F0C94F30F0C94F30F08950895DD
:100400000C94F30FDC01ED91FC9136972081318142
:10041000820F931F0C940002FB0120813181FC01AB
:1004200031832083FB0142815381F901369720817A
:100430003181FC01E20FF31F51834083089529E9C4
:1004400031E0FC013183208323EA31E0318F208FBA
:1004500069EA71E00C940C02DC01ED91FC91369795
:1004600020813181820F931F0C941F02CF93DF9361
:10047000EC010E941F02CE01DF91CF910C94F30F8B
:10048000DC01ED91FC91369720813181820F931F21
:100490000C9436020C94F30F089508950C94F30F06
:1004A000DC01ED91FC91369720813181820F931F01
:1004B0000C944E02FB0120813181FC0131832083A9
:1004C000FB0142815381F901369720813181FC0182
:1004D000E20FF31F51834083089521E132E0FC01D4
:1004E000318320832BE132E0358B248B61E272E093
:1004F0000C945A02DC01ED91FC91369720813181F8
:10050000820F931F0C946D02CF93DF93EC010E9436
:100510006D02CE01DF91CF910C94F30FDC01ED91D0
:10052000FC91369720813181820F931F0C948402B5
:100530000C94F30F0F931F93CF93DF938C01EB0178
:100540006F3F8FEF780719F480E090E00FC06A30BA
:1005500031F46DE0F801808991890E947C076C2F4D
:10056000F801808991890E947C07CE01DF91CF91AB
:100570001F910F9108958F929F92BF92CF92DF9219
:10058000EF92FF920F931F93CF93DF9300D000D091
:10059000CDB7DEB78C014B01C12CD12C7601C21630
:1005A000D306E406F50644F5F401B1904F01FAE0F4
:1005B000BF120EC06DE0F8018089918929833A83CA
:1005C0004B835C830E947C075C814B813A8129814B
:1005D0006B2DF8018089918929833A834B835C8351
:1005E0000E947C07FFEFCF1ADF0AEF0AFF0A5C8147
:1005F0004B813A812981D3CFCA01B9010F900F9065
:100600000F900F90DF91CF911F910F91FF90EF907E
:10061000DF90CF90BF909F908F90089561157105E6
:1006200009F44DC0DB011296ED91FC9113972281E4
:1006300014968C91853049F48785882319F083E4DA
:1006400092E03BC08EE492E038C0858596852F30DD
:10065000A1F018F42E3031F008952031C9F0213185
:1006600011F108958230910519F48AE592E025C0D0
:10067000039729F581E692E020C08230910519F4B4
:100680008AE692E01AC00397D1F482E792E015C09F
:100690008230910519F487E792E00FC0039779F44F
:1006A00081E892E00AC08230910519F48FE892E067
:1006B00004C0039721F48AE992E00C944F0908954D
:1006C0008F929F92AF92BF92CF92DF92EF92FF9262
:1006D000CF936115710509F41EC2FB01C280D3805E
:1006E000FC018281C114D10409F4BAC190910001C6
:1006F000981721F09F3F09F00EC204C0ECE7F0E02C
:10070000C4917DC080930001ECE7F0E0C491CF3F3D
:1007100009F401C2C13029F1C23009F449C0C11144
:100720006EC014BC15BC94B5926094BD95B5916033
:1007300095BD282F30E0F901E957FF4FE491F0E033
:10074000EE0FFF1FEE58FF4F459154915093E30277
:100750004093E202F901E556FF4FE491E093E10294
:1007600050C010928000109281009091810098609A
:100770009093810090918100916090938100282F47
:1007800030E0F901E957FF4FE491F0E0EE0FFF1F71
:10079000EE58FF4F459154915093E0024093DF0291
:1007A000F901E556FF4FE491E093DE02C1E029C074
:1007B0001092B0001092B1009091B00092609093AE
:1007C000B0009091B10091609093B100282F30E07B
:1007D000F901E957FF4FE491F0E0EE0FFF1FEE58EB
:1007E000FF4F459154915093ED024093EC02F90173
:1007F000E556FF4FE491E093EE02C2E002C0C7FD70
:100800008AC190E0FC01E556FF4F2491FC01E957B5
:10081000FF4F8491882399F090E0880F991FFC0185
:10082000E859FF4FA591B491FC01EE58FF4F859117
:1008300094918FB7F894EC91E22BEC938FBFE12C5D
:10084000F12C8C2F8D7F09F0A0C060E072E18AE767
:1008500090E0A70196010E94EB1049015A01DA01CC
:10086000C9010197A109B1098F3F9105A105B10502
:1008700009F00CF442C060E472E48FE090E0A7015C
:1008800096010E94EB10DA01C9010197A109B10993
:10089000C230E1F48F3F9105A105B10509F00CF4D8
:1008A00038C160E970ED83E090E0A70196010E94F5
:1008B000EB10DA01C9010197A109B1098F3F910538
:1008C000A105B10509F08CF523E058C08F3F9105D3
:1008D000A105B105A1F09CF068E478EE81E090E01C
:1008E000A70196010E94EB10DA01C9010197A10945
:1008F000B109CC2309F4C1C004C121E001C022E048
:10090000CC2371F03BC0D501C4012AE0B595A79571
:10091000979587952A95D1F70197A109B10925E007
:1009200035B5387F232B25BD61C068E478EE81E0C2
:1009300090E0A70196010E94EB10DA01C90101972E
:10094000A109B1098F3F9105A105B10509F00CF48A
:1009500092C064E274EF80E090E0A70196010E94EB
:10096000EB10DA01C9010197A109B1098F3F910587
:10097000A105B10511F008F09EC025E03091B1004D
:10098000387F232B2093B1002BC060E072E18AE70F
:1009900090E0A70196010E94EB10DA01C9010197CE
:1009A000A109B1090097F1E0AF07B10514F431E0F6
:1009B0000EC068E478EE81E090E0A70196010E9405
:1009C000EB10DA01C9010197A109B10933E0C13087
:1009D00039F420918100287F232B2093810018C0B7
:1009E000C130B1F0C23049F1C11195C087BD8FEF60
:1009F0009FEFDC018093E8029093E902A093EA0262
:100A0000B093EB0280916E00826080936E0083C091
:100A100090938900809388008FEF9FEFDC01809393
:100A2000E4029093E502A093E602B093E70280917E
:100A30006F00826080936F006EC08093B3008FEF71
:100A40009FEFDC018093EF029093F002A093F102FC
:100A5000B093F202809170008260809370005BC05E
:100A6000CF91FF90EF90DF90CF90BF90AF909F908D
:100A70008F900C942C0724E081CF8F3F9105A10526
:100A8000B105B9F0B4F062E17AE780E090E0A70147
:100A900096010E94EB10DA01C9010197A109B10981
:100AA0008F3F9105A105B10511F008F02CCF24E08E
:100AB00037CF23E035CF62E17AE780E090E0A7010D
:100AC00096010E94EB10DA01C9010197A109B10951
:100AD0008F3F9105A105B10591F088F0D501C401C2
:100AE0003AE0B595A795979587953A95D1F70197EF
:100AF000A109B109CC2309F412CF27E03FCF26E0AA
:100B0000FFCE8F3F9105A105B10509F0A4F624E0C1
:100B1000F7CE22E033CFCF91FF90EF90DF90CF90D0
:100B2000BF90AF909F908F90089508950895089575
:100B30000895089508950895CF92DF92EF92FF925D
:100B40000F931F93CF93DF936C017A018B01C0E069
:100B5000D0E0CE15DF0589F0D8016D918D01D60169
:100B6000ED91FC910190F081E02DC6010995892B52
:100B700011F47E0102C02196ECCFC701DF91CF9125
:100B80001F910F91FF90EF90DF90CF900895FC019F
:100B9000538D448D252F30E0842F90E0821B930BE2
:100BA000541710F0CF96089501970895FC01918D88
:100BB000828D981761F0828DDF01A80FB11D5D96BF
:100BC0008C91928D9F5F9F73928F90E008958FEF2D
:100BD0009FEF0895FC01918D828D981731F0828DE1
:100BE000E80FF11D858D90E008958FEF9FEF089538
:100BF000FC01918D228D892F90E0805C9F4F821B9C
:100C000091098F73992708958DE293E00E94F8056A
:100C100021E0892B09F420E0822F0895FC01848DC6
:100C2000DF01A80FB11DA35ABF4F2C91848D90E016
:100C300001968F739927848FA689B7892C93A089F1
:100C4000B1898C9180648C93938D848D981306C0A8
:100C50000288F389E02D80818F7D80830895EF9253
:100C6000FF920F931F93CF93DF93EC0181E0888F66
:100C70009B8D8C8D981305C0E889F989808185FD4D
:100C800024C0F62E0B8D10E00F5F1F4F0F7311273E
:100C9000E02E8C8DE8120CC00FB607FCFACFE88965
:100CA000F989808185FFF5CFCE010E940E06F1CF34
:100CB0008B8DFE01E80FF11DE35AFF4FF0820B8F81
:100CC000EA89FB898081806207C0EE89FF896083A1
:100CD000E889F98980818064808381E090E0DF91F8
:100CE000CF911F910F91FF90EF900895CF93DF93D5
:100CF000EC01888D8823C9F0EA89FB89808185FD14
:100D000005C0A889B9898C9186FD0FC00FB607FC74
:100D1000F5CF808185FFF2CFA889B9898C9185FFB5
:100D2000EDCFCE010E940E06E7CFDF91CF9108955F
:100D300080E090E0892B29F00E94040681110C9438
:100D400000000895FC01A585B685109761F0ED912E
:100D5000FC911197AC014E5F5F4F0480F581E02D4F
:100D6000BC01CD0109940895FF920F931F93CF9377
:100D7000DF93EC010C891D890115110521F1FD801E
:100D800087E090E00E945E0FDC0183E191E0119624
:100D90009C938E9316961C921E9215971396DC9335
:100DA000CE9312971496FC921497E801E881F9818A
:100DB0000480F581E02DBD01C801DF91CF911F9125
:100DC0000F91FF900994DF91CF911F910F91FF90A8
:100DD0000895CF93DF93EC010E94A2064F85888986
:100DE00099892A813B8141110AC04A895B89840F14
:100DF000951F2817390760F081E08F8704C082179C
:100E0000930730F01F86CE01DF91CF910C94B4068A
:100E1000DF91CF9108950C94F30F0C94F30F2BE016
:100E200031E0FC0131832083878190850C94F30F9E
:100E3000CF93DF93EC010E940F07CE01DF91CF919A
:100E40000C94F30FCF93DF93EC010E948E00CE0140
:100E5000DF91CF910C94F30FCF93DF93909100012A
:100E6000981324C0ECE7F0E0E4919FEF9093000129
:100E7000E130B9F098F0E230C9F4909170009D7FB4
:100E80009093700091E09093B0009091B100987FA2
:100E900094609093B1001092B30008C010926E005D
:100EA00005C090916F009D7F90936F00282F30E0D8
:100EB000F901E155FF4F8491F901E556FF4FD491B7
:100EC000F901E957FF4FC491CC2399F081110E9499
:100ED0007109EC2FF0E0EE0FFF1FEE58FF4FA591C8
:100EE000B4918FB7F8949C91ED2FE095E923EC93A2
:100EF0008FBFDF91CF910895DC01ED91FC910190BE
:100F0000F081E02D09941F920F920FB60F921124D9
:100F10002F933F934F935F936F937F938F939F9301
:100F2000AF93BF93EF93FF938DE293E00E940E0681
:100F3000FF91EF91BF91AF919F918F917F916F91B1
:100F40005F914F913F912F910F900FBE0F901F9087
:100F500018951F920F920FB60F9211242F938F9313
:100F60009F93EF93FF93E0913D03F0913E038081C7
:100F7000E0914303F091440382FD12C0908180917F
:100F800046038F5F8F7320914703821751F0E091E2
:100F90004603F0E0E35DFC4F958F8093460301C06C
:100FA0008081FF91EF919F918F912F910F900FBEB4
:100FB0000F901F90189508950895AF92BF92CF9209
:100FC000DF92EF92FF920F931F93CF93DF93FC0179
:100FD0002481222319F0FB01908B8787FC01C281B9
:100FE000D381EC80FD8087010F5F1F4FE016F10673
:100FF00008F046C06B018A819B818017910760F5DC
:101000009701275F3F4F8217930730F5A880B9807B
:101010003B832A83C901880F991F0E945E0F998321
:101020008883D50140E050E04E155F0591F0E881DE
:10103000F9819A01220F331FE20FF31F309729F035
:101040008D919C911197918380834F5F5F4F129692
:10105000EBCFC5010E94F30F8C819D819C01220F73
:10106000331F8017910778F4E881F981E20FF31FAD
:10107000309711F0D182C08201962E5F3F4FF1CFA1
:101080000E151F0510F41D830C83DF91CF911F9166
:101090000F91FF90EF90DF90CF90BF90AF900895A9
:1010A000FF920F931F93CF93DF93EC010F85188965
:1010B0000115110521F1FA8087E090E00E945E0F92
:1010C000DC0183E191E011969C938E9316961C921D
:1010D0001E9215971396DC93CE9312971496FC925A
:1010E0001497E801E881F9810480F581E02DBD01C4
:1010F000C801DF91CF911F910F91FF900994DF916B
:10110000CF911F910F91FF9008951F93CF93DF937D
:10111000EC01162F8BE091E0998388838FEF8A830F
:101120001B821C821D821E8218861F821A861986C7
:101130001C861B8661E070E080E090E00E94101148
:10114000009761F098878F831A8619862B853C85D6
:10115000232B09F03BC0FC01108238C08F81988599
:10116000009711F00E94F30F18861F821C861B86C1
:101170001A86198681E090E09E878D87188A1F86DF
:101180001A83612F70E0FB01E556FF4F2491FB01AC
:10119000E957FF4F8491882301F190E0880F991F50
:1011A000FC01E859FF4FC591D491FC01EE58FF4F67
:1011B000A591B4919FB7F8948881E22FE0958E2392
:1011C00088838C91E823EC939FBF07C01C861B8605
:1011D0006CED72E00E94E811CDCFDF91CF911F91AD
:1011E00008950E94DA111F920F920FB60F921124E8
:1011F0002F933F934F935F936F937F938F939F931F
:10120000AF93BF93EF93FF938091EF029091F00221
:10121000A091F102B091F202892B8A2B8B2B51F114
:101220008091EE02E091EC02F091ED02908189272D
:1012300080838091EF029091F002A091F102B09131
:10124000F202181619061A061B06C4F48091EF0262
:101250009091F002A091F102B091F2020197A109E0
:10126000B1098093EF029093F002A093F102B09342
:10127000F20204C0809100010E942C07FF91EF91BF
:10128000BF91AF919F918F917F916F915F914F919E
:101290003F912F910F900FBE0F901F901895CF93F5
:1012A000DF93009779F0FC0101900020E9F7319776
:1012B000AF01481B590BBC018DE293E00E949C05D5
:1012C000EC0102C0C0E0D0E042E050E06AED72E024
:1012D0008DE293E00E949C058C0F9D1FDF91CF91C2
:1012E0000895833081F028F4813099F08230A1F0A4
:1012F00008958730A9F08830B9F08430D1F4809116
:1013000080008F7D03C0809180008F778093800064
:10131000089584B58F7702C084B58F7D84BD08950C
:101320008091B0008F7703C08091B0008F7D809353
:10133000B00008952FB7F8946091030470910404ED
:1013400080910504909106042FBF08951F920F927B
:101350000FB60F9211242F933F938F939F93AF93C8
:10136000BF938091030490910404A0910504B0916F
:1013700006043091020423E0230F2D3720F4019658
:10138000A11DB11D05C026E8230F0296A11DB11DA8
:10139000209302048093030490930404A093050413
:1013A000B09306048091FE039091FF03A091000486
:1013B000B09101040196A11DB11D8093FE0390938D
:1013C000FF03A0930004B0930104BF91AF919F91DC
:1013D0008F913F912F910F900FBE0F901F901895F6
:1013E0008FEF92E00E941F028AEC93E00C946D0252
:1013F000CF93DF93CDB7DEB728970FB6F894DEBF53
:101400000FBECDBF789484B5826084BD84B5816001
:1014100084BD85B5826085BD85B5816085BD8091BF
:101420006E00816080936E00109281008091810037
:10143000826080938100809181008160809381002F
:10144000809180008160809380008091B1008460F1
:101450008093B1008091B00081608093B000809152
:101460007A00846080937A0080917A008260809311
:101470007A0080917A00816080937A0080917A006E
:10148000806880937A001092C100E0913D03F09152
:101490003E0382E08083E0913903F0913A031082A9
:1014A000E0913B03F0913C038FEC80831092450365
:1014B000E0914103F091420386E08083E0913F0395
:1014C000F0914003808180618083E0913F03F0913F
:1014D0004003808188608083E0913F03F091400366
:1014E000808180688083E0913F03F0914003808198
:1014F0008F7D808389EA92E00E944F0985E090E029
:101500000E945E0F7C0187E090E00E945E0F8C01DC
:1015100088E090E0D80113969C938E9312971596CD
:101520001C921E92149780E190E00E945E0FF801D9
:1015300091838083D70113961C930E931297149670
:101540001C9214978FE291E08D939C93F092F40299
:10155000E092F3026091FC037091FD03C7010E94C9
:10156000DD076091FA037091FB03C7010E94DD075C
:101570006091F8037091F903C7010E94DD07609143
:10158000F6037091F703C7010E94DD07E091F403B1
:10159000F091F503F58AE48AD7011296ED91FC915A
:1015A000139784819581880F991F0190F081E02D18
:1015B0008E0F9F1FE817F90739F0A191B19150964E
:1015C000FC92EE921F97F6CF81E0F701848386EBC1
:1015D00092E00E944F0988E090E00E945E0F8C012B
:1015E00049E3E42E41E0F42EDC011196FC92EE92E8
:1015F00087E194E013969C938E93129758EEC52E34
:1016000053E0D52E1596DC92CE92149788E090E0A8
:101610000E945E0FFC01F182E0821782168287E24F
:1016200095E093838283D582C482D8011796FC9378
:10163000EE93169782E190E00E945E0F7C0181E4B8
:1016400091E0F7019183808386E082831382178281
:1016500016821086118612861386158614861787C1
:101660000687118B008B83E090E095838483F09252
:10167000FA02E092F9020E949A09F70160877187E5
:101680008287938782E0838360897189C7010E9482
:10169000600382EC92E00E944F0981ED92E00E948B
:1016A0004F090E949A096093F5027093F6028093A5
:1016B000F7029093F80263E0C62ED12CAA24A394DB
:1016C000B12CE2E08E2E912CE090F902F090FA021B
:1016D000D70113968C918230B1F40E949A0900913F
:1016E000F5021091F6022091F7023091F802DC0128
:1016F000CB01801B910BA20BB30B8C3D9540A10538
:10170000B10508F04FC1D70113968C91811116C015
:101710000E949A090091F5021091F6022091F702B9
:101720003091F802DC01CB01801B910BA20BB30BB3
:10173000883B9B40A105B10508F03FC1E090F30252
:10174000F090F402D7011296ED91FC91139700816D
:101750001181D7011296ED91FC91139784819581A7
:10176000880F991F20813181820F931F0817190755
:1017700039F1F801219031908F01D10112962C910D
:1017800030E0F901E155FF4F8491F901E556FF4F33
:101790007490F901E957FF4F6490662009F433C152
:1017A00081110E947109E62DF0E0EE0FFF1FE35852
:1017B000FF4FA591B491EC917E2209F424C108C198
:1017C0000091F4031091F503F80184852285938537
:1017D000E22FF92FE80FF11DE80FF11D2081318173
:1017E000D80116964D915D916D917C911997421B90
:1017F000530B6109710916964D935D936D937C931C
:10180000199715968C918E3008F08E5087708064F1
:1018100080937C0080917A00806480937A0080912C
:101820007A0086FDFCCF809178002091790090E0CD
:10183000922B91838083F801448522859385E22F42
:10184000F92FE40FF11DE40FF11D20813181D80142
:1018500016964D905D906D907C901997C301B201E2
:10186000620F731F811D911DF80166837783808746
:10187000918731E0340F34872481321708F01486C1
:1018800030E040E050E00E94C910D80112968D91DE
:101890009C9113978217930769F0ED91FC91048056
:1018A000F581E02DC80129833A834B835C83099538
:1018B0003A812981F801338322830091F902109142
:1018C000FA02D80113968C91823009F068C00E9408
:1018D0009A09F801248535852901612C712C208510
:1018E000318542855385421A530A640A750ADC0120
:1018F000CB01840D951DA61DB71D20893189F901E5
:101900004481558160E070E084179507A607B7070A
:1019100008F445C0D8011D961C921E921C970E9487
:101920009A09F80160877187828793870088F18917
:10193000E02D668177816115710531F0D8015196EE
:101940007C936E93509717C0F8018681978101961A
:1019500097838683668577858F3FFFEF9F0741F0EA
:10196000D80114962D913C911597821793073CF45A
:10197000F801718B608BC8010E94600310C0D80110
:1019800013961C92139751967C936E9350971D96C5
:101990001C921E921C9712968C910E942C070E94FA
:1019A000980692CE0E949A096093F5027093F6020F
:1019B0008093F7029093F802A6CE0E949A09609352
:1019C000F5027093F6028093F7029093F802B6CE78
:1019D000F10185859685019709F4BBCE0E949A098D
:1019E000D10113964D905D906D907C901697DC011F
:1019F000CB0184199509A609B709C397A105B105BB
:101A000008F050C0A6CED1011D968D919C911E97D5
:101A1000009719F50E949A09F1014380548065806E
:101A20007680DC01CB0184199509A609B709843FAA
:101A30009140A105B10508F48CCED1011D968D9180
:101A40009C911E97039709F484CE1E96DC92CE9249
:101A50001D97C1010E9450087CCE019709F079CEF4
:101A60000E949A09F1014380548065807680DC01F0
:101A7000CB0184199509A609B709C397A105B1053A
:101A800008F467CEF10116861586C1010E94500840
:101A90000E949A09D10113966D937D938D939C9327
:101AA000169757CEF10185859685892B31F4F10182
:101AB00096868586C1010E945008D1011E96BC926F
:101AC000AE921D97C1010E9450080E949A09F1012F
:101AD00063837483858396833CCECF92DF92EF92AB
:101AE000FF92CF93DF938DE293E010923003109238
:101AF0002F0348EE53E060E070E0409331035093D1
:101B00003203609333037093340321E731E0309361
:101B10002E0320932D0325EC30E030933A032093DD
:101B2000390324EC30E030933C0320933B0320EC5A
:101B300030E030933E0320933D0321EC30E03093BE
:101B4000400320933F0322EC30E030934203209384
:101B5000410326EC30E0309344032093430310927A
:101B6000460310924703109248031092490361E222
:101B700070E07093E2036093E1031092E30310922C
:101B8000E4031092E50326E0C22ED12CE12CF12CC7
:101B9000C092E603D092E703E092E803F092E903F3
:101BA0001092EA031092EB031092EC031092ED03F3
:101BB00040E24093EE031092F0031092EF03109274
:101BC000F3032CEC33E03093F2032093F10321E193
:101BD00032E03093CB032093CA032BE132E0309301
:101BE000DF032093DE031092D0031092CF031092F4
:101BF000D2031092D1031092D4031092D303109207
:101C0000D6031092D5031092D8031092D7031092E6
:101C1000DA031092D9032FEE31E03093CD032093F5
:101C2000CC039093DD038093DC0350E15093DB03FE
:101C300070931B0360931A0310921C0310921D03F0
:101C400010921E03C0921F03D0922003E092210342
:101C5000F092220310922303109224031092250382
:101C60001092260340932703109229031092280311
:101C700010922C031092010310920203109203039E
:101C80001092040345E053E050932B0340932A0342
:101C900049E951E0509300034093FF0243EA51E0C9
:101CA00050931803409317031092090310920803EE
:101CB00010920B0310920A0310920D0310920C0362
:101CC00010920F0310920E03109211031092100342
:101CD000109213031092120330930603209305030E
:101CE000909316038093150328E020931403109219
:101CF000FE021092FD029093FC028093FB0263EBC4
:101D000071E08BEC91E00E94F70E9093FE028093BD
:101D1000FD0281E190E00E945E0FEC016EE00E9406
:101D20008508D093FD03C093FC0381E190E00E94FD
:101D30005E0FEC016FE00E948508D093FB03C09317
:101D4000FA0381E190E00E945E0FEC0160E10E94E5
:101D50008508D093F903C093F80381E190E00E94D5
:101D60005E0FEC0161E10E948508D093F703C093F8
:101D7000F60386E190E00E945E0FEC0183E392E0BF
:101D8000998388831B821A8285E08D831E821F823D
:101D9000188619861C861E861D868CE090E00E949F
:101DA0005E0F8A879B8726E02C83FC010C96E81740
:101DB000F90719F011921192FACF8DE392E099830D
:101DC00088831F861D8A1C8A8EE190E0998B888B00
:101DD00082E390E09B8B8A8BD093F503C093F4034E
:101DE000DF91CF91FF90EF90DF90CF9008950F9308
:101DF0001F93CF93DF93009731F46115710519F4A8
:101E000080E090E03AC08B01EC016EE070E081E090
:101E100090E00E94420FFC01892B91F380E88383BC
:101E20000115110571F01387028781E88383809182
:101E3000070490910804892B21F4F0930804E0939F
:101E400007042097C9F0D187C0878381826083838C
:101E50008091090490910A04892B71F4F0930A048B
:101E6000E093090480910B0490910C04892B21F4D8
:101E7000F0930C04E0930B04CF01DF91CF911F91FD
:101E80000F9108950F931F93CF93DF93869F800147
:101E9000879F100D969F100D1124C8010E945E0FA0
:101EA000EC01009729F0A80160E070E00E948B101F
:101EB000CE01DF91CF911F910F910895CF93DF93C2
:101EC0008230910510F482E090E0E0910F04F091EF
:101ED000100420E030E0C0E0D0E0309711F1408104
:101EE000518148175907C0F04817590761F482819A
:101EF0009381209719F09B838A832BC090931004C1
:101F000080930F0426C02115310519F0421753079D
:101F100018F49A01BE01DF01EF010280F381E02D88
:101F2000DCCF2115310509F1281B390B243031058F
:101F300090F412968D919C9113976115710521F083
:101F4000FB019383828304C09093100480930F0459
:101F5000FD01329644C0FD01E20FF31F819391937E
:101F6000225031092D933C933AC020910D043091B9
:101F70000E04232B41F4209103013091040130938E
:101F80000E0420930D0420910101309102012115CE
:101F9000310541F42DB73EB740910501509106013E
:101FA000241B350BE0910D04F0910E04E217F307AA
:101FB000A0F42E1B3F0B2817390778F0AC014E5FB9
:101FC0005F4F2417350748F04E0F5F1F50930E04E4
:101FD00040930D048193919302C0E0E0F0E0CF01C3
:101FE000DF91CF9108950F931F93CF93DF930097C5
:101FF00009F48CC0FC0132971382128200910F0405
:10200000109110040115110581F420813181820F96
:10201000931F20910D0430910E042817390779F58C
:10202000F0930E04E0930D0471C0D80140E050E03D
:10203000AE17BF0750F412962D913C911397AD0146
:102040002115310509F1D901F3CF9D01DA0133835F
:10205000228360817181860F971F8217930769F42D
:10206000EC0128813981260F371F2E5F3F4F3183C6
:1020700020838A819B8193838283452B29F4F0936B
:102080001004E0930F0442C01396FC93EE93129752
:10209000ED01499159919E01240F351FE217F30775
:1020A00071F480819181840F951F029611969C9303
:1020B0008E938281938113969C938E931297E0E086
:1020C000F0E0D80112968D919C911397009719F02A
:1020D000F8018C01F6CF8D919C9198012E5F3F4FB6
:1020E000820F931F20910D0430910E042817390799
:1020F00069F4309729F41092100410920F0402C072
:102100001382128210930E0400930D04DF91CF917D
:102110001F910F910895DC0101C06D934150504013
:10212000E0F708952F923F924F925F926F927F92C5
:102130008F929F92AF92BF92CF92DF92EF92FF92D7
:102140000F931F93CF93DF93CDB7DEB7CA1BDB0B83
:102150000FB6F894DEBF0FBECDBF09942A88398828
:1021600048885F846E847D848C849B84AA84B9842F
:10217000C884DF80EE80FD800C811B81AA81B9813B
:10218000CE0FD11D0FB6F894DEBF0FBECDBFED014F
:102190000895A1E21A2EAA1BBB1BFD010DC0AA1FA8
:1021A000BB1FEE1FFF1FA217B307E407F50720F0C0
:1021B000A21BB30BE40BF50B661F771F881F991F3B
:1021C0001A9469F760957095809590959B01AC0184
:1021D000BD01CF010895052E97FB1EF400940E94C7
:1021E000021157FD07D00E94C91007FC03D04EF41E
:1021F0000C94021150954095309521953F4F4F4FCB
:102200005F4F089590958095709561957F4F8F4FA2
:102210009F4F0895EE0FFF1F0590F491E02D099454
:10222000A0E0B0E0E6E1F1E10C949610EC0100973B
:1022300021F4CB010E945E0FB8C0FC01E60FF71F2E
:102240009C0122503109E217F30708F4ACC0D90110
:102250000D911C91119706171707B0F00530110565
:1022600008F49FC0C80104978617970708F499C01F
:1022700002501109061B170B019311936D937C9368
:10228000CF010E94F30F8DC05B01A01AB10A4C016F
:10229000800E911EA0910F04B091100440E050E018
:1022A000E12CF12C109709F44AC0A815B905D1F515
:1022B0006D907C901197630182E0C80ED11CCA1406
:1022C000DB0480F1A3014A195B096A0182E0C80EB0
:1022D000D11C1296BC9012971396AC91B5E0CB1618
:1022E000D10440F0B282A38351834083D9016D931E
:1022F0007C930AC00E5F1F4FC301800F911FF9012D
:1023000091838083EB2DFA2FE114F10431F0D70192
:102310001396FC93EE93129744C0F0931004E0934D
:102320000F043FC08D919C9111974817590708F4ED
:10233000AC017D0112960D90BC91A02DB3CF809180
:102340000D0490910E0488159905E1F4461757077E
:10235000C8F48091010190910201009741F48DB77A
:102360009EB74091050150910601841B950BE8171B
:10237000F907C8F4F0930E04E0930D04F90171839A
:1023800060830FC0CB010E945E0F7C01009759F063
:10239000A801BE010E94DF11CE010E94F30FC70108
:1023A00004C0CE0102C080E090E0CDB7DEB7EEE021
:1023B0000C94B21081E090E0F8940C94EF11FB01C2
:1023C000DC0102C001900D9241505040D8F70895B1
:1023D000FB01DC0101900D920020E1F7089510E06F
:1023E000C3E6D0E004C0FE010E940A112196C43663
:0823F000D107C9F7F894FFCFF3
:1023F800FF000011048000000000000F071807000C
:102408000000009605F8010000000000000000F13F
:10241800080000000000000000F108000000009B18
:1024280005F4010E03000000008E002207000000E2
:10243800009505F60118000000000000000000E803
:10244800FFE8FF000000000000140000000000008A
:10245800000000ECFFECFF0000000000000000009E
:10246800002F069C05C7057606F805D605EA050679
:102478000000000000FE010002FAFFFAFF0000FF62
:102488000102021800000000001F023602E8FFE8FF
:10249800FF00002C02400299014B015501A30100E5
:1024A8000000009805FC01B201AF01AC01A901A62A
:1024B800011D011901160100012001A400A200025A
:1024C80000000000004C024E02FEFFFEFF00004D1F
:1024D800025002000000009A0598020000000099CE
:1024E800054A02B201AF01AC01A901A6019A015443
:1024F800013B0122012001BB029A021400000000E6
:10250800006D028402ECFFECFF00007A028E0211DB
:10251800025F0169011B02000000009705FA010033
:10252800000000DC070D07A20600000000DB070B17
:1025380007E9066F6E436173654F70656E006F6ED5
:1025480043617365436C6F7365006F6E4261636BC3
:10255800006F6E52657475726E006F6E456E7465AD
:1025680072006F6E4F4B006F6E466F7277617264C8
:10257800006F6E46617374466F7277617264006FA4
:102588006E4261636B77617264006F6E466173744B
:102598004261636B77617264005374617274696E2F
:1025A80067202E2E2E0047554920696E69742E2EFD
:1025B8002E0042757A7A657220696E69742E2E2E05
:0E25C800005374617274656421000D0A0000F6
:00000001FF
