:100000000C9463000C948B000C948B000C948B006C
:100010000C948B000C948B000C948B000C948B0034
:100020000C948B000C948B000C948B000C948B0024
:100030000C948B000C948B000C948B000C948B0014
:100040000C94C3010C948B000C943A020C9414028F
:100050000C948B000C948B000C948B000C948B00F4
:100060000C948B000C948B000000000023002600F1
:10007000290004040404040404040202020202022B
:10008000030303030303010204081020408001025C
:1000900004081020010204081020000000080002DB
:1000A0000100000304070000000000000000000041
:1000B0000000250028002B0000000000240027007D
:1000C0002A00E105920811241FBECFEFD8E0DEBF61
:1000D000CDBF12E0A0E0B1E0ECEBF6E102C005908C
:1000E0000D92AC31B107D9F723E0ACE1B2E001C029
:1000F0001D92A433B207E1F710E0C2E6D0E004C0DD
:100100002197FE010E946C0AC136D107C9F70E94EF
:10011000D8060C94510B0C9400002FB7F894609102
:100120001E0370911F0380912003909121032FBF24
:100130000895CF92DF92EF92FF920F931F93CF9388
:10014000DF936C017A018B01C0E0D0E0CE15DF05B2
:1001500089F0D8016D918D01D601ED91FC9101904E
:10016000F081E02DC6010995892B11F47E0102C0B2
:100170002196ECCFC701DF91CF911F910F91FF9096
:10018000EF90DF90CF900895FC01538D448D252F83
:1001900030E0842F90E0821B930B541710F0CF9621
:1001A000089501970895FC01918D828D981761F053
:1001B000828DDF01A80FB11D5D968C91928D9F5F9E
:1001C0009F73928F90E008958FEF9FEF0895FC0149
:1001D000918D828D981731F0828DE80FF11D858DFC
:1001E00090E008958FEF9FEF0895FC01918D228D8F
:1001F000892F90E0805C9F4F821B91098F73992714
:1002000008958CE492E00E94F50021E0892B09F426
:1002100020E0822F0895FC01848DDF01A80FB11D1D
:10022000A35ABF4F2C91848D90E001968F7399272C
:10023000848FA689B7892C93A089B1898C91806419
:100240008C93938D848D981306C00288F389E02DDA
:1002500080818F7D80830895EF92FF920F931F938B
:10026000CF93DF93EC0181E0888F9B8D8C8D981369
:1002700005C0E889F989808185FD24C0F62E0B8DA3
:1002800010E00F5F1F4F0F731127E02E8C8DE812C7
:100290000CC00FB607FCFACFE889F989808185FF89
:1002A000F5CFCE010E940B01F1CF8B8DFE01E80F3F
:1002B000F11DE35AFF4FF0820B8FEA89FB898081A1
:1002C000806207C0EE89FF896083E889F9898081AF
:1002D0008064808381E090E0DF91CF911F910F9146
:1002E000FF90EF900895CF93DF93EC01888D8823E2
:1002F000C9F0EA89FB89808185FD05C0A889B98993
:100300008C9186FD0FC00FB607FCF5CF808185FF6D
:10031000F2CFA889B9898C9185FFEDCFCE010E94DB
:100320000B01E7CFDF91CF91089580E090E0892B1A
:1003300029F00E94010181110C9400000895CF93CF
:10034000DF93009779F0FC0101900020E9F73197E5
:10035000AF01481B590BBC018CE492E00E9499004C
:10036000EC0102C0C0E0D0E042E050E064E072E0A6
:100370008CE492E00E9499008C0F9D1FDF91CF9139
:1003800008950E943C0B1F920F920FB60F921124FA
:100390002F933F938F939F93AF93BF9380911E03AF
:1003A00090911F03A0912003B091210330911D0370
:1003B00023E0230F2D3720F40196A11DB11D05C0A8
:1003C00026E8230F0296A11DB11D20931D038093E3
:1003D0001E0390931F03A0932003B09321038091E9
:1003E000190390911A03A0911B03B0911C0301966D
:1003F000A11DB11D8093190390931A03A0931B03B1
:10040000B0931C03BF91AF919F918F913F912F911A
:100410000F900FBE0F901F901895DC01ED91FC918D
:100420000190F081E02D09941F920F920FB60F9268
:1004300011242F933F934F935F936F937F938F93E9
:100440009F93AF93BF93EF93FF938CE492E00E944E
:100450000B01FF91EF91BF91AF919F918F917F9190
:100460006F915F914F913F912F910F900FBE0F9021
:100470001F9018951F920F920FB60F9211242F9371
:100480008F939F93EF93FF93E0915C02F0915D0255
:100490008081E0916202F091630282FD12C090813E
:1004A000809165028F5F8F7320916602821751F0F1
:1004B000E0916502F0E0E45BFD4F958F809365026B
:1004C00001C08081FF91EF919F918F912F910F90AB
:1004D0000FBE0F901F9018950895CB0108957F923D
:1004E0008F929F92AF92BF92CF92DF92EF92FF9244
:1004F0000F931F93CF93DF93EC0149015A018B01B6
:10050000C12CD12C7601C814D904EA04FB0484F56B
:10051000F80171908F018F8580FF0BC0E881F98110
:100520000084F185E02D20E144E060E070E0CE0140
:100530000995EB85FC858D859E85E817F90738F4CC
:1005400070828B859C8501969C878B870BC0E88188
:10055000F981672D70E0028CF38DE02DCE010995B5
:10056000019649F02FEFC21AD20AE20AF20ACBCF63
:10057000B401C50102C0B601C701DF91CF911F913F
:100580000F91FF90EF90DF90CF90BF90AF909F9032
:100590008F907F900895CF93DF93EC01E881F981EC
:1005A0000288F389E02D09958F3F2FEF920731F0F4
:1005B0002D813E812F5F3F4F3E832D83DF91CF9171
:1005C00008958FEF9FEF089560E070E0CB010895EC
:1005D00080E090E00895CB010895CF93DF93EC0184
:1005E00088899989DC01ED91FC910084F185E02DE9
:1005F0000995892BA9F388899989DC01ED91FC91F2
:100600000284F385E02DDF91CF910994CF93DF939E
:10061000EC0188899989DC01ED91FC910084F185D8
:10062000E02D0995892BA9F388899989DC01ED9141
:10063000FC910484F585E02DDF91CF910994AF9270
:10064000BF92CF92DF92EF92FF920F931F93CF93BF
:10065000DF9300D000D0CDB7DEB78C015B01C12C99
:10066000D12C7601F80180899189DC01ED91FC9112
:100670000284F385E02D29833A834B835C830995BB
:1006800029813A814B815C818F3F71F0C216D3067C
:10069000E406F5064CF4D5018D935D01BFEFCB1A4E
:1006A000DB0AEB0AFB0ADECFC701B6010F900F9001
:1006B0000F900F90DF91CF911F910F91FF90EF90CE
:1006C000DF90CF90BF90AF900895DC0150968D9150
:1006D0009C915197DC01ED91FC910084F185E02D16
:1006E000099480E090E0089580E090E0089580E033
:1006F00090E0089580E090E008950895CF93DF930F
:10070000C0911C02D0911D02E881F9810084F1851D
:10071000E02DCE010995892BB9F3E881F981028496
:10072000F385E02DCE01DF91CF9109941F93CF93F4
:10073000DF93182FC0911C02D0911D028A3041F422
:10074000E881F9810190F081E02D6DE0CE010995FD
:10075000E881F9810190F081E02D612FCE010995AA
:1007600021E030E0019711F420E030E0C901DF9191
:10077000CF911F910895089580E090E008950C9422
:1007800096090C94960920E032E0FC013183208325
:10079000808591850C949609CF93DF93EC010E949C
:1007A000C303CE01DF91CF910C9496090C94960966
:1007B000089508950C949609DC01ED91FC9136970B
:1007C00020813181820F931F0C94DA03FB01208179
:1007D0003181FC0131832083FB0142815381F90186
:1007E000369720813181FC01E20FF31F5183408352
:1007F00008952EE631E0FC013183208328E731E0C3
:10080000318F208F6EE771E00C94E603DC01ED91EF
:10081000FC91369720813181820F931F0C94F9034C
:10082000CF93DF93EC010E94F903CE01DF91CF91CA
:100830000C949609DC01ED91FC9136972081318171
:10084000820F931F0C9410040C9496090895089538
:100850000C949609DC01ED91FC9136972081318151
:10086000820F931F0C942804FB0120813181FC012D
:1008700031832083FB0142815381F9013697208126
:100880003181FC01E20FF31F51834083089526EE6E
:1008900031E0FC013183208320EF31E0358B248B64
:1008A00066EF71E00C943404DC01ED91FC91369715
:1008B00020813181820F931F0C944704CF93DF93E3
:1008C000EC010E944704CE01DF91CF910C94960970
:1008D000DC01ED91FC91369720813181820F931FCD
:1008E0000C945E040F931F93CF93DF938C01EB0165
:1008F0006F3F8FEF780719F480E090E00FC06A3007
:1009000031F46DE0F801808991890E940D026C2F0D
:10091000F801808991890E940D02CE01DF91CF916B
:100920001F910F9108958F929F92BF92CF92DF9265
:10093000EF92FF920F931F93CF93DF9300D000D0DD
:10094000CDB7DEB78C014B01C12CD12C7601C2167C
:10095000D306E406F50644F5F401B1904F01FAE040
:10096000BF120EC06DE0F8018089918929833A8316
:100970004B835C830E940D025C814B813A8129810B
:100980006B2DF8018089918929833A834B835C839D
:100990000E940D02FFEFCF1ADF0AEF0AFF0A5C8107
:1009A0004B813A812981D3CFCA01B9010F900F90B1
:1009B0000F900F90DF91CF911F910F91FF90EF90CB
:1009C000DF90CF90BF909F908F900895AF92BF928D
:1009D000CF92DF92EF92FF920F931F93CF93DF930B
:1009E000FC012481222319F0FB01918B808BFC01F7
:1009F000C281D381EC80FD8087010F5F1F4FE0161D
:100A0000F10608F046C06B018A819B81801791072F
:100A100060F59701275F3F4F8217930730F5A88055
:100A2000B9803B832A83C901880F991F0E9401095D
:100A300099838883D50140E050E04E155F0591F021
:100A4000E881F9819A01220F331FE20FF31F3097DB
:100A500029F08D919C911197918380834F5F5F4F17
:100A60001296EBCFC5010E9496098C819D819C0155
:100A7000220F331F8017910778F4E881F981E20F84
:100A8000F31F309711F0D182C08201962E5F3F4F45
:100A9000F1CF0E151F0510F41D830C83DF91CF914C
:100AA0001F910F91FF90EF90DF90CF90BF90AF908C
:100AB00008950895FC01A089B189109759F0ED912E
:100AC000FC9111970480F581E02D40E050E0BC01DD
:100AD000CD01099408950F931F93CF93DF93EC01F9
:100AE0008B0180E092E0998388838FEF9FEF9B8357
:100AF0008A831C821D821E821F82198618861B868D
:100B00001A861D861C8661E070E080E090E00E94FD
:100B1000720A009761F0998788871B861A862C8550
:100B20003D85232B09F03EC0FC0110823BC0888527
:100B30009985009711F00E949609198618861D86DE
:100B40001C861B861A8681E090E09F878E87198A13
:100B5000188A1B830A83E801DD27FE01EA57FF4F4D
:100B60008491FE01EE58FF4FC491CC2311F1D0E0E7
:100B7000CC0FDD1FFE01E854FF4F25913491FE019B
:100B8000E255FF4FA591B4914FB7F894E9019881D0
:100B9000E82FE095892F8E2388838C91E823EC93AE
:100BA0004FBF07C01D861C8666E072E00E944A0B9C
:100BB000CACFDF91CF911F910F91089508950895A5
:100BC0000895CF93DF93ACE4B2E013961C921E928B
:100BD000129748EE53E060E070E014964D935D93F9
:100BE0006D937C93179786E491E011969C938E9376
:100BF00085EC90E01D969C938E931C9784EC90E07E
:100C00001F969C938E931E9780EC90E051969C9338
:100C10008E93509781EC90E053969C938E935297CD
:100C200082EC90E055969C938E93549786EC90E0DE
:100C300057969C938E93569759961C9259975A960D
:100C40001C925A975B961C925B975C961C925C97E1
:100C5000E9EEF2E0C1E2D0E0D08FC78B118E128EA8
:100C6000138E46E050E060E070E0448F558F668F51
:100C7000778F10A211A212A213A220E224A316A21F
:100C800015A211A68BEE92E090A787A386EE91E0C5
:100C90009183808380EF91E0958B848B16821582FF
:100CA000108617821286118614861386168615867C
:100CB000108A178684EC91E093838283B38BA28B96
:100CC00030E1318BEEE1F2E0D48FC38F158E168EBA
:100CD000178E40A351A362A373A314A215A216A258
:100CE00017A220A712A611A615A61282138214829B
:100CF000158224E232E034A723A72EE631E03183C7
:100D0000208328E731E0318F208F128611861486E8
:100D1000138616861586108A1786128A118A148AF7
:100D2000138A97838683B78BA68B88E0858BB093D5
:100D30001D02A0931C026EE773E086E993E00E9417
:100D40009A0882E190E00E940109EC016EE070E0F7
:100D50000E946B05D0932903C093280382E190E0A1
:100D60000E940109EC016FE070E00E946B05D093D6
:100D70002703C093260382E190E00E940109EC0161
:100D800060E170E00E946B05D0932503C0932403BB
:100D900082E190E00E940109EC0161E170E00E94B3
:100DA0006B05D0932303C0932203DF91CF91089565
:100DB000789484B5826084BD84B5816084BD85B536
:100DC000826085BD85B5816085BD80916E00816042
:100DD00080936E00109281008091810082608093E8
:100DE00081008091810081608093810080918000EA
:100DF0008160809380008091B10084608093B10015
:100E00008091B00081608093B00080917A0084600E
:100E100080937A0080917A00826080937A0080913A
:100E20007A00816080937A0080917A008068809354
:100E30007A001092C100E0915C02F0915D0282E0C4
:100E40008083E0915802F09159021082E0915A0299
:100E5000F0915B028FEC808310926402E09160025B
:100E6000F091610286E08083E0915E02F0915F0282
:100E7000808180618083E0915E02F0915F028081D9
:100E800088608083E0915E02F0915F0280818068DB
:100E90008083E0915E02F0915F0280818F7D80838C
:100EA00087E092E00E949F0185E090E00E940109A6
:100EB000EC018CE391E09983888387E090E00E94C5
:100EC00001098C0188E090E0D80113969C938E93E1
:100ED000129715961C921E92149780E190E00E9442
:100EE0000109F801918380831B830A831C82D093BC
:100EF0001803C09317036091280370912903CE0152
:100F00000E94E6046091260370912703CE010E949F
:100F1000E6046091240370912503CE010E94E6044B
:100F20006091220370912303CE010E94E604AA81FE
:100F3000BB81ED91FC91119714968D919C91159721
:100F4000880F991F8E0F9F1FE817F90739F0A1919D
:100F5000B1915196DC93CE935097F6CF81E08C837C
:100F60000E948D0060931303709314038093150304
:100F70009093160383E192E00E949F0143E0E42EE8
:100F8000F12CCC24C394D12C62E0A62EB12C00917C
:100F9000170310911803D8011296ED91FC91139745
:100FA00080809180D8011296ED91FC9113978481F5
:100FB0009581880F991F20813181820F931F881698
:100FC000990609F449C0F401C191D1914F012A81D8
:100FD0003B813327F901E656FF4F8491F901EA5727
:100FE000FF4F9491F901EE58FF4FE491EE23B9F1D0
:100FF000882339F1833091F038F48130A9F08230C0
:1010000001F584B58F7D12C0873091F08830A1F052
:101010008430B9F4809180008F7D03C0809180007E
:101020008F77809380000DC084B58F7784BD09C011
:101030008091B0008F7703C08091B0008F7D809346
:10104000B000F0E0EE0FFF1FE859FF4FA591B491FB
:10105000EC919E2321F044C00E94950198CF8E858B
:101060009F850097E9F40E948D004C805D806E8022
:101070007F80DC01CB0184199509A609B709843F5B
:101080009140A105B10508F48DCF8E859F8503970A
:1010900009F488CFFF86EE86CE010E945A0582CFE2
:1010A000019709F07FCF0E948D004C805D806E809B
:1010B0007F80DC01CB0184199509A609B709C39784
:1010C000A105B10508F46ECF1F861E86CE010E94D1
:1010D0005A050E948D006C837D838E839F8362CF2F
:1010E0008E859F85019709F45DCF0E948D004C800D
:1010F0005D806E807F80DC01CB0184199509A60993
:10110000B709C397A105B10508F44CCF8E859F851B
:10111000892B29F4BF86AE86CE010E945A05DF8650
:10112000CE86D4CF8EE192E00E94F90389EE92E060
:101130000C9447040F931F93CF93DF93009731F4E0
:101140006115710519F480E090E03AC08B01EC0163
:101150006EE070E081E090E00E94E508FC01892BE0
:1011600091F380E883830115110571F013870287DD
:1011700081E8838380912A0390912B03892B21F4AA
:10118000F0932B03E0932A032097C9F0D187C087FF
:1011900083818260838380912C0390912D03892B1E
:1011A00071F4F0932D03E0932C0380912E03909122
:1011B0002F03892B21F4F0932F03E0932E03CF010B
:1011C000DF91CF911F910F9108950F931F93CF93AC
:1011D000DF93869F8001879F100D969F100D11242D
:1011E000C8010E940109EC01009729F0A80160E004
:1011F00070E00E942E0ACE01DF91CF911F910F91D6
:101200000895CF93DF938230910510F482E090E04F
:10121000E0913203F091330320E030E0C0E0D0E011
:10122000309711F14081518148175907C0F0481794
:10123000590761F482819381209719F09B838A83F7
:101240002BC0909333038093320326C021153105C0
:1012500019F04217530718F49A01BE01DF01EF019C
:101260000280F381E02DDCCF2115310509F1281B27
:10127000390B2430310590F412968D919C9113977F
:101280006115710521F0FB019383828304C0909363
:10129000330380933203FD01329644C0FD01E20F17
:1012A000F31F81939193225031092D933C933AC0BF
:1012B0002091300330913103232B41F4209102011E
:1012C00030910301309331032093300320910001CA
:1012D000309101012115310541F42DB73EB7409100
:1012E000040150910501241B350BE0913003F0916E
:1012F0003103E217F307A0F42E1B3F0B2817390721
:1013000078F0AC014E5F5F4F2417350748F04E0F61
:101310005F1F50933103409330038193919302C038
:10132000E0E0F0E0CF01DF91CF9108950F931F939C
:10133000CF93DF93009709F48CC0FC01329713829E
:10134000128200913203109133030115110581F4CB
:1013500020813181820F931F20913003309131031E
:101360002817390779F5F0933103E093300371C002
:10137000D80140E050E0AE17BF0750F412962D910F
:101380003C911397AD012115310509F1D901F3CF36
:101390009D01DA013383228360817181860F971F5B
:1013A0008217930769F4EC0128813981260F371FD2
:1013B0002E5F3F4F318320838A819B819383828379
:1013C000452B29F4F0933303E093320342C0139684
:1013D000FC93EE931297ED01499159919E01240FD0
:1013E000351FE217F30771F480819181840F951FF7
:1013F000029611969C938E938281938113969C936F
:101400008E931297E0E0F0E0D80112968D919C91B6
:101410001397009719F0F8018C01F6CF8D919C91EC
:1014200098012E5F3F4F820F931F20913003309120
:1014300031032817390769F4309729F410923303E0
:101440001092320302C01382128210933103009370
:101450003003DF91CF911F910F910895DC0101C0FE
:101460006D9341505040E0F708952F923F924F9274
:101470005F926F927F928F929F92AF92BF92CF9224
:10148000DF92EF92FF920F931F93CF93DF93CDB72D
:10149000DEB7CA1BDB0B0FB6F894DEBF0FBECDBFA5
:1014A00009942A88398848885F846E847D848C8476
:1014B0009B84AA84B984C884DF80EE80FD800C817F
:1014C0001B81AA81B981CE0FD11D0FB6F894DEBF62
:1014D0000FBECDBFED010895EE0FFF1F0590F491F3
:1014E000E02D0994A0E0B0E0E8E7FAE00C94390AB6
:1014F000EC01009721F4CB010E940109B8C0FC0166
:10150000E60FF71F9C0122503109E217F30708F498
:10151000ACC0D9010D911C91119706171707B0F0B7
:101520000530110508F49FC0C80104978617970776
:1015300008F499C002501109061B170B019311936F
:101540006D937C93CF010E9496098DC05B01A01A18
:10155000B10A4C01800E911EA0913203B091330369
:1015600040E050E0E12CF12C109709F44AC0A81596
:10157000B905D1F56D907C901197630182E0C80E9A
:10158000D11CCA14DB0480F1A3014A195B096A016A
:1015900082E0C80ED11C1296BC9012971396AC91A3
:1015A000B5E0CB16D10440F0B282A38351834083CF
:1015B000D9016D937C930AC00E5F1F4FC301800F4A
:1015C000911FF90191838083EB2DFA2FE114F1042F
:1015D00031F0D7011396FC93EE93129744C0F09329
:1015E0003303E09332033FC08D919C9111974817CC
:1015F000590708F4AC017D0112960D90BC91A02D05
:10160000B3CF809130039091310388159905E1F4AF
:1016100046175707C8F48091000190910101009787
:1016200041F48DB79EB74091040150910501841B90
:10163000950BE817F907C8F4F0933103E0933003F2
:10164000F901718360830FC0CB010E9401097C0105
:10165000009759F0A801BE010E94410BCE010E94E3
:101660009609C70104C0CE0102C080E090E0CDB76A
:10167000DEB7EEE00C94550A81E090E0F8940C940B
:10168000510BFB01DC0102C001900D924150504012
:10169000D8F70895FB01DC0101900D920020E1F7DD
:1016A000089510E0C2E6D0E004C0FE010E946C0A7A
:0C16B0002196C336D107C9F7F894FFCF8C
:1016BC00000034038000180000000000000000004F
:1016CC00E8FFE8FF0000000000001400000000002C
:1016DC0000000000ECFFECFF000000000000000028
:1016EC00000000000000C101000000005905C1030A
:1016FC006C02000000002C019900C4007301F5007D
:10170C00D300E700060000000000D803DA03FAFF5C
:10171C00FAFF0000D903DC03180000000000F903F5
:10172C001004E8FFE8FF000006041A046E010C0127
:10173C001601780100000000DE05D6037D037A0354
:10174C00770374037103E802E402E102CB02EB02BB
:10175C006F026D0202000000000026042804FEFF48
:10176C00FEFF000027042A0400000000E005BF0370
:10177C0000000000DF0524047D037A037703740363
:10178C00710365031F030603ED02EB02930472045D
:10179C0014000000000047045E04ECFFECFF0000A6
:1017AC0054046804E60120012A01F0010000000045
:1017BC00C303CC030D0A005374617274696E672EF7
:0C17CC002E2E00537461727465642100BD
:00000001FF
