:100000000C9464000C948C000C948C000C948C0068
:100010000C948C000C948C000C948C000C94E600D6
:100020000C948C000C948C000C948C000C948C0020
:100030000C948C000C948C000C948C000C948C0010
:100040000C94370C0C948C000C948F060C9469065D
:100050000C948C000C948C000C948C000C948C00F0
:100060000C948C000C948C000200000000230026ED
:1000700000290000000000240027002A00000000E2
:1000800000250028002B00040404040404040402D6
:100090000202020202030303030303010204081025
:1000A00020408001020408102001020408102000F2
:1000B0000000080002010000030407000000000027
:1000C000000000004D11451111241FBECFEFD8E0F4
:1000D000DEBFCDBF13E0A0E0B1E0EEE4FDE202C080
:1000E00005900D92A83AB107D9F724E0A8EAB3E049
:1000F00001C01D92A53FB207E1F710E0C3E6D0E0D2
:1001000004C02197FE010E94B515C236D107C9F778
:100110000E94810C0C949A160C940000CF92DF92EE
:10012000EF92FF920F931F93CF93DF936C017A01AD
:100130008B01C0E0D0E0CE15DF0589F0D8016D91CC
:100140008D01D601ED91FC910190F081E02DC60169
:100150000995892B11F47E0102C02196ECCFC701CD
:10016000DF91CF911F910F91FF90EF90DF90CF9093
:1001700008950E94851690910001981324C0E8E626
:10018000F0E0E4919FEF90930001E130B9F098F036
:10019000E230C9F4909170009D7F9093700091E0DF
:1001A0009093B0009091B100987F94609093B100CB
:1001B0001092B30008C010926E0005C090916F00BD
:1001C0009D7F90936F0060E00C94BF0B1F920F9285
:1001D0000FB60F9211242F933F934F935F936F931A
:1001E0007F938F939F93AF93BF93EF93FF938091F0
:1001F000AB039091AC03A091AD03B091AE03892BFA
:100200008A2B8B2B51F18091AA03E091A803F091E6
:10021000A9039081892780838091AB039091AC03DF
:10022000A091AD03B091AE03181619061A061B066D
:10023000C4F48091AB039091AC03A091AD03B09155
:10024000AE030197A109B1098093AB039093AC036E
:10025000A093AD03B093AE0304C0809100010E944F
:10026000BB00FF91EF91BF91AF919F918F917F91D3
:100270006F915F914F913F912F910F900FBE0F9013
:100280001F901895DC01ED91FC910190F081E02D1B
:1002900009940C94540629E431E0DC0111963C9356
:1002A0002E9314968D919C911597009739F0DC014F
:1002B000ED91FC910280F381E02D09940895089559
:1002C000CB0108957F928F929F92AF92BF92CF926F
:1002D000DF92EF92FF920F931F93CF93DF93EC0186
:1002E00049015A018B01C12CD12C7601C814D904C3
:1002F000EA04FB0484F5F80171908F018F8580FF7B
:100300000BC0E881F9810084F185E02D20E144E013
:1003100060E070E0CE010995EB85FC858D859E85BA
:10032000E817F90738F470828B859C8501969C87C5
:100330008B870BC0E881F981672D70E0028CF38D0B
:10034000E02DCE010995019649F02FEFC21AD20A8D
:10035000E20AF20ACBCFB401C50102C0B601C7015F
:10036000DF91CF911F910F91FF90EF90DF90CF9091
:10037000BF90AF909F908F907F900895CF93DF9321
:10038000EC01E881F9810288F389E02D09958F3F1E
:100390002FEF920731F02D813E812F5F3F4F3E833B
:1003A0002D83DF91CF9108958FEF9FEF089560E047
:1003B00070E0CB01089580E090E00895CB010895AE
:1003C000CF93DF93EC0188899989DC01ED91FC9151
:1003D0000084F185E02D0995892BA9F388899989F5
:1003E000DC01ED91FC910284F385E02DDF91CF914A
:1003F0000994CF93DF93EC0188899989DC01ED9111
:10040000FC910084F185E02D0995892BA9F3888959
:100410009989DC01ED91FC910484F585E02DDF9153
:10042000CF910994AF92BF92CF92DF92EF92FF9259
:100430000F931F93CF93DF9300D000D0CDB7DEB7DB
:100440008C015B01C12CD12C7601F8018089918946
:10045000DC01ED91FC910284F385E02D29833A8340
:100460004B835C83099529813A814B815C818F3F65
:1004700071F0C216D306E406F5064CF4D5018D934F
:100480005D01BFEFCB1ADB0AEB0AFB0ADECFC70127
:10049000B6010F900F900F900F90DF91CF911F91A9
:1004A0000F91FF90EF90DF90CF90BF90AF900895A5
:1004B000DC0150968D919C915197DC01ED91FC915E
:1004C0000084F185E02D099480E090E0089580E0BB
:1004D00090E0089580E090E0089580E090E0089535
:1004E0000895CF93DF93C091C503D091C603E881EF
:1004F000F9810084F185E02DCE010995892BB9F3AE
:10050000E881F9810284F385E02DCE01DF91CF915E
:1005100009941F93CF93DF93182FC091C503D091F7
:10052000C6038A3041F4E881F9810190F081E02D21
:100530006DE0CE010995E881F9810190F081E02D0F
:10054000612FCE01099521E030E0019711F420E000
:1005500030E0C901DF91CF911F910895089580E0A7
:1005600090E008950C947E140C947E140C947E14E8
:100570000C947E140C947E140C947E1408950895AB
:100580000C947E14DC01ED91FC9136972081318131
:10059000820F931F0C94C002FB0120813181FC016A
:1005A00031832083FB0142815381F90136972081F9
:1005B0003181FC01E20FF31F51834083089521EB49
:1005C00031E0FC01318320832BEB31E0318F208F30
:1005D00061EC71E00C94CC02DC01ED91FC9136975A
:1005E00020813181820F931F0C94DF02CF93DF9320
:1005F000EC010E94DF02CE01DF91CF910C947E14BA
:10060000DC01ED91FC91369720813181820F931F9F
:100610000C94F6020C947E14089508950C947E14A4
:10062000DC01ED91FC91369720813181820F931F7F
:100630000C940E03FB0120813181FC013183208366
:10064000FB0142815381F901369720813181FC0100
:10065000E20FF31F51834083089529E232E0FC0149
:100660003183208323E332E0358B248B69E372E00E
:100670000C941A03DC01ED91FC91369720813181B5
:10068000820F931F0C942D03CF93DF93EC010E94F4
:100690002D03CE01DF91CF910C947E14DC01ED91FE
:1006A000FC91369720813181820F931F0C94440373
:1006B0000C947E140C947E140F931F93CF93DF93AE
:1006C0008C01EB016F3F8FEF780719F480E090E029
:1006D0000FC06A3031F46DE0F801808991890E9481
:1006E00042016C2FF801808991890E944201CE015C
:1006F000DF91CF911F910F9108958F929F92BF929A
:10070000CF92DF92EF92FF920F931F93CF93DF93DD
:1007100000D000D0CDB7DEB78C014B01C12CD12C5D
:100720007601C216D306E406F50644F5F401B1904D
:100730004F01FAE0BF120EC06DE0F8018089918987
:1007400029833A834B835C830E9442015C814B8105
:100750003A8129816B2DF8018089918929833A8317
:100760004B835C830E944201FFEFCF1ADF0AEF0A3E
:10077000FF0A5C814B813A812981D3CFCA01B9013B
:100780000F900F900F900F90DF91CF911F910F91CD
:10079000FF90EF90DF90CF90BF909F908F90089543
:1007A000CF93DF93EC0160E08E810E94BF0B61E08C
:1007B0008E810E94BF0B60E08E810E94BF0B8BE890
:1007C00091E00197F1F7DF91CF91089561157105DF
:1007D00009F44DC0DB011296ED91FC911397228133
:1007E00014968C91853049F48785882319F081E02F
:1007F00093E03BC08CE093E038C0858596852F3030
:10080000A1F018F42E3031F008952031C9F02131D3
:1008100011F108958230910519F488E193E025C023
:10082000039729F58FE193E020C08230910519F4F8
:1008300088E293E01AC00397D1F480E393E015C0F7
:100840008230910519F485E393E00FC0039779F4A2
:100850008FE393E00AC08230910519F48DE493E0B0
:1008600004C0039721F488E593E00C94380A0895B6
:100870000F931F93CF93DF93EC018B0189E491E0F9
:100880009983888386E090E00E94E913FC0181E46B
:1008900091E0918380831382128215821482FD83FA
:1008A000EC831B830A83DF91CF911F910F910895F1
:1008B0000895089508950895089508950895CF928C
:1008C000DF92EF92FF920F931F93CF93DF937C0100
:1008D0006C0187E0C80ED11CC0E0D0E0062F10E00C
:1008E000B8010C2E02C0759567950A94E2F7617005
:1008F000F60181916F010E94BF0B2196C430D10592
:1009000079F7C701DF91CF911F910F91FF90EF9081
:10091000DF90CF900C94D003CF92DF92EF92FF92B2
:100920000F931F93CF93DF93EC01F62E642F8C81EE
:100930000E94BF0B8D818F3F19F060E00E94BF0BBA
:100940008F850F2D10E084FF25C06E0187E0C80E53
:10095000D11CE12CF12CB8010E2C02C075956795C5
:100960000A94E2F76170F60181916F010E94BF0B5A
:10097000FFEFEF1AFF0A88E0E816F10461F7CE01F5
:10098000DF91CF911F910F91FF90EF90DF90CF906B
:100990000C94D003B80184E0759567958A95E1F7CA
:1009A000CE010E945F046F2DCE01DF91CF911F9188
:1009B0000F91FF90EF90DF90CF900C945F0441E097
:1009C0000E948C0481E090E0089540E00C948C0437
:1009D0000895FC01538D448D252F30E0842F90E045
:1009E000821B930B541710F0CF960895019708952A
:1009F000FC01918D828D981761F0828DDF01A80F27
:100A0000B11D5D968C91928D9F5F9F73928F90E048
:100A100008958FEF9FEF0895FC01918D828D9817B7
:100A200031F0828DE80FF11D858D90E008958FEFF4
:100A30009FEF0895FC01918D228D892F90E0805CBD
:100A40009F4F821B91098F739927089587EF93E039
:100A50000E941A0521E0892B09F420E0822F0895D5
:100A6000FC01848DDF01A80FB11DA35ABF4F2C914B
:100A7000848D90E001968F739927848FA689B7891A
:100A80002C93A089B1898C9180648C93938D848DF3
:100A9000981306C00288F389E02D80818F7D8083C2
:100AA0000895EF92FF920F931F93CF93DF93EC0182
:100AB00081E0888F9B8D8C8D981305C0E889F9891A
:100AC000808185FD24C0F62E0B8D10E00F5F1F4F37
:100AD0000F731127E02E8C8DE8120CC00FB607FCA7
:100AE000FACFE889F989808185FFF5CFCE010E9490
:100AF0003005F1CF8B8DFE01E80FF11DE35AFF4F5A
:100B0000F0820B8FEA89FB898081806207C0EE89C1
:100B1000FF896083E889F98980818064808381E02E
:100B200090E0DF91CF911F910F91FF90EF9008958A
:100B3000CF93DF93EC01888D8823C9F0EA89FB8984
:100B4000808185FD05C0A889B9898C9186FD0FC07B
:100B50000FB607FCF5CF808185FFF2CFA889B98950
:100B60008C9185FFEDCFCE010E943005E7CFDF915C
:100B7000CF91089580E090E0892B29F00E9426050E
:100B800081110C9400000895FC01A585B68510978D
:100B900061F0ED91FC911197AC014E5F5F4F0480C5
:100BA000F581E02DBC01CD0109940895FF920F93CA
:100BB0001F93CF93DF93EC010C891D89011511055B
:100BC00021F1FD8087E090E00E94E913DC0189E5D6
:100BD00091E011969C938E9316961C921E921597F7
:100BE0001396DC93CE9312971496FC921497E80117
:100BF000E881F9810480F581E02DBD01C801DF9114
:100C0000CF911F910F91FF900994DF91CF911F9188
:100C10000F91FF900895CF93DF93EC010E94C405DC
:100C20004F85888999892A813B8141110AC04A8967
:100C30005B89840F951F2817390760F081E08F8743
:100C400004C08217930730F01F86CE01DF91CF9149
:100C50000C94D605DF91CF9108950C947E140C94DA
:100C60007E1421E531E0FC0131832083878190856A
:100C70000C947E14CF93DF93EC010E943106CE01D9
:100C8000DF91CF910C947E140C947E140C947E14FE
:100C90000C947E14CF93DF93EC010E944B01CE01A4
:100CA000DF91CF910C947E146115710579F0FB01F1
:100CB00001900020E9F73197AF01461B570BDC018B
:100CC000ED91FC910280F381E02D099480E090E0A9
:100CD00008951F920F920FB60F9211242F933F93F6
:100CE0004F935F936F937F938F939F93AF93BF9334
:100CF000EF93FF9387EF93E00E943005FF91EF9110
:100D0000BF91AF919F918F917F916F915F914F9123
:100D10003F912F910F900FBE0F901F9018951F922B
:100D20000F920FB60F9211242F938F939F93EF93EF
:100D3000FF93E0910704F09108048081E0910D0495
:100D4000F0910E0482FD12C09081809110048F5F9B
:100D50008F7320911104821751F0E0911004F0E09C
:100D6000E950FC4F958F8093100401C08081FF9162
:100D7000EF919F918F912F910F900FBE0F901F9029
:100D8000189508950895AF92BF92CF92DF92EF9297
:100D9000FF920F931F93CF93DF93FC0124812223B3
:100DA00019F0FB01908B8787FC01C281D381EC8015
:100DB000FD8087010F5F1F4FE016F10608F046C067
:100DC0006B018A819B818017910760F59701275FEE
:100DD0003F4F8217930730F5A880B9803B832A8361
:100DE000C901880F991F0E94E91399838883D5014F
:100DF00040E050E04E155F0591F0E881F9819A01DD
:100E0000220F331FE20FF31F309729F08D919C9131
:100E10001197918380834F5F5F4F1296EBCFC5018F
:100E20000E947E148C819D819C01220F331F8017AC
:100E3000910778F4E881F981E20FF31F309711F000
:100E4000D182C08201962E5F3F4FF1CF0E151F0554
:100E500010F41D830C83DF91CF911F910F91FF90B0
:100E6000EF90DF90CF90BF90AF900895FF920F93D7
:100E70001F93CF93DF93EC010F851889011511059E
:100E800021F1FA8087E090E00E94E913DC0189E516
:100E900091E011969C938E9316961C921E92159734
:100EA0001396DC93CE9312971496FC921497E80154
:100EB000E881F9810480F581E02DBD01C801DF9151
:100EC000CF911F910F91FF900994DF91CF911F91C6
:100ED0000F91FF9008951F93CF93DF93EC01162F8E
:100EE00081E591E0998388838FEF8A831B821C823E
:100EF0001D821E8218861F821A8619861C861B86F2
:100F000061E070E080E090E00E94BB15009759F02E
:100F100098878F831A8619862B853C85232BE9F4C5
:100F2000FC0110821AC08F819885009711F00E94F1
:100F30007E1418861F821C861B861A86198681E0FD
:100F400090E09E878D87188A1F861A8360E0812F24
:100F5000DF91CF911F910C94EF0B1C861B8666EAE4
:100F600073E00E949316EBCF21E331E0DC01119690
:100F70003C932E9316968D919C911797009739F07C
:100F8000DC01ED91FC910280F381E02D099408953C
:100F9000CF93DF93EC010E94B407CE01DF91CF9194
:100FA0000C947E148F929F92AF92BF92CF92DF9259
:100FB000EF92FF92CF936115710509F403C2FB0113
:100FC000C280D380FC018281C114D10409F49FC185
:100FD00090910001981721F09F3F09F0F3C104C0E0
:100FE000E8E6F0E0C4917DC080930001E8E6F0E01F
:100FF000C491CF3F09F4E6C1C13029F1C23009F4F0
:1010000049C0C1116EC014BC15BC94B5926094BDAA
:1010100095B5916095BD282F30E0F901E957FF4F54
:10102000E491F0E0EE0FFF1FE358FF4F459154911C
:101030005093BC034093BB03F901E556FF4FE49185
:10104000E093BA0350C010928000109281009091FA
:1010500081009860909381009091810091609093BD
:101060008100282F30E0F901E957FF4FE491F0E0CB
:10107000EE0FFF1FE358FF4F459154915093B90372
:101080004093B803F901E556FF4FE491E093B703AD
:10109000C1E029C01092B0001092B1009091B00050
:1010A00092609093B0009091B10091609093B100E4
:1010B000282F30E0F901E957FF4FE491F0E0EE0FFF
:1010C000FF1FE358FF4F459154915093A90340935C
:1010D000A803F901E556FF4FE491E093AA03C2E0AB
:1010E00002C0C7FD6FC161E00E94EF0BE12CF12C43
:1010F0008C2F8D7F09F0A0C060E072E18AE790E05C
:10110000A70196010E94961549015A01DA01C90109
:101110000197A109B1098F3F9105A105B10509F01A
:101120000CF442C060E472E48FE090E0A701960105
:101130000E949615DA01C9010197A109B109C230CF
:10114000E1F48F3F9105A105B10509F00CF438C118
:1011500060E970ED83E090E0A70196010E9496158A
:10116000DA01C9010197A109B1098F3F9105A105D4
:10117000B10509F08CF523E058C08F3F9105A1051A
:10118000B105A1F09CF068E478EE81E090E0A70161
:1011900096010E949615DA01C9010197A109B109CA
:1011A000CC2309F4EFC0E6C021E001C022E0CC234B
:1011B00071F03BC0D501C4012AE0B595A79597957C
:1011C00087952A95D1F70197A109B10925E035B591
:1011D000387F232B25BD61C068E478EE81E090E084
:1011E000A70196010E949615DA01C9010197A1098C
:1011F000B1098F3F9105A105B10509F00CF492C02A
:1012000064E274EF80E090E0A70196010E949615D9
:10121000DA01C9010197A109B1098F3F9105A10523
:10122000B10511F008F080C025E03091B100387FA1
:10123000232B2093B1002BC060E072E18AE790E09D
:10124000A70196010E949615DA01C9010197A1092B
:10125000B1090097F1E0AF07B10514F431E00EC019
:1012600068E478EE81E090E0A70196010E9496156F
:10127000DA01C9010197A109B10933E0C13039F49C
:1012800020918100287F232B2093810018C0C1303A
:10129000B1F0C23049F1C11195C087BD8FEF9FEF0A
:1012A000DC018093C1039093C203A093C303B09366
:1012B000C40380916E00826080936E0083C090931F
:1012C0008900809388008FEF9FEFDC018093BD033E
:1012D0009093BE03A093BF03B093C00380916F00AF
:1012E000826080936F006EC08093B3008FEF9FEF9A
:1012F000DC018093AB039093AC03A093AD03B09358
:10130000AE03809170008260809370005BC0CF91CB
:10131000FF90EF90DF90CF90BF90AF909F908F9015
:101320000C94BB0024E081CF62E17AE780E090E09A
:10133000A70196010E949615DA01C9010197A1093A
:10134000B1098F3F9105A105B10591F088F0D50154
:10135000C4013AE0B595A795979587953A95D1F749
:101360000197A109B109CC2309F430CF27E05DCF63
:1013700026E01DCF8F3F9105A105B10509F0A4F628
:1013800024E015CF8F3F9105A105B105B9F0B4F068
:1013900062E17AE780E090E0A70196010E9496154D
:1013A000DA01C9010197A109B1098F3F9105A10592
:1013B000B10511F008F0FECE24E009CF23E007CFFD
:1013C00022E033CFCF91FF90EF90DF90CF90BF908E
:1013D000AF909F908F90089508950895EF92FF9297
:1013E0000F931F93CF93DF93DC0116962C911697E2
:1013F0004217B0F57B018C01C42FD0E0CE01880FDD
:10140000991F1796ED91FC911897E80FF91F7183BA
:10141000608315968C9115978F5F15968C9367E670
:1014200073E087EF93E00E944901C7010E94660BB9
:1014300068E773E087EF93E00E944901C8010E94CA
:10144000660B63EC72E087EF93E00E944901CE01E6
:10145000DF91CF911F910F91FF90EF900C94310B82
:10146000DF91CF911F910F91FF90EF900895089514
:10147000CF93DF93BC0187EF93E00E945406EC0109
:1014800064EA73E087EF93E00E9454068C0F9D1F7F
:10149000DF91CF910895EF92FF920F931F93CF9317
:1014A000DF93EC01623018F08F8588608F876B8B3B
:1014B0001C8A80E48D8B80E18E8B80E58F8B61E0D0
:1014C0008C810E94EF0B8D818F3F19F061E00E94AB
:1014D000EF0B61E08E810E94EF0B7E0187E0E80E4A
:1014E000F11C00E010E08F8584FD03C084E090E0F3
:1014F00002C088E090E0081719074CF461E0F7019A
:1015000081917F010E94EF0B0F5F1F4FECCF8BE3A8
:101510009DE00197F1F760E08C810E94BF0B60E0D5
:101520008E810E94BF0B8D818F3F19F060E00E9479
:10153000BF0B6F8564FD1DC063E0CE010E945F0498
:101540000BE416E4C8010197F1F763E0CE010E94B5
:101550005F04C8010197F1F763E0CE010E945F04C8
:1015600083E592E00197F1F762E0CE010E945F040B
:1015700016C06062CE010E94E5048BE496E40197F8
:10158000F1F76F856062CE010E94E50483E592E089
:101590000197F1F76F856062CE010E94E5046F85C7
:1015A0006062CE010E94E50484E0888B6CE0CE018D
:1015B0000E94E50461E0CE010E94E5048BE39FE117
:1015C0000197F1F782E0898B66E0CE01DF91CF9140
:1015D0001F910F91FF90EF900C94E5048F929F92D2
:1015E000AF92BF920F931F93CF93DF93CDB7DEB728
:1015F000A1970FB6F894DEBF0FBECDBF19A242303F
:1016000008F44AE08E010F5D1F4F842E912CA12C0F
:10161000B12CA50194010E947415E62FB901CA01ED
:1016200001501109EA3014F4E05D01C0E95CD80111
:10163000EC93232B242B252B61F7B80187EF93E044
:101640000E945406A1960FB6F894DEBF0FBECDBF20
:10165000DF91CF911F910F91BF90AF909F908F908E
:101660000895CF92DF92EF92FF92CF93DF936C01B8
:10167000990FEE08FF08F7FE14C06DE287EF93E0C4
:101680000E944201EC0166277727CB016C197D0986
:101690008E099F094AE00E94EE0A7C01EC0EFD1EB5
:1016A00006C04AE0C701B6010E94EE0A7C0164EA66
:1016B00073E087EF93E00E9454068E0D9F1DDF912B
:1016C000CF91FF90EF90DF90CF900895CF92DF926F
:1016D000EF92FF92CF93DF936C01990FEE08FF0812
:1016E000F7FE19C06DE287EF93E00E944201EC0122
:1016F00066277727CB016C197D098E099F094AE07F
:101700000E94EE0A8C0F9D1FDF91CF91FF90EF900A
:10171000DF90CF9008954AE0C701B601DF91CF91E5
:10172000FF90EF90DF90CF900C94EE0A833081F021
:1017300028F4813099F08230A1F008958730A9F023
:101740008830B9F08430D1F4809180008F7D03C05F
:10175000809180008F7780938000089584B58F7783
:1017600002C084B58F7D84BD08958091B0008F77CD
:1017700003C08091B0008F7D8093B00008951F93C7
:10178000CF93DF93282F30E0F901E155FF4F84918B
:10179000F901E556FF4FD491F901E957FF4FC49184
:1017A000CC23C9F0162F81110E94960BEC2FF0E08C
:1017B000EE0FFF1FE358FF4FA591B4918FB7F89438
:1017C000111105C09C91ED2FE095E92302C0EC9129
:1017D000ED2BEC938FBFDF91CF911F910895CF93A5
:1017E000DF9390E0FC01E556FF4F2491FC01E9579F
:1017F000FF4F8491882361F190E0880F991FFC01CD
:10180000ED58FF4FC591D491FC01E358FF4FA591CE
:10181000B491611109C09FB7F89488812095822303
:101820008883EC912E230BC0623061F49FB7F8944B
:101830003881822F809583238883EC912E2B2C93E3
:101840009FBF06C08FB7F894E8812E2B28838FBFE7
:10185000DF91CF9108952FB7F8946091E7047091CC
:10186000E8048091E9049091EA042FBF08951F9243
:101870000F920FB60F9211242F933F938F939F9344
:10188000AF93BF938091E7049091E804A091E9049D
:10189000B091EA043091E60423E0230F2D3720F4C1
:1018A0000196A11DB11D05C026E8230F0296A11DBA
:1018B000B11D2093E6048093E7049093E804A0937D
:1018C000E904B093EA048091E2049091E304A091CA
:1018D000E404B091E5040196A11DB11D8093E204DA
:1018E0009093E304A093E404B093E504BF91AF9117
:1018F0009F918F913F912F910F900FBE0F901F904E
:101900001895CF93DF93CDB7DEB728970FB6F8942D
:10191000DEBF0FBECDBF789484B5826084BD84B530
:10192000816084BD85B5826085BD85B5816085BDDA
:1019300080916E00816080936E0010928100809192
:10194000810082608093810080918100816080931A
:101950008100809180008160809380008091B1003F
:1019600084608093B1008091B00081608093B0006A
:1019700080917A00846080937A0080917A008260FE
:1019800080937A0080917A00816080937A008091C0
:101990007A00806880937A001092C100E091070479
:1019A000F091080482E08083E0910304F091040444
:1019B0001082E0910504F09106048FEC8083109270
:1019C0000F04E0910B04F0910C0486E08083E09119
:1019D0000904F0910A04808180618083E091090408
:1019E000F0910A04808188608083E0910904F0917D
:1019F0000A04808180688083E0910904F0910A04E0
:101A000080818F7D80838FE792E00E94380A85E095
:101A100090E00E94E9137C0187E090E00E94E913C6
:101A20008C0188E090E0D80113969C938E931297D6
:101A300015961C921E92149780E190E00E94E91383
:101A4000F80191838083D70113961C930E9312970C
:101A500014961C9214978FE191E08D939C93F092D1
:101A6000B003E092AF036091C8047091C904C7014C
:101A70000E94C3066091C6047091C704C7010E940A
:101A8000C3066091C4047091C504C7010E94C306D7
:101A90006091C2047091C304C7010E94C306E09123
:101AA000C004F091C104F58AE48AD7011296ED9141
:101AB000FC91139784819581880F991F0190F08183
:101AC000E02D8E0F9F1FE817F90739F0A191B19112
:101AD0005096FC92EE921F97F6CF81E0F701848337
:101AE0008CE892E00E94380AE090BE04F090BF04B7
:101AF00080E1D70119968C93199782E01A968C93FE
:101B00001A9712968D919C911397009719F062E0A5
:101B10000E944B0A68E972E087EF93E00E94490156
:101B2000F701838594850E94310BD70158966D91FA
:101B30007C91599740E01B968D919C911C970E9437
:101B4000EE09F701628D738D41E0838594850E94D3
:101B5000EE09D7015C966D917C915D9742E01B96F2
:101B60008D919C911C970E94EE09F701668D778DEF
:101B700043E0838594850E94EE09D7011B960D9161
:101B80001C911C9715968C91159714969C911497FF
:101B9000891708F045C016962C91169717969C91B8
:101BA0001797E22FF92FE80FF11DE80FF11D1183B0
:101BB000008315968C9115978F5F15968C931597CA
:101BC0000115110571F0F801F286E18615968C91E8
:101BD0001597815014969C911497891710F41896B4
:101BE0008C9363EA72E087EF93E00E944901C80199
:101BF0000E94660B62EB72E087EF93E00E9449015E
:101C0000C7010E94660B63EC72E087EF93E00E94CD
:101C10004901D70115968C9190E001970E94310BF4
:101C2000F701848181111086A091BE04B091BF0498
:101C300018968C91189716962C91169717969C913A
:101C40001797E22FF92FE80FF11DE80FF11D208003
:101C500031802114310409F076C088E090E00E94C0
:101C6000E9138C0161E3E62E61E0F62EDC011196AA
:101C7000FC92EE9287E194E013969C938E931297D8
:101C800078EEC72E73E0D72E1596DC92CE9214977D
:101C900088E090E00E94E913FC01F182E082178263
:101CA000168287E295E093838283D582C482D8012D
:101CB0001796FC93EE93169782E190E00E94E91349
:101CC0007C0189E391E0F7019183808386E0828340
:101CD0001382178216821086118612861386158645
:101CE000148617870687118B008B83E090E095831D
:101CF0008483F092B603E092B5030E942B0CF701A7
:101D0000608771878287938782E083836089718986
:101D1000C7010E94D20789EC92E00E94380A0E9413
:101D20002B0C6093B1037093B2038093B303909331
:101D3000B403E3E0CE2ED12CAA24A394B12CA2E0CC
:101D40008A2E912C56C11296ED90FC90139700E0CC
:101D500010E059E2A52E51E0B52ED10115968C91D7
:101D600090E0801791070CF478CFD1011796ED9190
:101D7000FC911897C801880F991FE80FF91FC080C0
:101D8000D180C114D10409F470C012969C9086E0F1
:101D900090E00E94E913FC01692D70E0C8010E94E7
:101DA00060153B01582EB182A08282839383758394
:101DB0006483482EF1018184928462ED72E087EFA2
:101DC00093E00E944901C4010E94310B81149104E7
:101DD00051F0D40119968C91F10162810E94541541
:101DE000859D402C1124862DF4E06F16710408F0B7
:101DF00083E0D70153969C91891710F08FEF890FDC
:101E0000F701E80FF11D6489640D6068C7010E9445
:101E1000E5046CED72E087EF93E00E944901512CDC
:101E2000612C712C4AE0C301B2010E94EE0A6AEEF5
:101E300072E087EF93E00E9449014AE0C301B201DA
:101E40000E94EE0A8CEE92E00E94380A6EEE72E07A
:101E500087EF93E00E944901C6010E94310BF60111
:101E600062817381C7010E9449010F5F1F4F75CFC7
:101E70000E942B0C0091B1031091B2032091B30387
:101E80003091B403DC01CB01801B910BA20BB30B8F
:101E90008C3D9540A105B10508F05CC1D7011396B2
:101EA0008C91882309F4AFC0E090AF03F090B003A9
:101EB000D7011296ED91FC91139700811181D70102
:101EC0001296ED91FC91139784819581880F991F4B
:101ED00020813181820F931F0817190709F0AAC0CA
:101EE0000091C0041091C104F80184852285938576
:101EF000E22FF92FE80FF11DE80FF11D208131814C
:101F0000D80116964D915D916D917C911997421B68
:101F1000530B6109710916964D935D936D937C93F4
:101F2000199715968C918E3008F08E5087708064CA
:101F300080937C0080917A00806480937A00809105
:101F40007A0086FDFCCF809178002091790090E0A6
:101F5000922B91838083F801448522859385E22F1B
:101F6000F92FE40FF11DE40FF11D20813181D8011B
:101F700016964D905D906D907C901997C301B201BB
:101F8000620F731F811D911DF8016683778380871F
:101F9000918731E0340F34872481321708F014869A
:101FA00030E040E050E00E947415D80112968D9107
:101FB0009C9113978217930769F0ED91FC9104802F
:101FC000F581E02DC80129833A834B835C83099511
:101FD0003A812981F801338322830091B50310915E
:101FE000B603D80113968C91823009F44AC00E943E
:101FF000BA05E090B503F090B603F7018381823013
:1020000009F04CCF35CF0E942B0C0091B1031091F9
:10201000B2032091B3033091B403DC01CB01801BE8
:10202000910BA20BB30B883B9B40A105B10508F0B7
:102030009CC03ACFF801219031908F01D1011296C6
:102040002C9130E0F901E155FF4F8491F901E556FB
:10205000FF4F7490F901E957FF4F6490662009F42F
:10206000AAC081110E94960BE62DF0E0EE0FFF1F33
:10207000E759FF4FA591B491EC917E2209F49BC0E2
:102080007FC00E942B0CF801248535852901612C25
:10209000712C2085318542855385421A530A640A82
:1020A000750ADC01CB01840D951DA61DB71D208985
:1020B0003189F9014481558160E070E0841795070A
:1020C000A607B70708F493CFD8011D961C921E925D
:1020D0001C970E942B0CF801608771878287938779
:1020E0000088F189E02D668177816115710531F0F5
:1020F000D80151967C936E93509717C0F801868152
:102100009781019697838683668577858F3FFFEF5A
:102110009F0741F0D80114962D913C911597821795
:1021200093073CF4F801718B608BC8010E94D207C1
:102130005ECFD80113961C92139751967C936E93A1
:1021400050971D961C921E921C9712968C910E947D
:10215000BB004DCF0E942B0C6093B1037093B20370
:102160008093B3039093B40399CE0E942B0C609399
:10217000B1037093B2038093B3039093B40394CEEE
:10218000F10185859685019709F499CE0E942B0C63
:10219000D10113964D905D906D907C901697DC0167
:1021A000CB0184199509A609B709C397A105B10503
:1021B00008F050C084CED1011D968D919C911E9740
:1021C000009719F50E942B0CF10143805480658023
:1021D0007680DC01CB0184199509A609B709843FF3
:1021E0009140A105B10508F46ACED1011D968D91EB
:1021F0009C911E97039709F462CE1E96DC92CE92B4
:102200001D97C1010E9436075ACE019709F057CE9B
:102210000E942B0CF1014380548065807680DC01A4
:10222000CB0184199509A609B709C397A105B10582
:1022300008F445CEF10116861586C1010E943607C5
:102240000E942B0CD10113966D937D938D939C93DB
:10225000169735CEF10185859685892B31F4F101EC
:1022600096868586C1010E943607D1011E96BC92D2
:10227000AE921D97C1010E9436070E942B0CF101FE
:1022800063837483858396831ACE89EC93E00E94DE
:10229000DF0284E994E00C942D03BF92CF92DF9289
:1022A000EF92FF920F931F93CF93DF9387EF93E00B
:1022B0001092FA031092F90348EE53E060E070E0E8
:1022C0004093FB035093FC036093FD037093FE0364
:1022D00029E831E03093F8032093F70325EC30E050
:1022E000309304042093030424EC30E0309306047C
:1022F0002093050420EC30E0309308042093070479
:1023000021EC30E030930A042093090422EC30E001
:1023100030930C0420930B0426EC30E030930E0431
:1023200020930D04109210041092110410921204C4
:102330001092130461E270E07093AC046093AB04FC
:102340001092AD041092AE041092AF0436E0C32E8A
:10235000D12CE12CF12CC092B004D092B104E092C7
:10236000B204F092B3041092B4041092B504109227
:10237000B6041092B70440E24093B8041092BA0435
:102380001092B9041092BD0426E934E03093BC04E5
:102390002093BB0429E232E0309395042093940407
:1023A00023E332E03093A9042093A80410929A0406
:1023B0001092990410929C0410929B0410929E0417
:1023C00010929D041092A00410929F041092A204F7
:1023D0001092A1041092A4041092A30427E032E00A
:1023E00030939704209396049093A7048093A604B7
:1023F00050E15093A5047093E5036093E4031092B9
:10240000E6031092E7031092E803C092E903D0922A
:10241000EA03E092EB03F092EC031092ED031092CA
:10242000EE031092EF031092F0034093F103109229
:10243000F3031092F2031092F6031092CB03109262
:10244000CC031092CD031092CE034FEC53E0509387
:10245000F5034093F40341EB51E05093CA034093DA
:10246000C9034BEB51E05093E2034093E103109218
:10247000D3031092D2031092D5031092D40310927A
:10248000D7031092D6031092D9031092D80310925A
:10249000DB031092DA031092DD031092DC03309319
:1024A000D0032093CF039093E0038093DF0328E0D1
:1024B0002093DE031092C8031092C7039093C603C3
:1024C0008093C50361E772E089E892E00E9482137D
:1024D0009093C8038093C70381E190E00E94E913C1
:1024E000EC016EE00E946B07D093C904C093C8044E
:1024F00081E190E00E94E913EC016FE00E946B071C
:10250000D093C704C093C60481E190E00E94E91310
:10251000EC0160E10E946B07D093C504C093C40432
:1025200081E190E00E94E913EC0161E10E946B07F8
:10253000D093C304C093C20486E190E00E94E913E3
:10254000EC018FE692E0998388831B821A8285E0F2
:102550008D831E821F82188619861C861E861D8604
:102560008CE090E00E94E9138A879B8726E02C8309
:10257000FC010C96E817F90719F011921192FACFA5
:1025800089E792E0998388831F861D8A1C8A8EE1E1
:1025900090E0998B888B82E390E09B8B8A8BD09321
:1025A000C104C093C0041092CD041092CC048BE5FA
:1025B00092E09093CB048093CA048CE08093CE0485
:1025C0001FEF1093CF048BE08093D00485E08093BD
:1025D000D10484E0B82EB092D20483E08093D30477
:1025E00092E0E92EE092D4041092D5041092D60421
:1025F0001092D7041092D8041092D90461E08AECAA
:1026000094E00E944B0A80E290E00E94E913EC0102
:102610008AEC94E09B838A831D82188719861A8628
:10262000FF24F394FC8282E090E00E94E9139F83F0
:102630008E8383E592E0998388838BE090E00E940B
:10264000E9138C012BE4C22E22E0D22EFC01D182B0
:10265000C0821482158212861186B68288E090E0CC
:102660000E94E913F80190878783E282E3821C8746
:102670000B87DE86CD86FF86F88A198A1A8A1F8A1A
:102680001E8AFB8A82E090E00E94E9139D8B8C8B6E
:1026900086E090E00E94E9138C0168E873E00E94F4
:1026A0003804198F088F86E090E00E94E9138C01AE
:1026B0006FE873E00E9438041B8F0A8F86E090E079
:1026C0000E94E9138C0166E973E00E9438041D8FB3
:1026D0000C8F86E090E00E94E9138C016DE973E0B5
:1026E0000E9438041F8F0E8FD093BF04C093BE0486
:1026F000DF91CF911F910F91FF90EF90DF90CF90DE
:10270000BF9008950F931F93CF93DF93009731F4F9
:102710006115710519F480E090E03AC08B01EC017D
:102720006EE070E081E090E00E94CD13FC01892B07
:1027300091F380E883830115110571F013870287F7
:1027400081E883838091EB049091EC04892B21F440
:10275000F093EC04E093EB042097C9F0D187C08795
:102760008381826083838091ED049091EE04892BB4
:1027700071F4F093EE04E093ED048091EF049091F6
:10278000F004892B21F4F093F004E093EF04CF01DF
:10279000DF91CF911F910F9108950F931F93CF93C6
:1027A000DF93869F8001879F100D969F100D112447
:1027B000C8010E94E913EC01009729F0A80160E02C
:1027C00070E00E941615CE01DF91CF911F910F91FD
:1027D0000895CF93DF938230910510F482E090E06A
:1027E000E091F304F091F40420E030E0C0E0D0E0A8
:1027F000309711F14081518148175907C0F04817AF
:10280000590761F482819381209719F09B838A8311
:102810002BC09093F4048093F30426C02115310556
:1028200019F04217530718F49A01BE01DF01EF01B6
:102830000280F381E02DDCCF2115310509F1281B41
:10284000390B2430310590F412968D919C91139799
:102850006115710521F0FB019383828304C090937D
:10286000F4048093F304FD01329644C0FD01E20FAD
:10287000F31F81939193225031092D933C933AC0D9
:102880002091F1043091F204232B41F420910301B3
:10289000309104013093F2042093F104209101015E
:1028A000309102012115310541F42DB73EB7409119
:1028B000050150910601241B350BE091F104F091C4
:1028C000F204E217F307A0F42E1B3F0B2817390779
:1028D00078F0AC014E5F5F4F2417350748F04E0F7C
:1028E0005F1F5093F2044093F1048193919302C0CF
:1028F000E0E0F0E0CF01DF91CF9108950F931F93B7
:10290000CF93DF93009709F48CC0FC0132971382B8
:1029100012820091F3041091F4040115110581F461
:1029200020813181820F931F2091F1043091F204B4
:102930002817390779F5F093F204E093F10471C098
:10294000D80140E050E0AE17BF0750F412962D9129
:102950003C911397AD012115310509F1D901F3CF50
:102960009D01DA013383228360817181860F971F75
:102970008217930769F4EC0128813981260F371FEC
:102980002E5F3F4F318320838A819B819383828393
:10299000452B29F4F093F404E093F30442C013961A
:1029A000FC93EE931297ED01499159919E01240FEA
:1029B000351FE217F30771F480819181840F951F11
:1029C000029611969C938E938281938113969C9389
:1029D0008E931297E0E0F0E0D80112968D919C91D1
:1029E0001397009719F0F8018C01F6CF8D919C9107
:1029F00098012E5F3F4F820F931F2091F104309179
:102A0000F2042817390769F4309729F41092F40476
:102A10001092F30402C0138212821093F204009306
:102A2000F104DF91CF911F910F910895DC0101C056
:102A30006D9341505040E0F708952F923F924F928E
:102A40005F926F927F928F929F92AF92BF92CF923E
:102A5000DF92EF92FF920F931F93CF93DF93CDB747
:102A6000DEB7CA1BDB0B0FB6F894DEBF0FBECDBFBF
:102A700009942A88398848885F846E847D848C8490
:102A80009B84AA84B984C884DF80EE80FD800C8199
:102A90001B81AA81B981CE0FD11D0FB6F894DEBF7C
:102AA0000FBECDBFED010895991B79E004C0991FB9
:102AB000961708F0961B881F7A95C9F78095089598
:102AC000AA1BBB1B51E107C0AA1FBB1FA617B70754
:102AD00010F0A61BB70B881F991F5A95A9F7809570
:102AE0009095BC01CD010895A1E21A2EAA1BBB1B33
:102AF000FD010DC0AA1FBB1FEE1FFF1FA217B307CA
:102B0000E407F50720F0A21BB30BE40BF50B661FDF
:102B1000771F881F991F1A9469F7609570958095A3
:102B200090959B01AC01BD01CF010895052E97FB47
:102B30001EF400940E94AD1557FD07D00E94741535
:102B400007FC03D04EF40C94AD155095409530958C
:102B500021953F4F4F4F5F4F089590958095709509
:102B600061957F4F8F4F9F4F0895EE0FFF1F059088
:102B7000F491E02D0994A0E0B0E0E1ECF5E10C94D3
:102B80002115EC01009721F4CB010E94E913B8C094
:102B9000FC01E60FF71F9C0122503109E217F307F1
:102BA00008F4ACC0D9010D911C91119706171707B5
:102BB000B0F00530110508F49FC0C80104978617CE
:102BC000970708F499C002501109061B170B0193CF
:102BD00011936D937C93CF010E947E148DC05B0195
:102BE000A01AB10A4C01800E911EA091F304B0917D
:102BF000F40440E050E0E12CF12C109709F44AC0B5
:102C0000A815B905D1F56D907C901197630182E00C
:102C1000C80ED11CCA14DB0480F1A3014A195B0958
:102C20006A0182E0C80ED11C1296BC9012971396CE
:102C3000AC91B5E0CB16D10440F0B282A3835183AE
:102C40004083D9016D937C930AC00E5F1F4FC3016F
:102C5000800F911FF90191838083EB2DFA2FE114EE
:102C6000F10431F0D7011396FC93EE93129744C010
:102C7000F093F404E093F3043FC08D919C9111977D
:102C80004817590708F4AC017D0112960D90BC91CC
:102C9000A02DB3CF8091F1049091F204881599058D
:102CA000E1F446175707C8F48091010190910201A1
:102CB000009741F48DB79EB74091050150910601F0
:102CC000841B950BE817F907C8F4F093F204E0931E
:102CD000F104F901718360830FC0CB010E94E913F5
:102CE0007C01009759F0A801BE010E948A16CE010E
:102CF0000E947E14C70104C0CE0102C080E090E0B3
:102D0000CDB7DEB7EEE00C943D1581E090E0F8948D
:102D10000C949A16FB01DC0102C001900D92415007
:102D20005040D8F70895FB01DC0101900D9200207E
:102D3000E1F7089510E0C3E6D0E004C0FE010E9470
:0E2D4000B5152196C436D107C9F7F894FFCF18
:102D4E00FF0000F50480000000000000000000B944
:102D5E00000000000000000000B90000000000E8C4
:102D6E00045A03E603000000005A04B802000000F3
:102D7E0000B407C80700000000EC0944060000007C
:102D8E00005F01B602000000004B014A0600000081
:102D9E000031063A06000000005804B20218000086
:102DAE0000000000000000E8FFE8FF000000000047
:102DBE000014000000000000000000ECFFECFF001B
:102DCE0000000000000000000051058E00E904988C
:102DDE00051A05F8040C05060000000000BE02C02E
:102DEE0002FAFFFAFF0000BF02C202180000000044
:102DFE0000DF02F602E8FFE8FF0000EC020003B17C
:102E0E000163016D01BB01000000005C04BC027097
:102E1E00026D026A0267026402DB01D701D401BEB1
:102E2E0001DE01620160010200000000000C030ED1
:102E3E0003FEFFFEFF00000D031003000000005E06
:102E4E00045803000000005D040A0370026D026A5C
:102E5E00026702640258021202F901E001DE017DEE
:102E6E00035C031400000000002D034403ECFFEC90
:102E7E00FF00003A034E032902770181013302005D
:102E8E00000000ED09460600000000370A48060063
:102E9E000000005B04BA0200000000DF048E00AFE9
:102EAE0002AE02000000005904B40200000000C28D
:102EBE00062F06C40500000000C1062D060B0653A2
:102ECE0074617274696E67202E2E2E00475549204C
:102EDE00696E69742E2E2E004672616D65206973BF
:102EEE003A2000416464696E67204672616D653AEE
:102EFE00200020696E746F20434453637265656EC3
:102F0E003A20002061743A20005374617274656433
:102F1E00210020706172656E743A20005365742032
:102F2E00637572736F723A205B002C005D005072F5
:102F3E00696E74696E6720456C656D656E743A20B6
:102F4E00006F6E436173654F70656E006F6E436107
:102F5E007365436C6F7365006F6E4261636B006FD8
:102F6E006E52657475726E006F6E456E746572008A
:102F7E006F6E4F4B006F6E466F7277617264006FAB
:102F8E006E46617374466F7277617264006F6E4243
:102F9E0061636B77617264006F6E46617374426138
:102FAE00636B7761726400416464696E6720456C7F
:102FBE00656D656E743A200020696E746F2043440F
:102FCE004672616D653A20006C6162656C31006C11
:102FDE006162656C32006C6162656C33006C6162BB
:082FEE00656C34000D0A0000BF
:00000001FF
