:100000000C9464000C948C000C948C000C948C0068
:100010000C948C000C948C000C948C000C94ED05CA
:100020000C948C000C948C000C948C000C948C0020
:100030000C948C000C948C000C948C000C948C0010
:100040000C9449070C948C000C94BF060C949906F0
:100050000C948C000C948C000C948C000C948C00F0
:100060000C948C000C948C000000000024002700ED
:100070002A0000000000250028002B0002000000DC
:1000800000230026002900040404040404040402DC
:100090000202020202030303030303010204081025
:1000A00020408001020408102001020408102000F2
:1000B0000000080002010000030407000000000027
:1000C00000000000D809930711241FBECFEFD8E02D
:1000D000DEBFCDBF12E0A0E0B1E0E0E8FCE102C08D
:1000E00005900D92A23BB107D9F723E0A2EBB2E055
:1000F00001C01D92A33DB207E1F710E0C3E6D0E0D6
:1001000004C02197FE010E944E0DC236D107C9F7E7
:100110000E949B070C94330E0C940000FC01A585F3
:10012000B685109761F0ED91FC911197AC014E5F8F
:100130005F4F0480F581E02DBC01CD010994089545
:10014000CB0108957F928F929F92AF92BF92CF92F0
:10015000DF92EF92FF920F931F93CF93DF93EC0107
:1001600049015A018B01C12CD12C7601C814D90444
:10017000EA04FB0484F5F80171908F018F8580FFFC
:100180000BC0E881F9810084F185E02D20E144E095
:1001900060E070E0CE010995EB85FC858D859E853C
:1001A000E817F90738F470828B859C8501969C8747
:1001B0008B870BC0E881F981672D70E0028CF38D8D
:1001C000E02DCE010995019649F02FEFC21AD20A0F
:1001D000E20AF20ACBCFB401C50102C0B601C701E1
:1001E000DF91CF911F910F91FF90EF90DF90CF9013
:1001F000BF90AF909F908F907F900895CF93DF93A3
:10020000EC01E881F9810288F389E02D09958F3F9F
:100210002FEF920731F02D813E812F5F3F4F3E83BC
:100220002D83DF91CF9108958FEF9FEF089560E0C8
:1002300070E0CB01089580E090E00895CB0108952F
:10024000CF93DF93EC0188899989DC01ED91FC91D2
:100250000084F185E02D0995892BA9F38889998976
:10026000DC01ED91FC910284F385E02DDF91CF91CB
:100270000994CF93DF93EC0188899989DC01ED9192
:10028000FC910084F185E02D0995892BA9F38889DB
:100290009989DC01ED91FC910484F585E02DDF91D5
:1002A000CF910994AF92BF92CF92DF92EF92FF92DB
:1002B0000F931F93CF93DF9300D000D0CDB7DEB75D
:1002C0008C015B01C12CD12C7601F80180899189C8
:1002D000DC01ED91FC910284F385E02D29833A83C2
:1002E0004B835C83099529813A814B815C818F3FE7
:1002F00071F0C216D306E406F5064CF4D5018D93D1
:100300005D01BFEFCB1ADB0AEB0AFB0ADECFC701A8
:10031000B6010F900F900F900F90DF91CF911F912A
:100320000F91FF90EF90DF90CF90BF90AF90089526
:10033000DC0150968D919C915197DC01ED91FC91DF
:100340000084F185E02D099480E090E0089580E03C
:1003500090E0089580E090E0089580E090E00895B6
:100360000895CF93DF93C091BF02D091C002E8817E
:10037000F9810084F185E02DCE010995892BB9F32F
:10038000E881F9810284F385E02DCE01DF91CF91E0
:1003900009941F93CF93DF93182FC091BF02D09180
:1003A000C0028A3041F4E881F9810190F081E02DAA
:1003B0006DE0CE010995E881F9810190F081E02D91
:1003C000612FCE01099521E030E0019711F420E082
:1003D00030E0C901DF91CF911F910895089580E029
:1003E00090E008950C94560C0C94560C2BE031E0E0
:1003F000FC0131832083878190850C94560CCF9328
:10040000DF93EC010E94F601CE01DF91CF910C94B5
:10041000560C0C94560C0C94560C0C94560C0895D7
:1004200008950C94560CDC01ED91FC9136972081D7
:100430003181820F931F0C941102FB0120813181C5
:10044000FC0131832083FB0142815381F9013697FE
:1004500020813181FC01E20FF31F51834083089515
:1004600029E831E0FC013183208323E931E0318F39
:10047000208F69E971E00C941D02DC01ED91FC9183
:10048000369720813181820F931F0C943002CF93D5
:10049000DF93EC010E943002CE01DF91CF910C94EA
:1004A000560CDC01ED91FC91369720813181820F51
:1004B000931F0C9447020C94560C089508950C94C5
:1004C000560CDC01ED91FC91369720813181820F31
:1004D000931F0C945F02FB0120813181FC01318369
:1004E0002083FB0142815381F901369720813181BC
:1004F000FC01E20FF31F51834083089521E032E0B5
:10050000FC01318320832BE032E0358B248B61E1C9
:1005100072E00C946B02DC01ED91FC913697208126
:100520003181820F931F0C947E02CF93DF93EC01F5
:100530000E947E02CE01DF91CF910C94560CDC011B
:10054000ED91FC91369720813181820F931F0C949D
:1005500095020C94560C0F931F93CF93DF938C014D
:10056000EB016F3F8FEF780719F480E090E00FC048
:100570006A3031F46DE0F801808991890E94920619
:100580006C2FF801808991890E949206CE01DF913B
:10059000CF911F910F9108958F929F92BF92CF920A
:1005A000DF92EF92FF920F931F93CF93DF9300D0D0
:1005B00000D0CDB7DEB78C014B01C12CD12C760118
:1005C000C216D306E406F50644F5F401B1904F01D6
:1005D000FAE0BF120EC06DE0F8018089918929838D
:1005E0003A834B835C830E9492065C814B813A8103
:1005F00029816B2DF8018089918929833A834B8366
:100600005C830E949206FFEFCF1ADF0AEF0AFF0A0F
:100610005C814B813A812981D3CFCA01B9010F9006
:100620000F900F900F90DF91CF911F910F91FF903E
:10063000EF90DF90CF90BF909F908F9008956115BD
:10064000710509F44DC0DB011296ED91FC911397F1
:10065000228114968C91853049F48785882319F07E
:1006600083E392E03BC08EE392E038C085859685B7
:100670002F30A1F018F42E3031F008952031C9F058
:10068000213111F108958230910519F48AE492E044
:1006900025C0039729F581E592E020C082309105BD
:1006A00019F48AE592E01AC00397D1F482E692E049
:1006B00015C08230910519F487E692E00FC00397C8
:1006C00079F481E792E00AC08230910519F48FE74E
:1006D00092E004C0039721F48AE892E00C94F206B9
:1006E000089508950895AF92BF92CF92DF92EF924E
:1006F000FF920F931F93CF93DF93FC01248122235A
:1007000019F0FB01908B8787FC01C281D381EC80BB
:10071000FD8087010F5F1F4FE016F10608F046C00D
:100720006B018A819B818017910760F59701275F94
:100730003F4F8217930730F5A880B9803B832A8307
:10074000C901880F991F0E94C10B99838883D50125
:1007500040E050E04E155F0591F0E881F9819A0183
:10076000220F331FE20FF31F309729F08D919C91D8
:100770001197918380834F5F5F4F1296EBCFC50136
:100780000E94560C8C819D819C01220F331F801783
:10079000910778F4E881F981E20FF31F309711F0A7
:1007A000D182C08201962E5F3F4FF1CF0E151F05FB
:1007B00010F41D830C83DF91CF911F910F91FF9057
:1007C000EF90DF90CF90BF90AF900895FF920F937E
:1007D0001F93CF93DF93EC010F8518890115110545
:1007E00021F1FA8087E090E00E94C10BDC0183E1F7
:1007F00091E011969C938E9316961C921E921597DB
:100800001396DC93CE9312971496FC921497E801FA
:10081000E881F9810480F581E02DBD01C801DF91F7
:10082000CF911F910F91FF900994DF91CF911F916C
:100830000F91FF9008951F93CF93DF93EC01162F34
:100840008BE091E0998388838FEF8A831B821C82DF
:100850001D821E8218861F821A8619861C861B8698
:1008600061E070E080E090E00E94540D009761F03C
:1008700098878F831A8619862B853C85232B09F050
:100880003BC0FC01108238C08F819885009711F021
:100890000E94560C18861F821C861B861A86198693
:1008A00081E090E09E878D87188A1F861A83612FCA
:1008B00070E0FB01E556FF4F2491FB01E957FF4F24
:1008C0008491882301F190E0880F991FFC01E85979
:1008D000FF4FC591D491FC01EE58FF4FA591B49103
:1008E0009FB7F8948881E22FE0958E2388838C91BE
:1008F000E823EC939FBF07C01C861B8660EB72E069
:100900000E942C0ECDCFDF91CF911F9108950895B5
:100910000895089508950895CF92DF92EF92FF927F
:100920000F931F93CF93DF936C017A018B01C0E08B
:10093000D0E0CE15DF0589F0D8016D918D01D6018B
:10094000ED91FC910190F081E02DC6010995892B74
:1009500011F47E0102C02196ECCFC701DF91CF9147
:100960001F910F91FF90EF90DF90CF900895FC01C1
:10097000538D448D252F30E0842F90E0821B930B04
:10098000541710F0CF96089501970895FC01918DAA
:10099000828D981761F0828DDF01A80FB11D5D96E1
:1009A0008C91928D9F5F9F73928F90E008958FEF4F
:1009B0009FEF0895FC01918D828D981731F0828D03
:1009C000E80FF11D858D90E008958FEF9FEF08955A
:1009D000FC01918D228D892F90E0805C9F4F821BBE
:1009E00091098F73992708958FEE92E00E94E80491
:1009F00021E0892B09F420E0822F0895FC01848DE9
:100A0000DF01A80FB11DA35ABF4F2C91848D90E038
:100A100001968F739927848FA689B7892C93A08913
:100A2000B1898C9180648C93938D848D981306C0CA
:100A30000288F389E02D80818F7D80830895EF9275
:100A4000FF920F931F93CF93DF93EC0181E0888F88
:100A50009B8D8C8D981305C0E889F989808185FD6F
:100A600024C0F62E0B8D10E00F5F1F4F0F73112760
:100A7000E02E8C8DE8120CC00FB607FCFACFE88987
:100A8000F989808185FFF5CFCE010E94FE04F1CF68
:100A90008B8DFE01E80FF11DE35AFF4FF0820B8FA3
:100AA000EA89FB898081806207C0EE89FF896083C3
:100AB000E889F98980818064808381E090E0DF911A
:100AC000CF911F910F91FF90EF900895CF93DF93F7
:100AD000EC01888D8823C9F0EA89FB89808185FD36
:100AE00005C0A889B9898C9186FD0FC00FB607FC97
:100AF000F5CF808185FFF2CFA889B9898C9185FFD8
:100B0000EDCFCE010E94FE04E7CFDF91CF91089593
:100B100080E090E0892B29F00E94F40481110C946C
:100B200000000895FF920F931F93CF93DF93EC0182
:100B30000C891D890115110521F1FD8087E090E0E8
:100B40000E94C10BDC0183E191E011969C938E938E
:100B500016961C921E9215971396DC93CE931297BD
:100B60001496FC921497E801E881F9810480F581DC
:100B7000E02DBD01C801DF91CF911F910F91FF9032
:100B80000994DF91CF911F910F91FF900895CF931A
:100B9000DF93EC010E948E004F85888999892A8114
:100BA0003B8141110AC04A895B89840F951F281730
:100BB000390760F081E08F8704C08217930730F017
:100BC0001F86CE01DF91CF910C949205DF91CF91DA
:100BD00008950E941E0E0C94560C1F920F920FB691
:100BE0000F9211242F933F934F935F936F937F93B3
:100BF0008F939F93AF93BF93CF93DF93EF93FF9325
:100C00008091B5029091B602A091B702B091B8025E
:100C1000892B8A2B8B2B59F18091B402E091B2027F
:100C2000F091B3029081892780838091B5029091E1
:100C3000B602A091B702B091B802181619061A06AA
:100C40001B060CF05CC08091B5029091B602A09199
:100C5000B702B091B8020197A109B1098093B5021A
:100C60009093B602A093B702B093B80248C0209107
:100C70000001ECE7F0E0E4918FEF80930001E130B8
:100C8000B9F098F0E230C9F4809170008D7F8093C4
:100C9000700081E08093B0008091B100887F846013
:100CA0008093B1001092B30008C010926E0005C08E
:100CB00080916F008D7F80936F0030E0F901E155E6
:100CC000FF4F8491F901E556FF4FD491F901E9579F
:100CD000FF4FC491CC2399F081110E941407EC2F8F
:100CE000F0E0EE0FFF1FEE58FF4FA591B4918FB7C4
:100CF000F8949C91ED2FE095E923EC938FBFFF9141
:100D0000EF91DF91CF91BF91AF919F918F917F91A3
:100D10006F915F914F913F912F910F900FBE0F9068
:100D20001F901895DC01ED91FC910190F081E02D70
:100D300009941F920F920FB60F9211242F933F9395
:100D40004F935F936F937F938F939F93AF93BF93D3
:100D5000EF93FF938FEE92E00E94FE04FF91EF91DC
:100D6000BF91AF919F918F917F916F915F914F91C3
:100D70003F912F910F900FBE0F901F9018951F92CB
:100D80000F920FB60F9211242F938F939F93EF938F
:100D9000FF93E091FF02F09100038081E091050351
:100DA000F091060382FD12C09081809108038F5F4D
:100DB0008F7320910903821751F0E0910803F0E04E
:100DC000E151FD4F958F8093080301C08081FF9111
:100DD000EF919F918F912F910F900FBE0F901F90C9
:100DE00018950895CF93DF93009779F0FC01019057
:100DF0000020E9F73197AF01481B590BBC018FEE7A
:100E000092E00E948C04EC0102C0C0E0D0E042E01D
:100E100050E06EEA72E08FEE92E00E948C048C0F3C
:100E20009D1FDF91CF910895833081F028F48130A8
:100E300099F08230A1F008958730A9F08830B9F098
:100E40008430D1F4809180008F7D03C08091800038
:100E50008F7780938000089584B58F7702C084B522
:100E60008F7D84BD08958091B0008F7703C08091FD
:100E7000B0008F7D8093B00008952FB7F8946091F3
:100E8000C5037091C6038091C7039091C8032FBF1B
:100E900008951F920F920FB60F9211242F933F9334
:100EA0008F939F93AF93BF938091C5039091C60397
:100EB000A091C703B091C8033091C40323E0230F6E
:100EC0002D3720F40196A11DB11D05C026E8230F82
:100ED0000296A11DB11D2093C4038093C503909376
:100EE000C603A093C703B093C8038091C003909139
:100EF000C103A091C203B091C3030196A11DB11D0E
:100F00008093C0039093C103A093C203B093C30323
:100F1000BF91AF919F918F913F912F910F900FBEF5
:100F20000F901F90189581EC92E00E9430028CE89F
:100F300093E00C947E02CF93DF9300D000D0CDB726
:100F4000DEB7789484B5826084BD84B5816084BD49
:100F500085B5826085BD85B5816085BD80916E0057
:100F6000816080936E001092810080918100826088
:100F700080938100809181008160809381008091C5
:100F800080008160809380008091B10084608093B4
:100F9000B1008091B00081608093B00080917A00B0
:100FA000846080937A0080917A00826080937A00D6
:100FB00080917A00816080937A0080917A008068C5
:100FC00080937A001092C100E091FF02F09100033B
:100FD00082E08083E091FB02F091FC021082E091BC
:100FE000FD02F091FE028FEC808310920703E091E6
:100FF0000303F091040386E08083E0910103F09104
:101000000203808180618083E0910103F0910203FB
:10101000808188608083E0910103F09102038081E8
:1010200080688083E0910103F091020380818F7DCD
:10103000808389E992E00E94F20685E090E00E94B8
:10104000C10B7C0187E090E00E94C10B8C0188E01D
:1010500090E0D80113969C938E93129715961C924C
:101060001E92149780E190E00E94C10BF8019183D9
:101070008083D70113961C930E93129714961C929B
:1010800014978FE291E08D939C93F092BE02E092D0
:10109000BD026091BE037091BF03C7010E9473033C
:1010A0006091BC037091BD03C7010E9473036091FE
:1010B000BA037091BB03C7010E9473036091B80328
:1010C0007091B903C7010E947303E091B603F091D8
:1010D000B703F58AE48AD7011296ED91FC91139734
:1010E00084819581880F991F0190F081E02D8E0FEA
:1010F0009F1FE817F90739F0A191B1915096FC9222
:10110000EE921F97F6CF81E0F70184830E943D079E
:101110006093B9027093BA028093BB029093BC02B1
:1011200085EA92E00E94F20643E0C42ED12CAA2464
:10113000A394B12C62E0862E912CE090BD02F09039
:10114000BE02D7011296ED91FC9113970081118197
:10115000D7011296ED91FC91139784819581880FA8
:10116000991F20813181820F931F0817190739F1C8
:10117000F801219031908F01D10112962C9130E02D
:10118000F901E155FF4F8491F901E556FF4F749045
:10119000F901E957FF4F6490662009F490C081116E
:1011A0000E941407E62DF0E0EE0FFF1FE358FF4FFB
:1011B000A591B491EC917E2209F481C0CCC000913C
:1011C000B6031091B703F801848522859385E22F39
:1011D000F92FE80FF11DE80FF11D20813181D801B1
:1011E00016964D915D916D917C911997421B530B11
:1011F0006109710916964D935D936D937C931997D0
:1012000015968C918E3008F08E5087708064809394
:101210007C0080917A00806480937A0080917A00CB
:1012200086FDFCCF809178002091790090E0922B90
:1012300091838083F801448522859385E22FF92FDD
:10124000E40FF11DE40FF11D20813181D8011696C4
:101250004D905D906D907C901997C301B201620F23
:10126000731F811D911DF8016683778380879187A5
:1012700031E0340F34872481321708F0148630E0CF
:1012800040E050E00E942C0DD80112968D919C9167
:1012900013978217930769F0ED91FC910480F58113
:1012A000E02DC80129833A834B835C8309953A81F9
:1012B0002981F801338322830E9488053ECFD10122
:1012C0001D968D919C911E97009719F50E943D07E0
:1012D000F1014380548065807680DC01CB01841964
:1012E0009509A609B709843F9140A105B10508F405
:1012F0002FCFD1011D968D919C911E97039709F4D4
:1013000027CF1E96DC92CE921D97C1010E94E60364
:101310001FCF019709F01CCF0E943D07F1014380C8
:10132000548065807680DC01CB0184199509A6097B
:10133000B709C397A105B10508F40ACF168615862B
:10134000C1010E94E6030E943D07F101638374839B
:1013500085839683FDCEF10185859685019709F4F5
:10136000F7CE0E943D07D10113964D905D906D9090
:101370007C901697DC01CB0184199509A609B70961
:10138000C397A105B10508F4E3CED1011D968D9157
:101390009C911E97892B31F4F10196868586C101B7
:1013A0000E94E603D1011E96BC92AE921D97C8CF53
:1013B000CF92DF92EF92FF92CF93DF938FEE92E086
:1013C0001092F2021092F10248EE53E060E070E0F9
:1013D0004093F3025093F4026093F5027093F60287
:1013E00021E631E03093F0022093EF0225EC30E06B
:1013F0003093FC022093FB0224EC30E03093FE0299
:101400002093FD0220EC30E0309300032093FF0294
:1014100021EC30E0309302032093010322EC30E012
:10142000309304032093030326EC30E0309306034B
:1014300020930503109208031092090310920A03E7
:1014400010920B0361E270E07093A4036093A30316
:101450001092A5031092A6031092A70326E0C22EB5
:10146000D12CE12CF12CC092A803D092A903E092D8
:10147000AA03F092AB031092AC031092AD0310924A
:10148000AE031092AF0340E24093B0031092B20358
:101490001092B1031092B5032EE833E03093B403F9
:1014A0002093B30321E032E030938D0320938C032B
:1014B0002BE032E03093A1032093A003109292031B
:1014C000109291031092940310929303109296033A
:1014D00010929503109298031092970310929A031A
:1014E0001092990310929C0310929B032FED31E010
:1014F00030938F0320938E0390939F0380939E03DA
:1015000050E150939D037093DD026093DC021092D2
:10151000DE021092DF021092E002C092E102D0924D
:10152000E202E092E302F092E4021092E5021092ED
:10153000E6021092E7021092E8024093E90210924C
:10154000EB021092EA021092EE021092C302109285
:10155000C4021092C5021092C60247EC52E05093AA
:10156000ED024093EC0249E851E05093C2024093EF
:10157000C10243E951E05093DA024093D90210923C
:10158000CB021092CA021092CD021092CC0210929D
:10159000CF021092CE021092D1021092D00210927D
:1015A000D3021092D2021092D5021092D40230933C
:1015B000C8022093C7029093D8028093D70228E0F4
:1015C0002093D6029093C0028093BF0261EB71E03A
:1015D00089EC91E00E945A0B81E190E00E94C10BDE
:1015E000EC016EE00E941B04D093BF03C093BE03C6
:1015F00081E190E00E94C10BEC016FE00E941B04AE
:10160000D093BD03C093BC0381E190E00E94C10B65
:10161000EC0160E10E941B04D093BB03C093BA03AA
:1016200081E190E00E94C10BEC0161E10E941B048A
:10163000D093B903C093B80386E190E00E94C10B38
:10164000EC0183E292E0998388831B821A8285E011
:101650008D831E821F82188619861C861E861D8613
:101660008CE090E00E94C10B8A879B8726E02C8348
:10167000FC010C96E817F90719F011921192FACFB4
:101680008DE292E0998388831F861D8A1C8A8EE1F1
:1016900090E0998B888B82E390E09B8B8A8BD09330
:1016A000B703C093B603DF91CF91FF90EF90DF9027
:1016B000CF9008950F931F93CF93DF93009731F44A
:1016C0006115710519F480E090E03AC08B01EC01DE
:1016D0006EE070E081E090E00E94A50BFC01892B98
:1016E00091F380E883830115110571F01387028758
:1016F00081E883838091C9039091CA03892B21F4E7
:10170000F093CA03E093C9032097C9F0D187C0873B
:101710008381826083838091CB039091CC03892B5A
:1017200071F4F093CC03E093CB038091CD039091BF
:10173000CE03892B21F4F093CE03E093CD03CF01A8
:10174000DF91CF911F910F9108950F931F93CF9326
:10175000DF93869F8001879F100D969F100D1124A7
:10176000C8010E94C10BEC01009729F0A80160E0BC
:1017700070E00E94EE0CCE01DF91CF911F910F918E
:101780000895CF93DF938230910510F482E090E0CA
:10179000E091D103F091D20320E030E0C0E0D0E04E
:1017A000309711F14081518148175907C0F048170F
:1017B000590761F482819381209719F09B838A8372
:1017C0002BC09093D2038093D10326C021153105FD
:1017D00019F04217530718F49A01BE01DF01EF0117
:1017E0000280F381E02DDCCF2115310509F1281BA2
:1017F000390B2430310590F412968D919C911397FA
:101800006115710521F0FB019383828304C09093DD
:10181000D2038093D103FD01329644C0FD01E20F53
:10182000F31F81939193225031092D933C933AC039
:101830002091CF033091D003232B41F42091030159
:10184000309104013093D0032093CF032091010104
:10185000309102012115310541F42DB73EB7409179
:10186000050150910601241B350BE091CF03F09147
:10187000D003E217F307A0F42E1B3F0B28173907FC
:1018800078F0AC014E5F5F4F2417350748F04E0FDC
:101890005F1F5093D0034093CF038193919302C075
:1018A000E0E0F0E0CF01DF91CF9108950F931F9317
:1018B000CF93DF93009709F48CC0FC013297138219
:1018C00012820091D1031091D2030115110581F408
:1018D00020813181820F931F2091CF033091D0035B
:1018E0002817390779F5F093D003E093CF0371C03F
:1018F000D80140E050E0AE17BF0750F412962D918A
:101900003C911397AD012115310509F1D901F3CFB0
:101910009D01DA013383228360817181860F971FD5
:101920008217930769F4EC0128813981260F371F4C
:101930002E5F3F4F318320838A819B8193838283F3
:10194000452B29F4F093D203E093D10342C01396C0
:10195000FC93EE931297ED01499159919E01240F4A
:10196000351FE217F30771F480819181840F951F71
:10197000029611969C938E938281938113969C93E9
:101980008E931297E0E0F0E0D80112968D919C9131
:101990001397009719F0F8018C01F6CF8D919C9167
:1019A00098012E5F3F4F820F931F2091CF033091FC
:1019B000D0032817390769F4309729F41092D2031D
:1019C0001092D10302C0138212821093D0030093AD
:1019D000CF03DF91CF911F910F910895DC0101C0DA
:1019E0006D9341505040E0F708952F923F924F92EF
:1019F0005F926F927F928F929F92AF92BF92CF929F
:101A0000DF92EF92FF920F931F93CF93DF93CDB7A7
:101A1000DEB7CA1BDB0B0FB6F894DEBF0FBECDBF1F
:101A200009942A88398848885F846E847D848C84F0
:101A30009B84AA84B984C884DF80EE80FD800C81F9
:101A40001B81AA81B981CE0FD11D0FB6F894DEBFDC
:101A50000FBECDBFED010895A1E21A2EAA1BBB1B3C
:101A6000FD010DC0AA1FBB1FEE1FFF1FA217B3076A
:101A7000E407F50720F0A21BB30BE40BF50B661F80
:101A8000771F881F991F1A9469F760957095809544
:101A900090959B01AC01BD01CF010895EE0FFF1F92
:101AA0000590F491E02D0994A0E0B0E0EAE5FDE0B6
:101AB0000C94F90CEC01009721F4CB010E94C10BAE
:101AC000B8C0FC01E60FF71F9C0122503109E21754
:101AD000F30708F4ACC0D9010D911C9111970617BA
:101AE0001707B0F00530110508F49FC0C80104972E
:101AF0008617970708F499C002501109061B170BA7
:101B0000019311936D937C93CF010E94560C8DC06D
:101B10005B01A01AB10A4C01800E911EA091D10365
:101B2000B091D20340E050E0E12CF12C109709F481
:101B30004AC0A815B905D1F56D907C901197630145
:101B400082E0C80ED11CCA14DB0480F1A3014A193B
:101B50005B096A0182E0C80ED11C1296BC901297F4
:101B60001396AC91B5E0CB16D10440F0B282A383BA
:101B700051834083D9016D937C930AC00E5F1F4F40
:101B8000C301800F911FF90191838083EB2DFA2F00
:101B9000E114F10431F0D7011396FC93EE93129700
:101BA00044C0F093D203E093D1033FC08D919C9148
:101BB00011974817590708F4AC017D0112960D9052
:101BC000BC91A02DB3CF8091CF039091D003881505
:101BD0009905E1F446175707C8F4809101019091E7
:101BE0000201009741F48DB79EB7409105015091D5
:101BF0000601841B950BE817F907C8F4F093D0038E
:101C0000E093CF03F901718360830FC0CB010E9481
:101C1000C10B7C01009759F0A801BE010E94230E60
:101C2000CE010E94560CC70104C0CE0102C080E064
:101C300090E0CDB7DEB7EEE00C94150D81E090E0BA
:101C4000F8940C94330EFB01DC0102C001900D925C
:101C500041505040D8F70895FB01DC0101900D92EE
:101C60000020E1F7089510E0C3E6D0E004C0FE01D3
:101C70000E944E0D2196C436D107C9F7F894FFCFC4
:101C8000FF0000D303800000000000F601FF010008
:101C9000000000870409020000000000000000E9C5
:101CA000050000000000000000E905000000008BB6
:101CB00004F2011F0318000000000000000000E80B
:101CC000FFE8FF000000000000140000000000001A
:101CD000000000ECFFECFF0000000000000000002E
:101CE000001F058C04B7046605E804C604DA040680
:101CF00000000000000F021102FAFFFAFF000010BE
:101D000002130218000000000030024702E8FFE85A
:101D1000FF00003D02510289013B01450193010092
:101D200000000088040D02B001AD01AA01A701A4C2
:101D3000011B0117011401FE001E01A200A00002F8
:101D400000000000005D025F02FEFFFEFF00005E7B
:101D5000026102000000008A04A90200000000895C
:101D6000045B02B001AD01AA01A701A401980152D0
:101D700001390120011E01CC02AB02140000000059
:101D8000007E029502ECFFECFF00008B029F020137
:101D9000024F0159010B020000000072030B020008
:101DA0000000007103F4018E0000000000F106EB5A
:101DB00005C7056F6E436173654F70656E006F6E8A
:101DC00043617365436C6F7365006F6E4261636B53
:101DD000006F6E52657475726E006F6E456E74653D
:101DE00072006F6E4F4B006F6E466F727761726458
:101DF000006F6E46617374466F7277617264006F34
:101E00006E4261636B77617264006F6E46617374DA
:101E10004261636B77617264005374617274696EBE
:101E2000672E2E2E005374617274656421000D0AB2
:021E30000000B0
:00000001FF
